:100000000C9442000C945F000C945F000C945F0011
:100010000C945F000C945F000C945F000C94DA1455
:100020000C945F000C945F000C945F000C945F00D4
:100030000C945F000C945F000C945F000C945F00C4
:100040000C945F000C945F000C945F000C945F00B4
:100050000C945F000C945F000C945F0007634236C1
:10006000B79BD8A71A39685618AEBAAB558C1D3C49
:10007000B7CC5763BD6DEDFD753EF6177231BF000D
:100080000000803F11241FBECFEFD0E1DEBFCDBF07
:1000900011E0A0E0B1E0E8EDF7E402C005900D92B8
:1000A000AA37B107D9F721E0AAE7B1E001C01D9254
:1000B000A73AB207E1F70E940D170C94C0230C94E5
:1000C0000000CF93DF9300D000D0CDB7DEB7E09132
:1000D0008601F09187010190F081E02D808191816E
:1000E000A281B381BC01CD010F900F900F900F90B2
:1000F000DF91CF910895E0918601F0918701019001
:10010000F081E02D90E080E0309739F00196048096
:10011000F581E02D3097D1F708950895CF93DF93BF
:10012000E0918601F0918701C081D181209741F053
:100130008C819D8191838083CE01DF91CF91089541
:100140002091A1013091A2014BE150E061E070E00B
:1001500086E191E00E94DF22EFCFCF93DF93E09121
:100160008601F0918701C081D181209749F08C816F
:100170009D8191838083CE01DF91CF910C949E214C
:100180002091A1013091A2014BE150E061E070E0CB
:1001900086E191E00E94DF22EECFEF92FF920F9373
:1001A0001F93CF93DF937B018C0186E090E00E9448
:1001B0000821EC01E882F9820A831B831D821C82DC
:1001C000E0918601F0918701309799F080819181CB
:1001D000892BE1F0A281B3811596DC93CE9314971D
:1001E000D383C283DF91CF911F910F91FF90EF9046
:1001F000089584E090E00E940821FC01909387011B
:10020000809386011182108213821282D183C0836F
:10021000D383C2831D821C82DF91CF911F910F91E6
:10022000FF90EF900895EF92FF920F931F93CF935B
:10023000DF9300D000D0CDB7DEB769837A838B839C
:100240009C8369817A818B819C810E949B202AE01A
:1002500037ED43EA5DE369837A838B839C8369810D
:100260007A818B819C810E949B209B01AC01E98259
:10027000FA820B831C8369817A818B819C810E9425
:10028000C91D69837A838B839C8369817A818B8181
:100290009C810F900F900F900F90DF91CF911F9145
:1002A0000F91FF90EF9008954F925F926F927F921F
:1002B0008F929F92AF92BF92CF92DF92EF92FF9276
:1002C0000F931F93CF93DF9300D000D00F92CDB741
:1002D000DEB72B013C0149014D83598360E070E09A
:1002E00080E89FE30E94C91D94014D815981698373
:1002F0007A838B839C8369817A818B819C810E9424
:100300009B209201A30169837A838B839C836981FB
:100310007A818B819C810E949B209701A80169832F
:100320007A838B839C8369817A818B819C810E94F3
:100330009B202AE037ED43EA5DE369837A838B8370
:100340009C8369817A818B819C810E949B209B0187
:10035000AC01A982BA82CB82DC8269817A818B81ED
:100360009C810E94C91D69837A838B839C836981E8
:100370007A818B819C810F900F900F900F900F903E
:10038000DF91CF911F910F91FF90EF90DF90CF9071
:10039000BF90AF909F908F907F906F905F904F90A5
:1003A00008952F923F924F925F926F927F928F9219
:1003B0009F92AF92BF92CF92DF92EF92FF920F93F4
:1003C0001F93CF93DF93CDB7DEB7A2970FB6F89404
:1003D000DEBF0FBECDBF5C017A0129A33AA3CB01DA
:1003E000770FAA0BBB0B898F9A8FAB8FBC8FBC0189
:1003F000CD010E941A1F1B012C01C501BB0CAA0BC9
:10040000BB0B898F9A8FAB8FBC8FBC01CD010E9433
:100410001A1F3B014C01DE011196B88FAF8B8CE0A7
:100420001D928A95E9F78701F7013696F8A3EF8FB9
:10043000CE0101969E8F8D8FD801ED90FD908D019C
:10044000F7012081318142815381298E3A8E4B8E72
:100450005C8E698D7A8D8B8D9C8D0E949B205B01BB
:100460006C01D70114962D913D914D915C91179798
:10047000698E7A8E8B8E9C8E698D7A8D8B8D9C8DFC
:100480000E949B209B01AC01A98EBA8ECB8EDC8E84
:10049000698D7A8D8B8D9C8D0E94CA1DF7012085F8
:1004A000318542855385698F7A8F8B8F9C8F698DBB
:1004B0007A8D8B8D9C8D0E94C91DDC01CB01B058BB
:1004C000898F9A8FAB8FBC8FBC01CD010E94B01E6B
:1004D00020E030E040E85FE3698F7A8F8B8F9C8F5C
:1004E000698D7A8D8B8D9C8D0E94CA1D9B01AC01FC
:1004F00060E070E080E89FE30E94361E698F7A8F8B
:100500008B8F9C8FAD8DBE8D6D937D938D939D93C1
:10051000BE8FAD8FEF8DF8A1E017F10709F08CCFFA
:10052000FE013D9688E0DF011D928A95E9F769A0FA
:100530007AA06F013896FE8BED8BD3018D909D9044
:100540003D0184015401BCE0AB0EB11CFE013196AB
:100550007F01212C312C412C512CF701819191915B
:10056000A191B1917F01898F9A8FAB8FBC8FD801F8
:100570002D913D914D915D918D01698D7A8D8B8D80
:100580009C8D0E949B209B01AC01298E3A8E4B8E44
:100590005C8E698D7A8D8B8D9C8D0E94CA1D1B018E
:1005A0002C01A016B106C9F6F401248535854685CF
:1005B0005785698F3A8E4B8E5C8E698D7A8D8B8DC7
:1005C0009C8D0E94CA1DDC01CB01B058898F9A8F87
:1005D000AB8FBC8FBC01CD010E94B01E20E030E08B
:1005E00040E85FE3698F7A8F8B8F9C8F698D7A8D5E
:1005F0008B8D9C8D0E94CA1D9B01AC0160E070E058
:1006000080E89FE30E94361E698F7A8F8B8F9C8FC4
:10061000D6016D937D938D939D936D01ED89FE8938
:10062000EA17FB0709F089CF69897A898B899C8948
:100630000E94E21E8B016D857E858F8598890E94C0
:10064000E21E7A8F698F1C8F0B8F698D7A8D8B8D4F
:100650009C8DA2960FB6F894DEBF0FBECDBFDF9182
:10066000CF911F910F91FF90EF90DF90CF90BF90AF
:10067000AF909F908F907F906F905F904F903F9042
:100680002F900895EF92FF920F931F93CF93DF93D4
:100690007B018901DC01FA010696CD91DD91408153
:1006A000518162817381488359836A837B8344814A
:1006B0005581668177814C835D836E837F8340851E
:1006C000518562857385488759876A877B873C9601
:1006D0008A179B0711F7F701C081D1814CE050E0E8
:1006E000B801CE010E94A822F80184859585A685CF
:1006F000B7858C879D87AE87BF87F701C281D3817D
:10070000B801605F7F4F4CE050E0CE010E94A8220C
:10071000F801848D958DA68DB78D8C879D87AE87CA
:10072000BF87DF91CF911F910F91FF90EF900895B8
:10073000CF93DF9300D000D0CDB7DEB7DC01CB0183
:10074000B05889839A83AB83BC83BC01CD010E94DE
:10075000B01E20E030E040E85FE369837A838B835A
:100760009C8369817A818B819C810E94CA1D9B0137
:10077000AC0160E070E080E89FE30E94361E698370
:100780007A838B839C8369817A818B819C810F9092
:100790000F900F900F90DF91CF9108958F929F92BD
:1007A000AF92BF92CF92DF92EF92FF920F931F937F
:1007B000CF93DF93CDB7DEB72A970FB6F894DEBF9D
:1007C0000FBECDBFB22FA32FF42FE52F9B01AC019D
:1007D000B983AA83FB83EC8369817A818B819C81B5
:1007E0000E94C91D9B01AC0160E070E0CB010E943A
:1007F000C91D8B0189879D8320917E0130917F01E6
:10080000409180015091810169831A838B839C837D
:1008100069817A818B819C810E94CA1D4B017C0178
:10082000CB01D70180937E0190937F01A09380013B
:10083000B093810120917A0130917B0140917C013C
:1008400050917D0169817A818B819C810E94C91DB3
:100850005B016C01A80169857D8140937A01509309
:100860007B0160937C0170937D012AE037ED43EAC0
:100870005DE369817A818B819C810E949B208B0141
:1008800089879D8320E030E0A90189829A82EB82EA
:10089000FC8269817A818B819C810E949B209B01D3
:1008A000AC0109831A8389858B838D818C8369814F
:1008B0007A818B819C810E94CA1D8B0189879D83CF
:1008C00020E030E0A901A982BA82CB82DC82698172
:1008D0007A818B819C810E949B209B01AC010983C2
:1008E0001A8389858B838D818C8369817A818B8141
:1008F0009C810E94CA1D8B018A8799879B01AC014C
:1009000060E070E080EA91E40E94C91D69837A8307
:100910008B839C8369817A818B819C810E94E21EFA
:100920009B016536710514F024E630E037FF02C004
:1009300030E020E01D821E821F8218863E832D83B8
:1009400098014A85598560E070E080EA91EC0E9448
:10095000C91D69837A838B839C8369817A818B81AA
:100960009C810E94E21ECB011816190614F490E037
:1009700080E08C392FEF920714F48CE99FEF988771
:100980008F836D817E818F8198852A960FB6F8942A
:10099000DEBF0FBECDBFDF91CF911F910F91FF90B2
:1009A000EF90DF90CF90BF90AF909F908F90089581
:1009B0002F923F924F925F926F927F928F929F926F
:1009C000AF92BF92CF92DF92EF92FF920F931F935D
:1009D000CF93DF93CDB7DEB7C45BD1090FB6F894E0
:1009E000DEBF0FBECDBFCF56DF4F6883C159D040A9
:1009F000CE56DF4F7883C259D040CD56DF4F888323
:100A0000C359D040CC56DF4F9883C459D040C75506
:100A1000DF4F4883C95AD040C655DF4F5883CA5A62
:100A2000D040CF54DF4F2883C15BD040CE54DF4F3E
:100A30003883C25BD0400E9498229C01990F440BDE
:100A4000550BC357DF4F288339834A835B83CD58C7
:100A5000D040CA01B9010E941A1F20E03EEF4FEFBB
:100A600056E4C357DF4F6883CD58D040C257DF4F9D
:100A70007883CE58D040C157DF4F8883CF58D040BD
:100A8000C057DF4F9883C059D040C357DF4F6881AC
:100A900079818A819B81CD58D0400E94361E3B01CE
:100AA0005C010E9498229C01990F440B550BC3577F
:100AB000DF4F288339834A835B83CD58D040CA01F6
:100AC000B9010E941A1F20E03EEF4FEF56E4C357D2
:100AD000DF4F6883CD58D040C257DF4F7883CE5860
:100AE000D040C157DF4F8883CF58D040C057DF4F29
:100AF0009883C059D040C357DF4F688179818A817C
:100B00009B81CD58D0400E94361E6B017C010E9413
:100B100098229C01990F440B550BC357DF4F288334
:100B200039834A835B83CD58D040CA01B9010E9402
:100B30001A1F20E03EEF4FEF56E4C357DF4F6883A4
:100B4000CD58D040C257DF4F7883CE58D040C157E0
:100B5000DF4F8883CF58D040C057DF4F9883C059AC
:100B6000D040C357DF4F688179818A819B81CD58FE
:100B7000D0400E94361EC156DF4F6883CF59D04007
:100B8000CF55DF4F7883C15AD040CD55DF4F888392
:100B9000C35AD040CC55DF4F9883C45AD0400E94EE
:100BA00098229C01990F440B550BC357DF4F2883A4
:100BB00039834A835B83CD58D040CA01B9010E9472
:100BC0001A1F20E03EEF4FEF56E4C357DF4F688314
:100BD000CD58D040C257DF4F7883CE58D040C15750
:100BE000DF4F8883CF58D040C057DF4F9883C0591C
:100BF000D040C357DF4F688179818A819B81CD586E
:100C0000D0400E94361ECB55DF4F6883C55AD04076
:100C1000CA55DF4F7883C65AD040C955DF4F888305
:100C2000C75AD040C855DF4F9883C85AD0400E9459
:100C300098229C01990F440B550BC357DF4F288313
:100C400039834A835B83CD58D040CA01B9010E94E1
:100C50001A1F20E03EEF4FEF56E4C357DF4F688383
:100C6000CD58D040C257DF4F7883CE58D040C157BF
:100C7000DF4F8883CF58D040C057DF4F9883C0598B
:100C8000D040C357DF4F688179818A819B81CD58DD
:100C9000D0400E94361E562E472E382E292E0E94F6
:100CA00098229C01990F440B550BC357DF4F2883A3
:100CB00039834A835B83CD58D040CA01B9010E9471
:100CC0001A1F20E03EEF4FEF56E4C357DF4F688313
:100CD000CD58D040C257DF4F7883CE58D040C1574F
:100CE000DF4F8883CF58D040C057DF4F9883C0591B
:100CF000D040C357DF4F688179818A819B81CD586D
:100D0000D0400E94361ECB56DF4F6883C559D04075
:100D1000C956DF4F7883C759D040C556DF4F888307
:100D2000CB59D040C356DF4F9883CD59D0408E0168
:100D30000B5A1F4F48013CE0830E911C0E949822E1
:100D40009C01990F440B550BC357DF4F2883398300
:100D50004A835B83CD58D040CA01B9010E941A1F53
:100D600020E03EEF4FEF56E4C357DF4F6883CD5886
:100D7000D040C257DF4F7883CE58D040C157DF4FA5
:100D80008883CF58D040C057DF4F9883C059D04098
:100D9000C357DF4F688179818A819B81CD58D040CC
:100DA0000E94361ED8016D937D938D939D938D0186
:100DB0008A169B0619F68E010B5B1F4F4801BCE09B
:100DC0008B0E911C0E9498229C01990F440B550B8D
:100DD000C357DF4F288339834A835B83CD58D04084
:100DE000CA01B9010E941A1F20E03EEF4FEF56E4FE
:100DF000C357DF4F6883CD58D040C257DF4F788349
:100E0000CE58D040C157DF4F8883CF58D040C0570D
:100E1000DF4F9883C059D040C357DF4F6881798135
:100E20008A819B81CD58D0400E94361EC357DF4F28
:100E3000688379838A839B83CD58D040D8016D9392
:100E40007D938D939D938D018A169B0609F0BACFF1
:100E500040E050E060E87FEBA5964CAF5DAF6EAF31
:100E60007FAFA59780E1FE01EB5AFF4FDE0195961B
:100E700001900D928A95E1F765964CAF5DAF6EAF2C
:100E80007FAF659780E1FE01EB5BFF4FDE01D596FA
:100E900001900D928A95E1F7C301D50189839A8368
:100EA000AB83BC83C601D7018D839E83AF83B88794
:100EB00049875A876B877C87C156DF4F8881CF5916
:100EC000D040CF55DF4F9881C15AD040CD55DF4F2C
:100ED000A881C35AD040CC55DF4FB881C45AD04006
:100EE0008D879E87AF87B88BCB55DF4F8881C55ADA
:100EF000D040CA55DF4F9881C65AD040C955DF4F00
:100F0000A881C75AD040C855DF4FB881C85AD040D1
:100F1000898B9A8BAB8BBC8B4D8B5E8B6F8B788F59
:100F2000852D942DA32DB22D898F9A8FAB8FBC8FD9
:100F3000CB56DF4F8881C559D040C956DF4F9881C5
:100F4000C759D040C556DF4FA881CB59D040C356B2
:100F5000DF4FB881CD59D0408D8F9E8FAF8FB8A312
:100F600049A35AA36BA37CA3FE01EF57FF4FC557BC
:100F7000DF4FF983E883CB58D04088E011928A95FF
:100F8000E9F7CD56DF4F28813981C359D040032E70
:100F9000000C440B550BC357DF4F288339834A831A
:100FA0005B83CD58D040CA01B9010E941A1F5B0172
:100FB0008C01CF56DF4F88819981C159D040092ECD
:100FC000000CAA0BBB0BCF56DF4F88839983AA83F3
:100FD000BB83C159D040BC01CD010E941A1F3B0107
:100FE0004C019501A801C357DF4F6883CD58D0400D
:100FF000C257DF4F7882CE58D040C157DF4F888329
:10100000CF58D040C057DF4F9882C059D040C35707
:10101000DF4F688179818A819B81CD58D0400E94C1
:10102000CE036B017C0120E030E04FE753E4C3576F
:10103000DF4F6882CD58D040C257DF4F7882CE58FC
:10104000D040C157DF4F8882CF58D040C057DF4FC4
:101050009882C059D040C357DF4F688179818A8117
:101060009B81CD58D0400E94361ECD55DF4F6883FE
:10107000C35AD040CC55DF4F7883C45AD040CB55AB
:10108000DF4F8883C55AD040CA55DF4F9883C65A70
:10109000D04020E030E04FE753E4C357DF4FA88251
:1010A000CD58D040C257DF4FB882CE58D040C1573C
:1010B000DF4F0883CF58D040C057DF4F1883C05947
:1010C000D040C357DF4F688179818A819B81CD5899
:1010D000D0400E94361EC955DF4F6883C75AD040A2
:1010E000C855DF4F7883C85AD040C555DF4F888335
:1010F000CB5AD040C455DF4F9883CC5AD04096018C
:10110000DD0C440B550BC357DF4F288339834A83CB
:101110005B83CD58D040CA01B9010E941A1F1B0140
:101120002C01C701FF0CAA0BBB0BC357DF4F8883F1
:101130009983AA83BB83CD58D040BC01CD010E94C6
:101140001A1FC358DF4F688379838A839B83CD57E7
:10115000D040DE01AB59BF4FC757DF4FB983A883DB
:10116000C958D0408CE01D928A95E9F7C755DF4FEA
:10117000E881F981C95AD040C156DF4FF983E8832D
:10118000CF59D0409E012B593F4FCF55DF4F398368
:101190002883C15AD0407F0136E0E30EF11CAE0136
:1011A0004B595F4F5A018F01D801CD90DD908D01D1
:1011B000F6012081318142815381CD55DF4FF88185
:1011C000C35AD040C357DF4FF883CD58D040CC55D9
:1011D000DF4F8881C45AD040C257DF4F8883CE5832
:1011E000D040CB55DF4F9881C55AD040C157DF4F13
:1011F0009883CF58D040CA55DF4FA881C65AD040F7
:10120000C057DF4FA883C059D040C357DF4F688114
:1012100079818A819B81CD58D0400E949B203B01DF
:101220004C01F6012481358146815781C955DF4F34
:10123000F881C75AD040C357DF4FF883CD58D0400C
:10124000C855DF4F8881C85AD040C257DF4F8883C6
:10125000CE58D040C555DF4F9881CB5AD040C157AA
:10126000DF4F9883CF58D040C455DF4FA881CC5A68
:10127000D040C057DF4FA883C059D040C357DF4F7D
:10128000688179818A819B81CD58D0400E949B20C2
:101290009B01AC01C357DF4F6882CD58D040C25785
:1012A000DF4F7882CE58D040C157DF4F8882CF5869
:1012B000D040C057DF4F9882C059D040C357DF4F4E
:1012C000688179818A819B81CD58D0400E94CA1D56
:1012D000F6012085318542855385C357DF4F6883EA
:1012E000CD58D040C257DF4F7883CE58D040C15739
:1012F000DF4F8883CF58D040C057DF4F9883C05905
:10130000D040C357DF4F688179818A819B81CD5856
:10131000D0400E94C91D9B01AC015058C357DF4FFC
:10132000288339834A835B83CD58D040CA01B901F1
:101330000E94B01E20E030E040E85FE3C357DF4F7B
:101340006883CD58D040C257DF4F7883CE58D04005
:10135000C157DF4F8883CF58D040C057DF4F9883A5
:10136000C059D040C357DF4F688179818A819B8102
:10137000CD58D0400E94CA1D9B01AC0160E070E0D6
:1013800080E89FE30E94361EC357DF4F688379834E
:101390008A839B83CD58D040D5016D937D938D93E7
:1013A0009D935D01E016F10609F0FECEFE01EF58B7
:1013B000FF4F88E0DF011D928A95E9F7CF54DF4F98
:1013C000B881C15BD040C356DF4FB883CD59D04000
:1013D000CE54DF4F2881C25BD040C256DF4F2883F6
:1013E000CE59D040C556DF4FF983E883CB59D04062
:1013F0003896C355DF4FF983E883CD5AD040C556A0
:10140000DF4F48815981CB59D040CF56DF4F5983A8
:101410004883C159D040CB56DF4FB883C559D0401F
:10142000CA56DF4F2883C659D040CB56DF4FE881DC
:10143000F981C559D040A190B190CB56DF4FF983C7
:10144000E883C559D04085016501FCE0CF0ED11C71
:101450009E012B593F4F7901612C712C812C912CCD
:10146000F70181919191A191B1917F01C357DF4F14
:1014700088839983AA83BB83CD58D040D8012D910E
:101480003D914D915D918D01C357DF4F6881798109
:101490008A819B81CD58D0400E949B209B01AC014A
:1014A000C357DF4F6882CD58D040C257DF4F788294
:1014B000CE58D040C157DF4F8882CF58D040C05758
:1014C000DF4F9882C059D040C357DF4F6881798180
:1014D0008A819B81CD58D0400E94CA1D3B014C019E
:1014E000C016D10609F0BCCFF501248535854685A7
:1014F0005785C357DF4F6883CD58D040C257DF4F61
:101500007882CE58D040C157DF4F8882CF58D04024
:10151000C057DF4F9882C059D040C357DF4F688112
:1015200079818A819B81CD58D0400E94CA1D9B0140
:10153000AC015058C357DF4F288339834A835B83FC
:10154000CD58D040CA01B9010E94B01E20E030E061
:1015500040E85FE3C357DF4F6883CD58D040C257A0
:10156000DF4F7883CE58D040C157DF4F8883CF58A4
:10157000D040C057DF4F9883C059D040C357DF4F8A
:10158000688179818A819B81CD58D0400E94CA1D93
:101590009B01AC0160E070E080E89FE30E94361E92
:1015A000C357DF4F688379838A839B83CD58D040AC
:1015B000CF56DF4FA881B981C159D0406D937D933B
:1015C0008D939D93CF56DF4FB983A883C159D040E7
:1015D000C355DF4FE881F981CD5AD040EA17FB07A8
:1015E00009F023CF29E730E02C0F3D1F2C5F3F4F40
:1015F000CD54DF4F39832883C35BD040AE014F57B2
:101600005F4FC155DF4F59834883CF5AD040CE0139
:101610008596CB56DF4F99838883C559D0403C01CE
:10162000C556DF4FA881B981CB59D0402D913D914E
:101630004D915D91C556DF4FB983A883CB59D040FA
:10164000C357DF4F288339834A835B83CD58D0400B
:1016500060E070E080E89FE30E94C91D9B01AC013F
:10166000C357DF4F688179818A819B81CD58D040F3
:101670000E94C91D7B018C01A2019101C357DF4F5C
:10168000688179818A819B81CD58D0400E94C91D93
:101690009B01AC01C357DF4FE882CD58D040C25701
:1016A000DF4FF882CE58D040C157DF4F0883CF5864
:1016B000D040C057DF4F1883C059D040C357DF4FC9
:1016C000688179818A819B81CD58D0400E949B207E
:1016D000462F572FBC01CF56DF4F488359836A836B
:1016E0007B83C159D040C356DF4FE881F981CD5982
:1016F000D04081909190C356DF4FF983E883CD5954
:10170000D04084015401FCE0AF0EB11C63019E0186
:101710002B593F4F7901F80181919191A191B1919C
:101720008F01C956DF4F88839983AA83BB83C7592A
:10173000D040D7012D913D914D915D917D01CF56C6
:10174000DF4F688179818A819B81C159D0400E9495
:101750009B202AE037ED43EA5DE3C357DF4F688300
:10176000CD58D040C257DF4F7883CE58D040C157B4
:10177000DF4F8883CF58D040C057DF4F9883C05980
:10178000D040C357DF4F688179818A819B81CD58D2
:10179000D0400E949B209B01AC01C956DF4F68815D
:1017A00079818A819B81C759D0400E94C91DC35746
:1017B000DF4F688379838A839B83CD58D040F601BD
:1017C00061937193819391936F01A016B10609F013
:1017D000A2CFC155DF4FA881B981CF5AD040CF5693
:1017E000DF4F288139814A815B81C159D0402D93D7
:1017F0003D934D935D93C155DF4FB983A883CF5A75
:10180000D0405058CF56DF4F288339834A835B83BB
:10181000C159D0402AE037ED43EA5DE3CF56DF4FB0
:10182000688179818A819B81C159D0400E949B2027
:101830009B01AC01F40164857585868597850E94BE
:10184000C91DD3011C966D937D938D939C931F9717
:10185000B0E16B0E711CC355DF4FE881F981CD5AA1
:10186000D040C556DF4F28813981CB59D040E2178F
:10187000F30789F0CD54DF4FA881B981C35BD04015
:101880002D903D904D905D90CD54DF4FB983A8834E
:10189000C35BD040C5CECF57DF4F288139814A8105
:1018A0005B81C158D040CF56DF4F288339834A83AC
:1018B0005B83C159D040CB57DF4F88819981AA8182
:1018C000BB81C558D040C956DF4F88839983AA830E
:1018D000BB83C759D0408E010F5F1F4FA5E2B0E018
:1018E000AC0FBD1F1C96C556DF4FB983A883CB59DB
:1018F000D040CB56DF4FA881B981C559D0402D903B
:101900003D904D905D90CB56DF4FB983A883C5596C
:10191000D040C156DF4FE881F981CF59D040A19026
:10192000B190C156DF4FF983E883CF59D040CF55EE
:10193000DF4FA881B981C15AD040CD90DD90ED90A4
:10194000FD90CF55DF4FB983A883C15AD040A7017E
:10195000960160E070E080E89FE30E94C91DA70146
:101960009601C357DF4F6883CD58D040C257DF4F31
:101970007883CE58D040C157DF4F8883CF58D040AE
:10198000C057DF4F9883C059D040C357DF4F68819D
:1019900079818A819B81CD58D0400E949B206B0128
:1019A0007C01CB56DF4FE881F981C559D0402485B1
:1019B000358546855785C956DF4F688179818A818B
:1019C0009B81C759D0400E949B203B014C01A20142
:1019D0009101CF56DF4F688179818A819B81C159FE
:1019E000D0400E949B209B01AC01C357DF4F68820F
:1019F000CD58D040C257DF4F7882CE58D040C15723
:101A0000DF4F8882CF58D040C057DF4F9882C059EF
:101A1000D040C357DF4F688179818A819B81CD583F
:101A2000D0400E94CA1D9601A701C357DF4F6883AB
:101A3000CD58D040C257DF4F7883CE58D040C157E1
:101A4000DF4F8883CF58D040C057DF4F9883C059AD
:101A5000D040C357DF4F688179818A819B81CD58FF
:101A6000D0400E949B203B014C019B01AC01CD5515
:101A7000DF4FF881C35AD040C357DF4FF883CD58AA
:101A8000D040CC55DF4F8881C45AD040C257DF4F79
:101A90008883CE58D040CB55DF4F9881C55AD0406F
:101AA000C157DF4F9883CF58D040CA55DF4FA88128
:101AB000C65AD040C057DF4FA883C059D040C35743
:101AC000DF4F688179818A819B81CD58D0400E9407
:101AD0009B202AE037ED43EA5DE3C357DF4F68837D
:101AE000CD58D040C257DF4F7883CE58D040C15731
:101AF000DF4F8883CF58D040C057DF4F9883C059FD
:101B0000D040C357DF4F688179818A819B81CD584E
:101B1000D0400E949B209B01AC01F5016081718146
:101B2000828193810E94C91DD8016D937D938D930D
:101B30009C9313979301A401C955DF4FB881C75AED
:101B4000D040C357DF4FB883CD58D040C855DF4F82
:101B5000E881C85AD040C257DF4FE883CE58D04002
:101B6000C555DF4FF881CB5AD040C157DF4FF883BE
:101B7000CF58D040C455DF4F8881CC5AD040C05791
:101B8000DF4F8883C059D040C357DF4F68817981C8
:101B90008A819B81CD58D0400E949B202AE037ED5E
:101BA00043EA5DE3C357DF4F6883CD58D040C25747
:101BB000DF4F7883CE58D040C157DF4F8883CF584E
:101BC000D040C057DF4F9883C059D040C357DF4F34
:101BD000688179818A819B81CD58D0400E949B2069
:101BE0009B01AC01D50114966D917D918D919C91D5
:101BF00017970E94C91DF8016483758386839783B4
:101C000020E030E0A901C357DF4FC882CD58D04053
:101C1000C257DF4FD882CE58D040C157DF4FE8823D
:101C2000CF58D040C057DF4FF882C059D040C3577B
:101C3000DF4F688179818A819B81CD58D0400E9495
:101C40009B202AE037ED43EA5DE3C357DF4F68830B
:101C5000CD58D040C257DF4F7883CE58D040C157BF
:101C6000DF4F8883CF58D040C057DF4F9883C0598B
:101C7000D040C357DF4F688179818A819B81CD58DD
:101C8000D0400E949B209B01AC01D50118966D911C
:101C90007D918D919C911B970E94C91DF8016087D1
:101CA000718782879387045F1F4FC556DF4F288156
:101CB0003981CB59D040CB56DF4F48815981C55926
:101CC000D0402417350709F014CE9E012B5D3F4FFD
:101CD000AE014F5F5F4FCF54DF4F6881C15BD04093
:101CE000CE54DF4F7881C25BD040C755DF4F88812B
:101CF0009981C95AD0400E944203CC54DF4F0FB69D
:101D0000F894DEBF0FBECDBFDF91CF911F910F9131
:101D1000FF90EF90DF90CF90BF90AF909F908F900B
:101D20007F906F905F904F903F902F900895CF934A
:101D3000DF93CDB7DEB72E970FB6F894DEBF0FBE98
:101D4000CDBF8D839E830E9498229C01990F440BE6
:101D5000550B29833A834B835C83CA01B9010E94E6
:101D60001A1F20E03EEF4FEF56E469837A838B839E
:101D70009C8369817A818B819C810E94361E6F834E
:101D8000788789879A87AD81BE816D937D938D9386
:101D90009C9313970E9498229C01990F440B550B1A
:101DA00029833A834B835C83CA01B9010E941A1FBD
:101DB00020E03EEF4FEF56E469837A838B839C8368
:101DC00069817A818B819C810E94361EAD81BE81A2
:101DD00014966D937D938D939C93179780E090E07C
:101DE000A0E8BFEBED81FE8180879187A287B38752
:101DF0002E960FB6F894DEBF0FBECDBFDF91CF9108
:101E00000895EF92FF920F931F93CF93DF9300D02B
:101E100000D000D0CDB7DEB78D839E83ED80FE80ED
:101E20008701045F1F4F0E9498229C01990F440B69
:101E3000550B29833A834B835C83CA01B9010E9405
:101E40001A1F20E03EEF4FEF56E469837A838B83BD
:101E50009C8369817A818B819C810E94361ED70187
:101E60006D937D938D939D937D01A017B107D9F656
:101E700080E090E0A0E8BFEBED81FE81848795874C
:101E8000A687B78726960FB6F894DEBF0FBECDBFE4
:101E9000DF91CF911F910F91FF90EF9008959C01DA
:101EA000CB012817390724F0C901421753070CF05A
:101EB0000895CA010895CF93DF9300D000D00F9208
:101EC000CDB7DEB78D83862F660F990BAA0BBB0BA0
:101ED00089839A83AB83BC83BC01CD010E941A1F06
:101EE0002AE939E949E95EE369837A838B839C8334
:101EF00069817A818B819C810E949B2020E030E067
:101F00004EEF52E469837A838B839C8369817A8163
:101F10008B819C810E94CA1D69837A838B839C83F9
:101F200069817A818B819C810E94551F69837A83A4
:101F30008B839C8369817A818B819C810E94E21EC4
:101F40008D810F900F900F900F900F90DF91CF9198
:101F50000C943715CF92DF92EF92FF920F931F935D
:101F6000CF93DF93CDB7DEB7C254D1090FB6F89443
:101F7000DEBF0FBECDBF6B017E0122E2E20EF11C7F
:101F80004AE0B7010E94BA224AE08E010F5F1F4F5C
:101F9000B801C6010E94BA22F70101900020E9F7BA
:101FA00031978EE290E2918380831282F801019052
:101FB0000020E9F7319791838083128260E080E00E
:101FC0000E94E512C7010E94D71361E080E00E94E1
:101FD000E512C8010E94D7130E947A14CE5BDF4F2E
:101FE0000FB6F894DEBF0FBECDBFDF91CF911F912A
:101FF0000F91FF90EF90DF90CF900895CF93DF93F4
:1020000000D000D0CDB7DEB79A8389837C836B8301
:10201000E0910001F09101010190F081E02D6981D2
:102020007A818B819C810F900F900F900F90DF91A0
:10203000CF910994EF92FF920F931F93CF93DF9369
:102040007B018C0186E090E00E940821EC01E8828F
:10205000F9820A831B831D821C82E0918601F09124
:102060008701309799F080819181892BE1F0A281DD
:10207000B3811596DC93CE931497D383C283DF91FB
:10208000CF911F910F91FF90EF90089584E090E021
:102090000E940821FC0190938701809386011182A0
:1020A000108213821282D183C083D383C2831D82A4
:1020B0001C82DF91CF911F910F91FF90EF900895B7
:1020C000EAE7F0E0808187688083ECE7F0E08081D8
:1020D00080668083089520917C00287F20937C0077
:1020E00090917C00982B90937C0080917A00806482
:1020F00080937A0080917A0086FDFCCF80917900F0
:1021000008958DB18F7C8DB985E08A95F1F7000037
:102110006D9A759885E08A95F1F700006C9A74982D
:1021200085E08A95F1F7000008956C9885E08A951E
:10213000F1F700006D9885E08A95F1F700000895A9
:102140006D9885E08A95F1F7000065990DC06C984F
:1021500085E08A95F1F700006C9A749885E08A957D
:10216000F1F70000659BF3CF6C9808956C9885E0BB
:102170008A95F1F700006C9A749885E08A95F1F7DA
:10218000000008951F93CF93DF93C82FD62F142FED
:102190000E94A0100E94811087E013C06D9895E006
:1021A0009A95F1F700006C9895E09A95F1F7000088
:1021B0006C9A749895E09A95F1F70000CC0F8150D5
:1021C00029F0C6FDEBCF6D9A7598E9CF6D9A759899
:1021D00085E08A95F1F700006C9895E09A95F1F703
:1021E00000006C9A749885E08A95F1F700006D986C
:1021F00095E09A95F1F700006C98659941C085E0EB
:102200008A95F1F700006C9A749895E09A95F1F729
:10221000000088E014C06D9A759895E09A95F1F7E2
:1022200000006C9895E09A95F1F700006C9A74980C
:1022300095E09A95F1F70000DD0F815021F0D7FF6E
:10224000EACF6D98EACF6D9885E08A95F1F70000A6
:102250006C98659910C095E09A95F1F700006C9A1A
:10226000749885E08A95F1F7000011110EC0DF9196
:10227000CF911F9108958CE691E00E94D713FFCF74
:1022800080E691E00E94D713FFCF6C9895E09A9575
:10229000F1F700006D9885E08A95F1F70000DF9175
:1022A000CF911F9108956623C1F1DC019C01260F97
:1022B000311D8D9198E0FD01319716C06D9A75988A
:1022C00085E08A95F1F700006C9885E08A95F1F732
:1022D00000006C9A749885E08A95F1F7000080817F
:1022E000880F8083915021F087FFE8CF6D98E8CF69
:1022F0006D9885E08A95F1F700006C98659918C093
:1023000085E08A95F1F700006C9A749885E08A95CB
:10231000F1F70000A217B30761F66C9885E08A9583
:10232000F1F700006D9885E08A95F1F700000895B7
:1023300089E691E00E94D713FFCF0F931F93CF93AD
:10234000DF93182FEB01042F0E94811087E013C048
:102350006D9895E09A95F1F700006C9895E09A9544
:10236000F1F700006C9A749895E09A95F1F70000E7
:10237000110F815029F016FDEBCF6D9A7598E9CFBA
:102380006D9885E08A95F1F700006C9895E09A9534
:10239000F1F700006C9A749885E08A95F1F70000D7
:1023A0006D9895E09A95F1F700006C98659956C084
:1023B00085E08A95F1F700006C9A749895E09A95FB
:1023C000F1F700006D9885E08A95F1F70000002391
:1023D00091F19E01200F311D98E08881880F88833C
:1023E0006C9885E08A95F1F70000659B03C08881B1
:1023F0008160888385E08A95F1F700006C9A749873
:1024000085E08A95F1F70000915039F76D9A75983B
:1024100095E09A95F1F700006C9885E08A95F1F7C0
:1024200000006C9A749895E09A95F1F70000219657
:10243000C217D30789F685E08A95F1F700006C98FA
:1024400095E09A95F1F700006D9885E08A95F1F78F
:102450000000DF91CF911F910F91089581E791E0E6
:102460000E94D713FFCFCF93DF930F92CDB7DEB784
:10247000498340E00E94C21061E0CE0101960E94B3
:1024800053110F90DF91CF9108951F93CF93DF9356
:102490000F92CDB7DEB7182F41E00E94C21041E085
:1024A000BE016F5F7F4F812F0E949D1189810F9028
:1024B000DF91CF911F910895CF93DF930F92CDB706
:1024C000DEB741E061E08CE10E94C21041E0BE0154
:1024D0006F5F7F4F8CE10E949D1189810F90DF918A
:1024E000CF910895CF93DF930F92CDB7DEB741E040
:1024F00063E08CE10E94C21041E0BE016F5F7F4F3C
:102500008CE10E949D1189810F90DF91CF910895F8
:10251000CF93DF930F92CDB7DEB741E065E08CE15A
:102520000E94C21041E0BE016F5F7F4F8CE10E94AC
:102530009D1189810F90DF91CF9108958AE08A954E
:10254000F1F700C0449A8AE08A95F1F700C04498F8
:102550008AE08A95F1F700C00895F89482B98AE07C
:102560008A95F1F700C0449A8AE08A95F1F700C095
:1025700044988AE08A95F1F700C0789408958F987E
:10258000F89482B98AE08A95F1F700C0449A8AE00B
:102590008A95F1F700C044988AE08A95F1F700C067
:1025A000789408958F9AF89482B98AE08A95F1F721
:1025B00000C0449A8AE08A95F1F700C044988AE006
:1025C0008A95F1F700C078940895803110F4623054
:1025D00008F008956E5F6295660F660F607C680F65
:1025E0008F98F89462B98AE08A95F1F700C0449A0E
:1025F0008AE08A95F1F700C044988AE08A95F1F75D
:1026000000C0789485EC8A95F1F7000008953C9A13
:10261000879A8FEF81B98FE19EE40197F1F700C0AF
:1026200000008F98F89488E382B99AE09A95F1F7C0
:1026300000C0449AEAE0EA95F1F700C04498FAE055
:10264000FA95F1F700C07894EFE7F2E03197F1F7EF
:1026500000C000008F98F89482B9FAE0FA95F1F77B
:1026600000C0449A9AE09A95F1F700C04498EAE0D5
:10267000EA95F1F700C07894EFE7F2E03197F1F7CF
:1026800000C000008F98F89482B9FAE0FA95F1F74B
:1026900000C0449A9AE09A95F1F700C04498EAE0A5
:1026A000EA95F1F700C07894EFE7F2E03197F1F79F
:1026B00000C000008F98F89498E092B9FAE0FA957B
:1026C000F1F700C0449A9AE09A95F1F700C0449857
:1026D000EAE0EA95F1F700C07894EFE7F2E031978D
:1026E000F1F700C000008F98F89491E092B9FAE0F9
:1026F000FA95F1F700C0449A9AE09A95F1F700C074
:102700004498EAE0EA95F1F700C07894EFE7FEE339
:102710003197F1F700C000008F98F89496E092B9D5
:10272000FAE0FA95F1F700C0449A9AE09A95F1F729
:1027300000C04498EAE0EA95F1F700C07894EFE72A
:10274000F2E03197F1F700C000008F98F89482B959
:10275000FAE0FA95F1F700C0449A8AE08A95F1F719
:1027600000C044989AE09A95F1F700C07894EFE899
:10277000F1E03197F1F700C000008F98F8948CE0F9
:1027800082B9FAE0FA95F1F700C0449A8AE08A9596
:10279000F1F700C044989AE09A95F1F700C0789458
:1027A000EFE8F1E03197F1F700C000000895DC0197
:1027B0008C91882301F190E08F9AF89482B98AE095
:1027C0008A95F1F700C0449AEAE0EA95F1F700C073
:1027D0004498FAE0FA95F1F700C07894EFE7F2E058
:1027E0003197F1F700C000009F5FFD01E90FF11D77
:1027F00080818111E1CF08951F93CF93DF939C01D6
:10280000892B09F45AC045E011E0EFE0F7E2CAE095
:10281000D0E0C901BF016F5F7F4F0E949B1D6623FF
:1028200049F1E217F30770F5605D8F9AF89462B989
:10283000BAE0BA95F1F700C0449A2AE02A95F1F778
:1028400000C04498AAE0AA95F1F700C07894AFE7D9
:10285000B2E01197F1F700C0000010E09C01CF0139
:10286000BE010E94AF1DFB01415099F6DF91CF914F
:102870001F910895E217F30718F41111EFCFD4CF89
:102880001111EDCF605D8F9AF89462B9BAE0BA95F4
:10289000F1F700C0449A8AE08A95F1F700C04498A5
:1028A0009AE09A95F1F700C07894AFE7B2E01197FB
:1028B000F1F700C0000010E0D2CF8F9AF89480E3C7
:1028C00082B92AE02A95F1F700C0449A8AE08A95F5
:1028D000F1F700C044989AE09A95F1F700C0789417
:1028E000AFE7B2E01197F1F700C00000DF91CF91A0
:1028F0001F9108958F98F89481E082B98AE08A95B3
:10290000F1F700C0449A9AE09A95F1F700C0449814
:102910008AE08A95F1F700C078948FE79EE30197EB
:10292000F1F700C000000895382F262F4FEF640301
:10293000C001112464E670E00E94AF1D311107C090
:102940006093B30012164CF45C9A5D98089567BDCD
:10295000121634F45E9A5F9808955D9A5C98089513
:102960005F9A5E980895A3EBB0E01C925D9A5C9824
:1029700017BC5F9A5E9884B1806984B98AB1806F10
:102980008AB9E0EBF0E08081886680838081826094
:10299000808384B5886684BD84B5826084BD8AE006
:1029A00087BD8C9308955C9A5D982C9A5F9A5E9887
:1029B0002F9A08950F920FB60F922F933F938F93F4
:1029C0009F93EF93FF9320919801822F869590E03B
:1029D00020FF2FC02091880030918900880F991F17
:1029E000FC01E857FE4F80819181820F931F9093E5
:1029F00089008093880038B120919801269581E064
:102A000090E0022E01C0880F0A94EAF78095832394
:102A100088B9809198018F5F877080939801FF91AA
:102A2000EF919F918F913F912F910F900FBE0F903B
:102A300018952091880030918900880F991FFC011A
:102A4000E057FE4F80819181820F931F9093890000
:102A50008093880088B190919801969521E030E0AC
:102A600001C0220F9A95EAF7822B88B9D2CF90E065
:102A70002AE0629FB00111246C53764F880F991F92
:102A8000FC01E057FE4F7183608388579E4F24ED11
:102A900030E3261B370BFC01318320830895A0E926
:102AA000B1E024EC39E011963C932E93E8E8F1E094
:102AB00080E197E29183808313963C932E93129743
:102AC0009383828315963C932E93149795838483E6
:102AD00017963C932E9316979783868387B18F60C2
:102AE00087B9E1E8F0E01082808182608083EFE6C0
:102AF000F0E0808182608083789408958CB1809525
:102B0000881F8827881F0895282F30E08E3010F006
:102B100080E00895F901EE53FC4D0C94C31D86B17D
:102B200090E02250310902C0959587952A95E2F7E9
:102B30008170089583B190E02950310902C09595C4
:102B400087952A95E2F7817008959CB1292F30E08E
:102B5000A90102C0559547958A95E2F7CA0181708F
:102B6000089582B390E02F5F3F4F02C095958795FF
:102B70002A95E2F78170089523B1E9CF83B1869554
:102B8000817008958CB186FB882780F9089583B100
:102B900081700895282F30E08E3030F4F901E05331
:102BA000FC4D0C94C31D219808952250310981E0F9
:102BB00090E001C0880F2A95EAF797B1662309F4DF
:102BC0004DC0892B87B908952950310981E090E0E3
:102BD00001C0880F2A95EAF794B1662309F446C02C
:102BE000892B84B908952F5F3F4F81E090E001C0A9
:102BF000880F2A95EAF793B36623A1F1892B83BB4B
:102C0000089521E030E001C0220F8A95EAF78DB1E6
:102C1000662381F1282B2DB9089521E030E001C011
:102C2000220F8A95EAF784B1662381F0282B24B914
:102C30000895662309F4B7CF219A0895662361F0B9
:102C40006E9A0895662331F0209A089520952823DE
:102C500024B90895209808956E9808958095892341
:102C600087B908958095892383BB0895809589232A
:102C700084B90895209528232DB90895282F30E090
:102C80008E3030F4F901E252FC4D0C94C31D2998AA
:102C900008952250310981E090E001C0880F2A9503
:102CA000EAF798B1662309F44DC0892B88B90895D5
:102CB0002950310981E090E001C0880F2A95EAF798
:102CC00095B1662309F446C0892B85B908952F5F15
:102CD0003F4F81E090E001C0880F2A95EAF794B356
:102CE0006623A1F1892B84BB089521E030E001C067
:102CF000220F8A95EAF78EB1662381F1282B2EB92F
:102D0000089521E030E001C0220F8A95EAF785B1ED
:102D1000662381F0282B25B90895662309F4B7CFDF
:102D2000299A0895662361F0769A0895662331F012
:102D3000289A08952095282325B90895289808955C
:102D4000769808958095892388B908958095892378
:102D500084BB08958095892385B9089520952823FB
:102D60002EB90895811104C0613041F0A0980895F2
:102D7000613011F0A1980895A19A0895A09A08953C
:102D8000811102C0A09A0895A19A0895811102C0EC
:102D9000A0980895A1980895529A83B3836083BB45
:102DA000779A0E9460100E9407130E944F150E949C
:102DB000B31441E06AE28CE10E9433122FEF81EEFE
:102DC00094E0215080409040E1F700C000000C9456
:102DD000A010A4E0B0E0EFEEF6E10C946823FC0153
:102DE0000FB6F8948091A3019091A401A091A50140
:102DF000B091A60189839A83AB83BC830FBE3097C1
:102E000021F080839183A283B38369817A818B814E
:102E10009C812496E2E00C948423CDB7DEB7C056A3
:102E2000D1090FB6F894DEBF0FBECDBFCE01C99653
:102E300027969FAF8EAF27970C9729969FAF8EAF9F
:102E400029970C972B969FAF8EAF2B9721E130E0FF
:102E50002C0F3D1F2D963FAF2EAF2D9741E050E038
:102E60004C0F5D1F2F965FAF4EAF2F9790E080E025
:102E70000E94E916272F862F922F0E949D220E94E2
:102E8000CC16A1961FAE1EAEA197712C612C8AE0C4
:102E9000482E512CCE014D9663969FAF8EAF63970F
:102EA000DE011D966196BFAFAEAF619792E0292E0D
:102EB000312C80918401909185018230910509F433
:102EC0004AC28330910508F083C0892B09F4CAC433
:102ED0000E947A1482E00E946B10E82E83E00E9428
:102EE0006B10082F60E080E00E94E5128FE391E014
:102EF0000E94D71360E086E00E94E512A1968EAD95
:102F00009FADA1970E94FC1361E080E00E94E51252
:102F1000F12CC7010E94FC1361E085E00E94E512DC
:102F200010E0C8010E94FC136996FFAEEEAE6997EF
:102F30006B961FAF0EAF6B97E0910001F09101010E
:102F40000190F081E02D6B966CAD7DAD8EAD9FADA7
:102F50006B970995A196EEADFFADA1973196A1961D
:102F6000FFAFEEAFA19704E610E00DC066246394B6
:102F7000712C8FE99FE00197F1F700C0000001502C
:102F8000110909F496CF0E947E158823C1F06114BF
:102F9000710461F30E947E158111EBCF309285019F
:102FA000209284010E947A1460E080E00E94E51281
:102FB00084E491E00E94D713612C712CDACF0E9437
:102FC0007E158111D6CFF1E06F16710491F6E6CF30
:102FD0008330910509F410C2049709F002C282E01F
:102FE0000E946B10082F83E00E946B10182F202F77
:102FF00030E050E040E067962CAF3DAF4EAF5FAFA2
:103000006797CA01B9010E94181F20E030E04FE71E
:1030100053E464966FAF649765967FAF6597669645
:103020008FAF669767969FAF679767966CAD7DADDC
:103030008EAD9FAD67970E94361E64966FAF649702
:1030400065967FAF659766968FAF669767969FAFD9
:10305000679767966CAD7DAD8EAD9FAD67970E940B
:10306000E21E6F961CAE1DAE1EAE1FAE6F976D9624
:103070007FAF6EAF6D97812F90E0B0E0A0E06796D4
:103080008CAF9DAFAEAFBFAF6797BC01CD010E94C3
:10309000181F20E030E04FE753E464966FAF649769
:1030A00065967FAF659766968FAF669767969FAF79
:1030B000679767966CAD7DAD8EAD9FAD67970E94AB
:1030C000361E64966FAF649765967FAF6597669678
:1030D0008FAF669767969FAF679767966CAD7DAD2C
:1030E0008EAD9FAD67970E94E21E6F967FAF6EAF69
:1030F0006F979E01255B3F4FAE014B5B5F4F6F9615
:103100006CAD7DAD8EAD9FAD6F970E94D101462F06
:10311000572F94E6949F7001959FF00C1124A0EF17
:10312000B8EDA49F8001A59F100DB49F100D112430
:103130002E2D0E2C000C330B440B550B67962CAF29
:103140003DAF4EAF5FAF6797CA01B9010E941A1F2A
:103150002AE939E949E95EE364966FAF64976596B9
:103160007FAF659766968FAF669767969FAF6797B5
:1031700067966CAD7DAD8EAD9FAD67970E949B202D
:1031800020E030E04EEF52E464966FAF64976596AE
:103190007FAF659766968FAF669767969FAF679785
:1031A00067966CAD7DAD8EAD9FAD67970E94CA1DD1
:1031B00064966FAF649765967FAF659766968FAF9D
:1031C000669767969FAF679767966CAD7DAD8EAD3E
:1031D0009FAD67970E94551F64966FAF6497659681
:1031E0007FAF659766968FAF669767969FAF679735
:1031F00067966CAD7DAD8EAD9FAD67970E94E21E68
:1032000080E00E943715802F002E000C990BAA0B2E
:10321000BB0B67968CAF9DAFAEAFBFAF6797BC01DE
:10322000CD010E941A1F2AE939E949E95EE3649653
:103230006FAF649765967FAF659766968FAF669719
:1032400067969FAF679767966CAD7DAD8EAD9FAD6E
:1032500067970E949B2020E030E04EEF52E4649696
:103260006FAF649765967FAF659766968FAF6697E9
:1032700067969FAF679767966CAD7DAD8EAD9FAD3E
:1032800067970E94CA1D64966FAF649765967FAF7B
:10329000659766968FAF669767969FAF67976796B5
:1032A0006CAD7DAD8EAD9FAD67970E94551F649646
:1032B0006FAF649765967FAF659766968FAF669799
:1032C00067969FAF679767966CAD7DAD8EAD9FADEE
:1032D00067970E94E21E81E00E9437150E947A14CF
:1032E00060E080E00E94E51285E591E00E94D7133E
:1032F00061E080E00E94E512C7010E94FC1361E0DA
:1033000085E00E94E512C8010E94FC130E947E1510
:10331000882309F4FCC36114710409F4EBC30E940F
:103320007E158111C6CD30928501209284010E94C4
:103330007A1460E080E00E94E51284E491E00E944B
:10334000D713612C712C809184019091850182307A
:10335000910509F0B6CD0E94721290E09C012051B7
:1033600031092C32310508F0C9C39CE049165104DB
:103370001CF0AAE04A1A510861E080E00E94E512C0
:10338000C2010E94FC1304EF11E00DC06624639497
:10339000712C8FE99FE00197F1F700C00000015008
:1033A000110909F486CD0E947E15882309F498C37B
:1033B0006114710459F30E947E158111EACFF3E084
:1033C000F0938401109285010E947A1460E080E0FD
:1033D0000E94E5128FE491E00E94D713612C712CBA
:1033E000D8CF0E947A1460E080E00E94E5128CE55C
:1033F00091E00E94D7135DCD0E9498229C01990F05
:10340000440B550B67962CAF3DAF4EAF5FAF679740
:10341000CA01B9010E941A1F20E03EEF4FEF56E4A7
:1034200064966FAF649765967FAF659766968FAF2A
:10343000669767969FAF679767966CAD7DAD8EADCB
:103440009FAD67970E94361E69AF7AAF8BAF9CAF76
:103450000E9498229C01990F440B550B67962CAF44
:103460003DAF4EAF5FAF6797CA01B9010E941A1F07
:1034700020E03EEF4FEF56E464966FAF6497659699
:103480007FAF659766968FAF669767969FAF679792
:1034900067966CAD7DAD8EAD9FAD67970E94361E71
:1034A00021966CAF7DAF8EAF9FAF219750E040E08B
:1034B00030E82FEB852F942FA32FB22F25968CAFBA
:1034C0009DAFAEAFBFAF25970E9498229C01990F88
:1034D000440B550B67962CAF3DAF4EAF5FAF679770
:1034E000CA01B9010E941A1F20E03EEF4FEF56E4D7
:1034F00064966FAF649765967FAF659766968FAF5A
:10350000669767969FAF679767966CAD7DAD8EADFA
:103510009FAD67970E94361E6DA77EA78FA798ABB9
:103520000E9498229C01990F440B550B67962CAF73
:103530003DAF4EAF5FAF6797CA01B9010E941A1F36
:1035400020E03EEF4FEF56E464966FAF64976596C8
:103550007FAF659766968FAF669767969FAF6797C1
:1035600067966CAD7DAD8EAD9FAD67970E94361EA0
:1035700069AB7AAB8BAB9CAB50E040E030E82FEB13
:10358000852F942FA32FB22F8DAB9EABAFABB8AFCF
:103590000E9498229C01990F440B550B67962CAF03
:1035A0003DAF4EAF5FAF6797CA01B9010E941A1FC6
:1035B00020E03EEF4FEF56E464966FAF6497659658
:1035C0007FAF659766968FAF669767969FAF679751
:1035D00067966CAD7DAD8EAD9FAD67970E94361E30
:1035E00069A37AA38BA39CA30E9498229C01990FA4
:1035F000440B550B67962CAF3DAF4EAF5FAF67974F
:10360000CA01B9010E941A1F20E03EEF4FEF56E4B5
:1036100064966FAF649765967FAF659766968FAF38
:10362000669767969FAF679767966CAD7DAD8EADD9
:103630009FAD67970E94361E6DA37EA38FA398A7A8
:1036400050E040E030E82FEB852F942FA32FB22FCE
:1036500089A79AA7ABA7BCA78E010F5E1F4F0E9438
:1036600098229C01990F440B550B67962CAF3DAFE8
:103670004EAF5FAF6797CA01B9010E941A1F20E0E1
:103680003EEF4FEF56E464966FAF649765967FAF59
:10369000659766968FAF669767969FAF67976796B1
:1036A0006CAD7DAD8EAD9FAD67970E94361ED80183
:1036B0006D937D938D939D938D016396EEADFFADDC
:1036C0006397AE17BF0759F650E040E030E82FEBA4
:1036D000852F942FA32FB22F8D8F9E8FAF8FB8A3DE
:1036E0008E010F5F1F4F0E9498229C01990F440B7F
:1036F000550B67962CAF3DAF4EAF5FAF6797CA01D2
:10370000B9010E941A1F20E03EEF4FEF56E4649685
:103710006FAF649765967FAF659766968FAF669734
:1037200067969FAF679767966CAD7DAD8EAD9FAD89
:1037300067970E94361E67966CAF7DAF8EAF9FAFC6
:103740006797D8016D937D938D939D938D016196BD
:10375000EEADFFAD6197EA17FB0729F650E040E0B8
:1037600030E82FEB852F942FA32FB22F8D879E87C4
:10377000AF87B88B912C812C141415040CF061C008
:10378000E0910001F09101010680F781E02D09959B
:103790005C0110E000E0181619060CF04BC0E09137
:1037A0000001F09101010084F185E02D0995FC01F3
:1037B00080819181A281B38167968CAF9DAFAEAFBE
:1037C000BFAF6797E080F180C280D3800E947A14F7
:1037D00060E085E00E94E512C4010E94FC1361E0F4
:1037E00080E00E94E512C7010E94FC1361E085E0C1
:1037F0000E94E512C6010E94FC139FEFA1EEB4E007
:103800009150A040B040E1F700C000009E01255B50
:103810003F4FAE014B5B5F4F67966CAD7DAD8EAD9C
:103820009FAD67970E94D8040F5F1F4FA016B10687
:1038300009F0B5CF3FEF831A930A4814590409F0F1
:103840009FCF24E030E030938501209384010E94D3
:103850007A1460E080E00E94E51285E591E00E9424
:10386000D71327CB60E080E00E94E51282E391E06D
:103870000E94D71382E00E946B10D82E83E00E9432
:103880006B10282F30E050E040E067962CAF3DAF42
:103890004EAF5FAF6797CA01B9010E941A1F7B0143
:1038A0008C018D2D90E0B0E0A0E067968CAF9DAFCD
:1038B000AEAFBFAF6797BC01CD010E941A1F970141
:1038C000A80164966FAF649765967FAF659766961B
:1038D0008FAF669767969FAF679767966CAD7DAD24
:1038E0008EAD9FAD67970E94CE03182F262F660FCF
:1038F000330B440B550B67962CAF3DAF4EAF5FAF0C
:103900006797CA01B9010E941A1F2AE939E949E9F2
:103910005EE364966FAF649765967FAF6597669632
:103920008FAF669767969FAF679767966CAD7DADD3
:103930008EAD9FAD67970E949B2020E030E04EEF58
:1039400052E464966FAF649765967FAF659766960D
:103950008FAF669767969FAF679767966CAD7DADA3
:103960008EAD9FAD67970E94CA1D64966FAF649736
:1039700065967FAF659766968FAF669767969FAFA0
:10398000679767966CAD7DAD8EAD9FAD67970E94D2
:10399000551F64966FAF649765967FAF659766967F
:1039A0008FAF669767969FAF679767966CAD7DAD53
:1039B0008EAD9FAD67970E94E21E80E00E94371592
:1039C000812F110F990BAA0BBB0B67968CAF9DAF84
:1039D000AEAFBFAF6797BC01CD010E941A1F2AE9A5
:1039E00039E949E95EE364966FAF649765967FAF06
:1039F000659766968FAF669767969FAF679767964E
:103A00006CAD7DAD8EAD9FAD67970E949B2020E091
:103A100030E04EEF52E464966FAF649765967FAFE7
:103A2000659766968FAF669767969FAF679767961D
:103A30006CAD7DAD8EAD9FAD67970E94CA1D64963B
:103A40006FAF649765967FAF659766968FAF669701
:103A500067969FAF679767966CAD7DAD8EAD9FAD56
:103A600067970E94551F64966FAF649765967FAF06
:103A7000659766968FAF669767969FAF67976796CD
:103A80006CAD7DAD8EAD9FAD67970E94E21E81E06B
:103A90000E9437150E947E15882309F442C06114E4
:103AA000710441F10E947E15811103CAA1E0A09327
:103AB0008401109285010E947A1460E080E00E94E7
:103AC000E5128FE391E00E94D71360E080E00E944E
:103AD0005B0F60E081E00E945B0F612C712CE9C9F3
:103AE0000E947E15811155CCE1E06E16710409F03B
:103AF00050CC65CC66246394712CDBC98F5B910933
:103B00008C9708F039CCBAE04B0E511C35CC0E9492
:103B10007E158111CEC991E06916710409F0C9C9F9
:103B200002CC0E947E158111C4C991E0691671040E
:103B300009F0BFC9BBCFAA1BBB1B51E107C0AA1F1D
:103B4000BB1FA617B70710F0A61BB70B881F991F3E
:103B50005A95A9F780959095BC01CD01089597FBE2
:103B6000072E16F4009407D077FD09D00E949B1D04
:103B700007FC05D03EF4909581959F4F0895709570
:103B800061957F4F0895EE0FFF1F0590F491E02D92
:103B900009945058BB27AA270E94E11D0C94D31FFB
:103BA0000E94C51F38F00E94CC1F20F039F49F3FBF
:103BB00019F426F40C949B1F0EF4E095E7FB0C948B
:103BC0006C1FE92F0E94E41F58F3BA1762077307AE
:103BD0008407950720F079F4A6F50C941E200EF4C6
:103BE000E0950B2EBA2FA02D0B01B90190010C010D
:103BF000CA01A0011124FF27591B99F0593F50F425
:103C0000503E68F11A16F040A22F232F342F44277C
:103C1000585FF3CF469537952795A795F040539574
:103C2000C9F77EF41F16BA0B620B730B840BBAF044
:103C30009150A1F0FF0FBB1F661F771F881FC2F7AF
:103C40000EC0BA0F621F731F841F48F487957795C3
:103C50006795B795F7959E3F08F0B0CF9395880F7D
:103C600008F09927EE0F9795879508950E944A1EB0
:103C70000C94D31F0E94CC1F58F00E94C51F40F027
:103C800029F45F3F29F00C946C1F51110C941F20F4
:103C90000C949B1F0E94E41F68F39923B1F35523F2
:103CA00091F3951B550BBB27AA276217730784074F
:103CB00038F09F5F5F4F220F331F441FAA1FA9F3E5
:103CC00035D00E2E3AF0E0E832D091505040E695D3
:103CD000001CCAF72BD0FE2F29D0660F771F881F34
:103CE000BB1F261737074807AB07B0E809F0BB0B27
:103CF000802DBF01FF2793585F4F3AF09E3F51053B
:103D000078F00C946C1F0C941F205F3FE4F3983EF6
:103D1000D4F3869577956795B795F7959F5FC9F723
:103D2000880F911D9695879597F90895E1E0660FA4
:103D3000771F881FBB1F621773078407BA0720F01D
:103D4000621B730B840BBA0BEE1F88F7E095089586
:103D500029F416F00C946C1F0C941E200C949B1FDD
:103D60000E94EC1FA8F39638A0F707F80F92E8948A
:103D70002BE33AEA48EB5FE70E94B1200F920F92E3
:103D80000F924DB75EB70F920E946720ECE5F0E00E
:103D90000E949E1F4F915F91EF91FF91E595EE1F5D
:103DA000FF1F49F0FE57E0684427EE0F441FFA95C5
:103DB000E1F74195550B0E9431200F9007FE0C94BE
:103DC000252008950E94E91E6894B1110C941F20CB
:103DD00008950E94EC1F88F09F5798F0B92F9927FB
:103DE000B751B0F0E1F0660F771F881F991F1AF0E6
:103DF000BA95C9F714C0B13091F00E941E20B1E00D
:103E000008950C941E20672F782F8827B85F39F00B
:103E1000B93FCCF3869577956795B395D9F73EF47E
:103E200090958095709561957F4F8F4F9F4F089526
:103E3000E89409C097FB3EF4909580957095619544
:103E40007F4F8F4F9F4F9923A9F0F92F96E9BB27FA
:103E50009395F695879577956795B795F111F8CF76
:103E6000FAF4BB0F11F460FF1BC06F5F7F4F8F4FE1
:103E70009F4F16C0882311F096E911C0772321F0D7
:103E80009EE8872F762F05C0662371F096E8862F6F
:103E900070E060E02AF09A95660F771F881FDAF7C6
:103EA000880F9695879597F908950E94062090F0BF
:103EB0009F3748F4911116F00C941F2060E070E0D9
:103EC00080E89FEB089526F41B16611D711D811D6E
:103ED0000C94721F0C948D1F97F99F6780E870E017
:103EE00060E00895882371F4772321F09850872BA0
:103EF000762F07C0662311F499270DC09051862BA9
:103F000070E060E02AF09A95660F771F881FDAF755
:103F1000880F9695879597F908959F3F31F09150B6
:103F200020F4879577956795B795880F911D96959D
:103F3000879597F908959FEF80EC0895DF93CF93CD
:103F40001F930F93FF92EF92DF927B018C01689495
:103F500006C0DA2EEF010E94AE20FE01E894A59182
:103F60002591359145915591A6F3EF010E94E11DF0
:103F7000FE019701A801DA9469F7DF90EF90FF90B6
:103F80000F911F91CF91DF91089500240A94161686
:103F9000170618060906089500240A941216130637
:103FA000140605060895092E0394000C11F48823C5
:103FB00052F0BB0F40F4BF2B11F460FF04C06F5FE1
:103FC0007F4F8F4F9F4F089557FD9058440F551FB7
:103FD00059F05F3F71F04795880F97FB991F61F08B
:103FE0009F3F79F087950895121613061406551F02
:103FF000F2CF4695F1DF08C0161617061806991F6E
:10400000F1CF869571056105089408950E94EC1F13
:10401000A0F0BEE7B91788F4BB279F3860F41616E6
:10402000B11D672F782F8827985FF7CF86957795F2
:104030006795B11D93959639C8F30895E894BB2709
:1040400066277727CB0197F908959B01AC0160E0C3
:1040500070E080E89FE30C94361E0C946C1F0C9467
:104060008D1F0E94EC1FD8F39923C9F3940F511DA3
:10407000A3F39150504094F059F0882332F0660F2A
:10408000771F881F91505040C1F79E3F51052CF774
:10409000880F911D9695879597F908955F3FACF02D
:1040A000983E9CF0BB27869577956795B79508F461
:1040B000B1609395C1F7BB0F58F711F460FFE8CFDB
:1040C0006F5F7F4F8F4F9F4FE3CF0C941F20FA01FC
:1040D000DC01AA0FBB1F9B01AC01BF5728F42227AC
:1040E00033274427507820C0B75190F4AB2F0024D9
:1040F000469537952795011CA395D2F3002071F0C2
:10410000220F331F441FB395DAF30ED00C94C91D50
:1041100061307105A0E88A07B94630F49B01AC0113
:104120006627772788279078309621F0208331837F
:104130004283538308950E94AE200C94D31F0E94A3
:10414000C51F38F00E94CC1F20F0952311F00C946D
:104150006C1F0C949B1F11240C941F200E94E41FC1
:1041600070F3959FC1F3950F50E0551F629FF001CA
:10417000729FBB27F00DB11D639FAA27F00DB11DE3
:10418000AA1F649F6627B00DA11D661F829F22276C
:10419000B00DA11D621F739FB00DA11D621F839FF3
:1041A000A00D611D221F749F3327A00D611D231FC9
:1041B000849F600D211D822F762F6A2F11249F5717
:1041C00050409AF0F1F088234AF0EE0FFF1FBB1F1A
:1041D000661F771F881F91505040A9F79E3F5105D9
:1041E00080F00C946C1F0C941F205F3FE4F3983E0A
:1041F000D4F3869577956795B795F795E7959F5F83
:10420000C1F7FE2B880F911D9695879597F9089514
:104210000F931F93CF93DF939C01029710F422E03A
:1042200030E0E0919901F0919A0190E080E0B0E0F7
:10423000A0E0309791F4009709F445C0821B930BDE
:1042400084309105B8F58A819B816115710569F10A
:10425000FB0193838283FE0111C040815181028161
:10426000138142175307F0F04217530799F4109740
:1042700061F012960C93129713961C933296CF010D
:10428000DF91CF911F910F910895009399011093A1
:104290009A01F4CF009719F04817590718F4CA018A
:1042A000BD01EF01DF01F801C4CF90939A01809323
:1042B0009901D1CFFE01E80FF91F219331930297A5
:1042C00099838883DCCF80919B0190919C01892BFD
:1042D00041F480910E0190910F0190939C01809385
:1042E0009B0180910C0190910D01009741F48DB7D5
:1042F0009EB74091100150911101841B950B409184
:104300009B0150919C014817590708F0B8CF841BB6
:10431000950B8217930708F4B2CFB9016E5F7F4FF8
:104320008617970708F4ABCF640F751F70939C0135
:1043300060939B01FA0121933193A1CFCF93DF9337
:104340009C010097E9F0FC01329713821282C09120
:104350009901D0919A01DE0190E080E02097A1F4CC
:1043600080819181280F391F80919B0190919C0140
:104370008217930709F067C0F0939C01E0939B01BB
:10438000DF91CF910895DA01AE17BF0708F041C061
:1043900012964D915C911397CD014115510599F7F6
:1043A000DC011396FC93EE9312974D915D91A40F4F
:1043B000B51FEA17FB0781F4208131812E5F3F4F43
:1043C000240F351FDC0111963C932E9322813381FB
:1043D00013963C932E931297B0E0A0E08A819B81C4
:1043E0000097B1F5FE0181919191E80FF91F80913D
:1043F0009B0190919C018E179F0711F6109759F51C
:1044000010929A0110929901D0939C01C0939B0144
:10441000B7CFB383A28340815181240F351FA217E8
:10442000B30771F44E5F5F4F2D913C911197420F8E
:10443000531F5183408312962D913C9133832283E5
:10444000009709F0ADCFF0939A01E093990198CFCE
:10445000DE01EC01C3CF13961C921E921297D4CFAB
:10446000CF92DF92EF92FF92CF93DF93CDB7DEB77B
:104470002A970FB6F894DEBF0FBECDBF89879A8703
:10448000A985BA852D913D914D915C9129833A83FF
:104490004B835C83232B242B252B41F424E239ED21
:1044A0004BE557E029833A834B835C8369817A81AA
:1044B0008B819C812DE133EF41E050E00E94262367
:1044C00069017A01A7EAB1E49B01AC010E9445238E
:1044D00069837A838B839C83ACEEB4EFA70196014A
:1044E0000E9453239B01AC0189819A81AB81BC81DD
:1044F000820F931FA41FB51FB7FF03C00197A10927
:10450000B048E985FA8580839183A283B3839F773E
:104510002A960FB6F894DEBF0FBECDBFDF91CF91C4
:10452000FF90EF90DF90CF9008950E943022089581
:1045300082E191E00E9430220895B0E0A0E08093F3
:10454000120190931301A0931401B09315010895E3
:104550006817790768F4FB01DC01E40FF51FA40F6D
:10456000B51F02C002900E9241505040D8F70895F6
:104570000C940D23BB274A3031F4992322F4BDE279
:10458000909581959F4F0C94C622BB27FB01552720
:10459000AA27880F991FAA1FA41710F0A41B8395A0
:1045A0005051B9F7A05DAA3308F0A95DA193009717
:1045B00079F7B111B1931192CB010C941623B0E0AD
:1045C000A0E0E5EEF2E20C945E234C017B016A016F
:1045D0008901D90113968C91D0E0C0E081FF17C00A
:1045E000CC15DD05A1F05401AE0CBF1C0BC0D801E9
:1045F0001896ED91FC91B801D4018D914D0109956A
:10460000892B29F48A149B0491F72196E9CFCE01D6
:10461000CDB7DEB7ECE00C947A23FB01DC0102C0DD
:1046200001900D9241505040D8F70895DC01FC01F3
:10463000672F71917723E1F7329704C07C916D93D6
:1046400070836291AE17BF07C8F30895052E97FBDC
:104650001EF400940E943D2357FD07D00E948F2333
:1046600007FC03D04EF40C943D23509540953095B3
:1046700021953F4F4F4F5F4F0895909580957095CE
:1046800061957F4F8F4F9F4F08950E94B123A59F43
:10469000900DB49F900DA49F800D911D112408953D
:1046A000B7FF0C9445230E944523821B930B08956A
:1046B0002F923F924F925F926F927F928F929F9232
:1046C000AF92BF92CF92DF92EF92FF920F931F9320
:1046D000CF93DF93CDB7DEB7CA1BDB0B0FB6F894D1
:1046E000DEBF0FBECDBF09942A88398848885F8411
:1046F0006E847D848C849B84AA84B984C884DF8082
:10470000EE80FD800C811B81AA81B981CE0FD11D65
:104710000FB6F894DEBF0FBECDBFED010895A1E244
:104720001A2EAA1BBB1BFD010DC0AA1FBB1FEE1F2B
:10473000FF1FA217B307E407F50720F0A21BB30B76
:10474000E40BF50B661F771F881F991F1A9469F7F2
:1047500060957095809590959B01AC01BD01CF014E
:104760000895A29FB001B39FC001A39F700D811D4A
:104770001124911DB29F700D811D1124911D08956A
:10478000F894FFCFA515A515B115B115C215BC1527
:10479000BC158F158F158F15C7159A159A15BE154F
:1047A00001160116F315F3151E160D160D16D51567
:1047B000D515D5152216E415E415191675167516B6
:1047C00067166716921681168116491649164916FC
:0847D0009616581658168D16B6
:1047D8000201CD00AD0061007B008E000000A70142
:1047E800200001000000446571756575696E6720D9
:1047F80066726F6D20656D70747920717565756569
:104808000A0050726F706F7274696F6E616C004449
:1048180061746100305F547261696E696E6700543B
:104828007261696E004E657572616C004552520086
:10483800616464724E41434B0077725F4E41434B53
:0A48480000726561644E41434B00AD
:00000001FF
