:100000000C9442000C945F000C945F000C945F0011
:100010000C945F000C945F000C945F000C946511CD
:100020000C945F000C945F000C945F000C945F00D4
:100030000C945F000C945F000C945F000C945F00C4
:100040000C945F000C945F000C945F000C945F00B4
:100050000C945F000C945F000C945F0007634236C1
:10006000B79BD8A71A39685618AEBAAB558C1D3C49
:10007000B7CC5763BD6DEDFD753EF6177231BF000D
:100080000000803F11241FBECFEFD0E1DEBFCDBF07
:1000900011E0A0E0B1E0E0E3F3E402C005900D92CE
:1000A000A837B107D9F721E0A8E7B1E001C01D9258
:1000B000A13BB207E1F70E9498130C946C210C94B9
:1000C0000000CF93DF93CDB7DEB728970FB6F89433
:1000D000DEBF0FBECDBFE0919001F0919101019084
:1000E000F081E02D88E0DE01119601900D928A9555
:1000F000E1F729813A814B815C816D817E818F811D
:10010000988528960FB6F894DEBF0FBECDBFDF915D
:10011000CF910895E0919001F09191010190F081CB
:10012000E02D90E080E0309739F001960084F18571
:10013000E02D3097D1F708950895CF93DF93E091A4
:100140009001F0919101C081D181209741F0888583
:10015000998591838083CE01DF91CF91089520917D
:10016000AB013091AC014BE150E061E070E086E121
:1001700091E00E949B20EFCFCF93DF93E09190011D
:10018000F0919101C081D181209749F088859985AE
:1001900091838083CE01DF91CF910C947F1F2091BA
:1001A000AB013091AC014BE150E061E070E086E1E1
:1001B00091E00E949B20EECF0F931F93CF93DF938C
:1001C000CDB7DEB760970FB6F894DEBF0FBECDBFD8
:1001D00029873A874B875C876D877E878F87988BC7
:1001E00088E0FE013996DE01119601900D928A9504
:1001F000E1F78AE090E00E94E91E8C0188E0FE01B0
:100200003196D80101900D928A95E1F7F801118697
:100210001086E0919001F0919101309769F0808112
:100220009181892BB1F0A281B38119961C930E9311
:1002300018971383028314C084E090E00E94E91EA3
:10024000FC0190939101809390011182108213829E
:1002500012821183008313830283F80111861086B2
:1002600060960FB6F894DEBF0FBECDBFDF91CF9181
:100270001F910F910895EF92FF920F931F93CF93C9
:10028000DF9300D000D0CDB7DEB769837A838B834C
:100290009C8369817A818B819C810E947C1E2AE9E2
:1002A00039E949E95EE369837A838B839C836981B9
:1002B0007A818B819C810E947C1E9B01AC01E9822A
:1002C000FA820B831C8369817A818B819C810E94D5
:1002D000AA1B69837A838B839C8369817A818B8152
:1002E0009C810F900F900F900F90DF91CF911F91F5
:1002F0000F91FF90EF9008954F925F926F927F92CF
:100300008F929F92AF92BF92CF92DF92EF92FF9225
:100310000F931F93CF93DF9300D000D00F92CDB7F0
:10032000DEB72B013C0149014D83598360E070E049
:1003300080E89FE30E94AA1B94014D815981698343
:100340007A838B839C8369817A818B819C810E94D3
:100350007C1E9201A30169837A838B839C836981CC
:100360007A818B819C810E947C1E9701A801698300
:100370007A838B839C8369817A818B819C810E94A3
:100380007C1E2AE939E949E95EE369837A838B8334
:100390009C8369817A818B819C810E947C1E9B0158
:1003A000AC01A982BA82CB82DC8269817A818B819D
:1003B0009C810E94AA1B69837A838B839C836981B9
:1003C0007A818B819C810F900F900F900F900F90EE
:1003D000DF91CF911F910F91FF90EF90DF90CF9021
:1003E000BF90AF909F908F907F906F905F904F9055
:1003F00008952F923F924F925F926F927F928F92C9
:100400009F92AF92BF92CF92DF92EF92FF920F93A3
:100410001F93CF93DF93CDB7DEB7A6970FB6F894AF
:10042000DEBF0FBECDBF298B3A8B4B8B5C8B6D8BA8
:100430007E8B8F8B988F89899A89AB89BC898F8FA6
:1004400098A3A9A3BAA38D899E89AF89B88D8BA3E0
:100450009CA3ADA3BEA36801580196E0A90EB11CF0
:1004600008E711E0D6018D909D906D01F401208187
:100470003181428153816F8D78A189A19AA10E9417
:100480007C1E2B013C01D40114962D913D914D9180
:100490005C9117976BA17CA18DA19EA10E947C1EEF
:1004A0009B01AC014B8E5C8E6D8E7E8E6B8D7C8D38
:1004B0008D8D9E8D0E94AB1BF40120853185428578
:1004C00053856B8F7C8F8D8F9E8F6B8D7C8D8D8DEB
:1004D0009E8D0E94AA1BDC01CB01B0588B8F9C8F94
:1004E000AD8FBE8FBC01CD010E94911C20E030E099
:1004F00040E85FE36B8F7C8F8D8F9E8F6B8D7C8D43
:100500008D8D9E8D0E94AB1B9B01AC0160E070E065
:1005100080E89FE30E94171C6B8F7C8F8D8F9E8FCE
:10052000D8016D937D938D939D938D01AC14BD0483
:1005300009F098CFFE01399688E0DF011D928A9577
:10054000E9F737016F013896FA8FE98FD3018D9063
:100550009D903D0184015401BCE0AB0EB11C88E7C5
:10056000E82E81E0F82E212C312C412C512CF70162
:1005700081919191A191B1917F018B8F9C8FAD8FD2
:10058000BE8FD8012D913D914D915D918D016B8D67
:100590007C8D8D8D9E8D0E947C1E9B01AC012B8ECF
:1005A0003C8E4D8E5E8E6B8D7C8D8D8D9E8D0E94D2
:1005B000AB1B1B012C01A016B106C9F6F401248562
:1005C0003585468557856B8F3C8E4D8E5E8E6B8D47
:1005D0007C8D8D8D9E8D0E94AA1BDC01CB01B058B5
:1005E0008B8F9C8FAD8FBE8FBC01CD010E94911C63
:1005F00020E030E040E85FE36B8F7C8F8D8F9E8F33
:100600006B8D7C8D8D8D9E8D0E94AB1B9B01AC01F3
:1006100060E070E080E89FE30E94171C6B8F7C8F86
:100620008D8F9E8FD6016D937D938D939D936D01DC
:10063000E98DFA8DEA17FB0709F088CF3D85EE8535
:100640007F85588949851A85FB856C85242F842FE1
:10065000912FAF2FB62F89839A83AB83BC83632FEF
:10066000832F9E2FA72FB52F8D839E83AF83B887AF
:100670003A814B815C817E818F819885A6960FB6E9
:10068000F894DEBF0FBECDBFDF91CF911F910F91C8
:10069000FF90EF90DF90CF90BF90AF909F908F90A2
:1006A0007F906F905F904F903F902F900895EF92C2
:1006B000FF920F931F93CF93DF937B018901DC019E
:1006C000FA010696CD91DD9140815181628173815D
:1006D000488359836A837B8344815581668177810E
:1006E0004C835D836E837F834085518562857385EE
:1006F000488759876A877B873C968A179B0711F73B
:10070000F701C081D1814CE050E0B801CE010E94D8
:100710008920F80184859585A685B7858C879D8776
:10072000AE87BF87F701C281D381B801605F7F4F79
:100730004CE050E0CE010E948920F801848D958D17
:10074000A68DB78D8C879D87AE87BF87DF91CF91B0
:100750001F910F91FF90EF900895CF93DF9300D0FA
:1007600000D0CDB7DEB7DC01CB01B05889839A83C6
:10077000AB83BC83BC01CD010E94911C20E030E022
:1007800040E85FE369837A838B839C8369817A8104
:100790008B819C810E94AB1B9B01AC0160E070E0EF
:1007A00080E89FE30E94171C69837A838B839C8374
:1007B00069817A818B819C810F900F900F900F90AF
:1007C000DF91CF9108956F927F928F929F92AF9217
:1007D000BF92CF92DF92EF92FF920F931F93CF932E
:1007E000DF93CDB7DEB72C970FB6F894DEBF0FBE00
:1007F000CDBFB22FA32FF42FE52F9B01AC01B987FA
:10080000AA87FB87EC8769857A858B859C850E9402
:10081000AA1B9B01AC0160E070E0CB010E94AA1B07
:100820007B018C01209188013091890140918A01DE
:1008300050918B016987FA868B871C8769857A8539
:100840008B859C850E94AB1B3B014C01CB01D401E5
:100850008093880190938901A0938A01B0938B01C2
:10086000209184013091850140918601509187014A
:1008700069857A858B859C850E94AA1B5B016C012A
:10088000A701B801409384015093850160938601CC
:10089000709387012AE939E949E15EE369857A8540
:1008A0008B859C850E947C1E7B018C0120E030E0C2
:1008B000A90169867A868B869C8669857A858B856F
:1008C0009C850E947C1E9B01AC01E986FA860B8701
:1008D0001C8769857A858B859C850E94AB1B7B0173
:1008E0008C0120E030E0A901A986BA86CB86DC869F
:1008F00069857A858B859C850E947C1E9B01AC0155
:10090000E986FA860B871C8769857A858B859C85A5
:100910000E94AB1B7B018C019B01AC0160E070E08D
:1009200080EA91E40E94AA1B69877A878B879C875B
:1009300069857A858B859C850E94C31C9B016536E1
:10094000710514F024E630E037FF02C030E020E00B
:10095000C901330FAA0BBB0B89879A87AB87BC876A
:10096000BC01CD010E94FB1C69837A838B839C832D
:100970009701A80160E070E080EA91EC0E94AA1B58
:1009800069877A878B879C8769857A858B859C8523
:100990000E94C31CCB011816190614F490E080E0E5
:1009A0008C39AFEF9A0714F48CE99FEF9C01990FF3
:1009B000440B550B29873A874B875C87CA01B901DD
:1009C0000E94FB1CE62FAB01BC014D835E836F834D
:1009D000788729813A814B815C817E816E2F8F815E
:1009E00098852C960FB6F894DEBF0FBECDBFDF9171
:1009F000CF911F910F91FF90EF90DF90CF90BF901C
:100A0000AF909F908F907F906F9008952F923F921C
:100A10004F925F926F927F928F929F92AF92BF920E
:100A2000CF92DF92EF92FF920F931F93CF93DF93BA
:100A3000CDB7DEB7C45ED1090FB6F894DEBF0FBEE6
:100A4000CDBFCF54DF4F2883C15BD040CE54DF4FA2
:100A50003883C25BD040CD54DF4F4883C35BD04066
:100A6000CC54DF4F5883C45BD040CB54DF4F6883F6
:100A7000C55BD040CA54DF4F7883C65BD040C954B1
:100A8000DF4F8883C75BD040C854DF4F9883C85B73
:100A9000D040CD51DF4F0883C35ED040CC51DF4FF3
:100AA0001883C45ED040CF52DF4FE882C15DD04092
:100AB000CE52DF4FF882C25DD040CF54DF4F288145
:100AC00039814A815B81C15BD040C554DF4F2883A7
:100AD00039834A835B83CB5BD040CB54DF4F888123
:100AE0009981AA81BB81C55BD040C154DF4F888307
:100AF0009983AA83BB83CF5BD04080E1FE01EB5A90
:100B0000FF4FDE01959601900D928A95E1F780E105
:100B1000FE01EB5BFF4FDE01D59601900D928A95A9
:100B2000E1F78CE0FE01E358FF4FDE0111960190E2
:100B30000D928A95E1F78CE0FE01EF58FF4FDE0140
:100B40001D9601900D928A95E1F78CE0FE01EB591C
:100B5000FF4FDE01599601900D928A95E1F7DE0173
:100B6000A755BF4FC754DF4FB983A883C95BD04097
:100B700088E01D928A95E9F7C154DF4F28813981B9
:100B80004A815B81CF5BD040C554DF4F688179815A
:100B90008A819B81CB5BD0400E94E303CF55DF4F1E
:100BA0002883C15AD040CE55DF4F3883C25AD04037
:100BB000CD55DF4F4883C35AD040CC55DF4F5883C3
:100BC000C45AD040CB55DF4F6883C55AD040CA5570
:100BD000DF4F7883C65AD040C955DF4F8883C75A44
:100BE000D040C855DF4F9883C85AD04020E030E04D
:100BF00048EC52E4CF55DF4F688179818A819B812F
:100C0000C15AD0400E94171C4B015C0120E030E02B
:100C10004FE753E4C554DF4F688179818A819B8116
:100C2000CB5BD0400E94171C262ECD52DF4F78831D
:100C3000C35DD040CC52DF4F8883C45DD040CB52DF
:100C4000DF4F9883C55DD04020E030E04FE753E4AC
:100C5000C154DF4F688179818A819B81CF5BD0400D
:100C60000E94171C362ECA52DF4F7883C65DD040D3
:100C7000C952DF4F8883C75DD040C852DF4F988389
:100C8000C85DD040CB55DF4F88819981AA81BB8157
:100C9000C55AD0409C01AD015058C554DF4F288340
:100CA00039834A835B83CB5BD04020E030E048EC63
:100CB00052E4C554DF4F688179818A819B81CB5B87
:100CC000D0400E94171CC356DF4F688379838A8304
:100CD0009B83CD59D040222D822DCD52DF4F98815C
:100CE000C35DD040CC52DF4FA881C45DD040CB5211
:100CF000DF4FB881C55DD040CF54DF4F88839983E3
:100D0000AA83BB83C15BD040632D832DCA52DF4FC2
:100D10009881C65DD040C952DF4FA881C75DD040E1
:100D2000C852DF4FB881C85DD040CB54DF4F8883B5
:100D30009983AA83BB83C55BD040CF52DF4FE88045
:100D4000F980C15DD040CD51DF4F0881C35ED040F6
:100D5000CC51DF4F1881C45ED040CE54DF4F388174
:100D6000C25BD040CD54DF4F4881C35BD040CC54F0
:100D7000DF4F5881C45BD040CA54DF4F7881C65BD7
:100D8000D040C954DF4F8881C75BD040C854DF4F83
:100D90009881C85BD0400E94F901CF56DF4F28836D
:100DA000C159D040CE56DF4F3883C259D040CD56BE
:100DB000DF4F4883C359D040CC56DF4F5883C459C6
:100DC000D040CB56DF4F6883C559D040CA56DF4F5D
:100DD0007883C659D040C956DF4F8883C759D04061
:100DE000C856DF4F9883C859D040CF56DF4F88810F
:100DF0009981AA81BB81C159D040C154DF4F8883FA
:100E00009983AA83BB83CF5BD040CB56DF4F8881C9
:100E10009981AA81BB81C559D040C357DF4F8883D0
:100E20009983AA83BB83CD58D040CF52DF4FA8818E
:100E3000B981C15DD040C953DF4FB983A883C75C76
:100E4000D04099E8492E512C4C0E5D1EB4E04B0E5B
:100E5000511CE9E9F0E0EC0FFD1F3496C553DF4F5C
:100E6000F983E883CB5CD0409E0127553F4FC753A1
:100E7000DF4F39832883C95CD040AE014B5D5F4FA3
:100E80003A0189E890E08C0F9D1F0896C353DF4F0D
:100E900099838883CD5CD040C154DF4F288139814C
:100EA0004A815B81CF5BD04060E070E080E89FE3E7
:100EB0000E94AA1BC154DF4F288139814A815B817E
:100EC000CF5BD040C554DF4F6883CB5BD040C45468
:100ED000DF4F7883CC5BD040C354DF4F8883CD5B3A
:100EE000D040C254DF4F9883CE5BD040C554DF4F13
:100EF000688179818A819B81CB5BD0400E947C1E76
:100F00007B018C01A5019401C154DF4F6881798177
:100F10008A819B81CF5BD0400E94AA1B9B01AC01C0
:100F2000C554DF4FE882CB5BD040C454DF4FF8821A
:100F3000CC5BD040C354DF4F0883CD5BD040C2545C
:100F4000DF4F1883CE5BD040C554DF4F6881798175
:100F50008A819B81CB5BD0400E947C1E462F572FFD
:100F6000BC01C154DF4F488359836A837B83CF5BC5
:100F7000D040C953DF4FA881B981C75CD040AD9044
:100F8000BD90C953DF4FB983A883C75CD040E8E761
:100F9000F1E0C153DF4FF983E883CF5CD040850196
:100FA0006501FCE0CF0ED11C730188E7882E81E03B
:100FB000982ED4012D913D914D915D914D01F801F7
:100FC00081919191A191B1918F01CD53DF4F888390
:100FD0009983AA83BB83C35CD040C154DF4F68812F
:100FE00079818A819B81CF5BD0400E947C1E2AE957
:100FF00039E949E15EE3C554DF4F6883CB5BD040FC
:10100000C454DF4F7883CC5BD040C354DF4F888318
:10101000CD5BD040C254DF4F9883CE5BD040C554E7
:10102000DF4F688179818A819B81CB5BD0400E94B0
:101030007C1E9B01AC01CD53DF4F688179818A8191
:101040009B81C35CD0400E94AA1BC554DF4F6883BC
:1010500079838A839B83CB5BD040D7016D937D934B
:101060008D939D937D01C016D10609F0A2CFC75381
:10107000DF4FA881B981C95CD040C154DF4F2881BE
:1010800039814A815B81CF5BD0402D933D934D9355
:101090005D93C753DF4FB983A883C95CD0405058D4
:1010A000C154DF4F288339834A835B83CF5BD040B1
:1010B0002AE939E949E95EE3C154DF4F6881798162
:1010C0008A819B81CF5BD0400E947C1E9B01AC013A
:1010D000F50164857585868597850E94AA1BD301D5
:1010E0001C966D937D938D939C931F97B0E16B0E2F
:1010F000711CC353DF4FE881F981CD5CD0404E169F
:101100005F06F9F0D2012D913D914D915D912D0138
:10111000C154DF4F288339834A835B83CF5BD04040
:10112000C553DF4FE881F981CB5CD040819091902D
:10113000A190B190C553DF4FF983E883CB5CD040D9
:10114000ABCEC755DF4F288139814A815B81C95AAF
:10115000D040C752DF4F288339834A835B83C95D00
:10116000D040C355DF4F88819981AA81BB81CD5A78
:10117000D040C352DF4F88839983AA83BB83CD5D60
:10118000D040CF52DF4FA881B981C15DD0408D9052
:101190009C9011971296ED91FC91CD53DF4FF983FE
:1011A000E883C35CD040CD51DF4FF881C35ED040AF
:1011B000C154DF4FF883CF5BD040CC51DF4F288143
:1011C000C45ED040C054DF4F2883C05CD0408E0145
:1011D0000F5F1F4FA401445F5F4FCF51DF4F598313
:1011E0004883C15ED040D4012D913D914D915D91D8
:1011F0004D01CD53DF4FE881F981C35CD040C190F0
:10120000D190E190F190CD53DF4FF983E883C35C37
:10121000D040C153DF4FA881B981CF5CD0404D9001
:101220005D906D907D90C153DF4FB983A883CF5CF3
:10123000D040C154DF4FE881F981CF5BD040A1900D
:10124000B190C154DF4FF983E883CF5BD040C752E0
:10125000DF4F688179818A819B81C95DD0400E947E
:101260007C1EC953DF4F6883C75CD040C753DF4F34
:101270007883C95CD040C553DF4F8883CB5CD040B6
:10128000C353DF4F9883CD5CD040A7019601C35272
:10129000DF4F688179818A819B81CD5DD0400E943A
:1012A0007C1E9B01AC01C953DF4FF881C75CD04065
:1012B000C554DF4FF883CB5BD040C753DF4F8881E5
:1012C000C95CD040C454DF4F8883CC5BD040C55349
:1012D000DF4F9881CB5CD040C354DF4F9883CD5B08
:1012E000D040C353DF4FA881CD5CD040C254DF4F04
:1012F000A883CE5BD040C554DF4F688179818A8155
:101300009B81CB5BD0400E94AB1B6B017C01A30196
:10131000920160E070E080E89FE30E94AA1BA301B5
:101320009201C554DF4F6883CB5BD040C454DF4F7C
:101330007883CC5BD040C354DF4F8883CD5BD040F3
:10134000C254DF4F9883CE5BD040C554DF4F6881D5
:1013500079818A819B81CB5BD0400E947C1E9B015E
:10136000AC01C554DF4FC882CB5BD040C454DF4FC3
:10137000D882CC5BD040C354DF4FE882CD5BD040F5
:10138000C254DF4FF882CE5BD040C554DF4F688136
:1013900079818A819B81CB5BD0400E947C1E6B014E
:1013A0007C01AC019B01C554DF4F2882CB5BD04050
:1013B000CD52DF4FB881C35DD040C454DF4FB883F6
:1013C000CC5BD040CC52DF4FE881C45DD040C354E9
:1013D000DF4FE883CD5BD040CB52DF4FF881C55D56
:1013E000D040C254DF4FF883CE5BD040C554DF4FAE
:1013F000688179818A819B81CB5BD0400E947C1E71
:101400002AE939E949E95EE3C554DF4F6883CB5BDC
:10141000D040C454DF4F7883CC5BD040C354DF4FFF
:101420008883CD5BD040C254DF4F9883CE5BD040E1
:10143000C554DF4F688179818A819B81CB5BD04025
:101440000E947C1E9B01AC01D5016D917D918D9117
:101450009C910E94AA1BF80160837183828393830D
:10146000A7019601C554DF4F3882CB5BD040CA52EA
:10147000DF4FF881C65DD040C454DF4FF883CC5BAA
:10148000D040C952DF4F8881C75DD040C354DF4F81
:101490008883CD5BD040C852DF4F9881C85DD04073
:1014A000C254DF4F9883CE5BD040C554DF4F688174
:1014B00079818A819B81CB5BD0400E947C1E2AE986
:1014C00039E949E95EE3C554DF4F6883CB5BD0401F
:1014D000C454DF4F7883CC5BD040C354DF4F888344
:1014E000CD5BD040C254DF4F9883CE5BD040C55413
:1014F000DF4F688179818A819B81CB5BD0400E94DC
:101500007C1E9B01AC01D50114966D917D918D914E
:101510009C9117970E94AA1BF801648375838683A8
:101520009783A70196015058C554DF4F288339830C
:101530004A835B83CB5BD0402AE939E949E95EE322
:10154000C554DF4F688179818A819B81CB5BD04014
:101550000E947C1E9B01AC01D50118966D917D9176
:101560008D919C911B970E94AA1BF801608771873F
:1015700082879387045F1F4FCF51DF4F28813981C6
:10158000C15ED0402815390509F02DCE9E012B5D96
:101590003F4FAE014F5F5F4FCF52DF4F6881798180
:1015A000C15DD040CD51DF4F8881C35ED040CC516A
:1015B000DF4F9881C45ED0400E945703CC51DF4F6B
:1015C0000FB6F894DEBF0FBECDBFDF91CF911F9154
:1015D0000F91FF90EF90DF90CF90BF90AF909F90D2
:1015E0008F907F906F905F904F903F902F900895D5
:1015F000CF93DF93CDB7DEB762970FB6F894DEBF17
:101600000FBECDBF8D839E830E9479209C01990FD0
:10161000440B550B29833A834B835C83CA01B90180
:101620000E94FB1C20E03EEF4FEF56E469837A8373
:101630008B839C8369817A818B819C810E94171C9A
:101640006F83788789879A87AD81BE816D937D93FB
:101650008D939C9313970E9479209C01990F440BC2
:10166000550B29833A834B835C83CA01B9010E94DD
:10167000FB1C20E03EEF4FEF56E469837A838B83B7
:101680009C8369817A818B819C810E94171C6B8766
:101690007C878D879E87AD81BE8114966D937D93E7
:1016A0008D939C9317970E9479209C01990F440B6E
:1016B000550B29833A834B835C83CA01B9010E948D
:1016C000FB1C20E03EEF4FEF56E469837A838B8367
:1016D0009C8369817A818B819C810E94171CAD81DA
:1016E000BE8118966D937D938D939C931B97629604
:1016F0000FB6F894DEBF0FBECDBFDF91CF91089536
:10170000EF92FF920F931F93CF93DF93CDB7DEB786
:101710002A970FB6F894DEBF0FBECDBF8D839E8390
:10172000ED80FE808701045F1F4F0E9479209C019D
:10173000990F440B550B29833A834B835C83CA0171
:10174000B9010E94FB1C20E03EEF4FEF56E4698395
:101750007A838B839C8369817A818B819C810E94AF
:10176000171CD7016D937D938D939D937D01A017D9
:10177000B107D9F60E9479209C01990F440B550BB3
:1017800029833A834B835C83CA01B9010E94FB1C05
:1017900020E03EEF4FEF56E469837A838B839C838E
:1017A00069817A818B819C810E94171CAD81BE81E9
:1017B0001C966D937D938D939C931F972A960FB6DD
:1017C000F894DEBF0FBECDBFDF91CF911F910F9177
:1017D000FF90EF9008959C01CB012817390724F062
:1017E000C901421753070CF00895CA010895FF92EA
:1017F0000F931F93CF93DF93CDB7DEB72C970FB620
:10180000F894DEBF0FBECDBF8B019C01990F440B36
:10181000550B29873A874B875C87CA01B9010E941B
:10182000FB1CF62EAB01BC0149835A836B837C837E
:10183000C801110FAA0BBB0B89879A87AB87BC879E
:10184000BC01CD010E94FB1CA62FAB01BC014D8346
:101850005E836F837887E0910001F0910101019030
:10186000F081E02D2F2D3A814B815C816A2F7E81A2
:101870008F8198852C960FB6F894DEBF0FBECDBF32
:10188000DF91CF911F910F91FF9009940F931F93B8
:10189000CF93DF93CDB7DEB728970FB6F894DEBFAE
:1018A0000FBECDBF29833A834B835C836D837E83D8
:1018B0008F8398878AE090E00E94E91E8C0188E07F
:1018C000FE013196D80101900D928A95E1F7F80159
:1018D00011861086E0919001F0919101309769F0A6
:1018E00080819181892BB1F0A281B38119961C93DB
:1018F0000E9318971383028314C084E090E00E9433
:10190000E91EFC0190939101809390011182108255
:10191000138212821183008313830283F8011186DC
:10192000108628960FB6F894DEBF0FBECDBFDF91AC
:10193000CF911F910F910895CF93DF9300D000D0E6
:101940000F92CDB7DEB78D83862F660F990BAA0B4A
:10195000BB0B89839A83AB83BC83BC01CD010E94FE
:10196000FB1C2AE939E949E95EE369837A838B83C1
:101970009C8369817A818B819C810E947C1E20E0FE
:1019800030E04EEF52E469837A838B839C836981D4
:101990007A818B819C810E94AB1B69837A838B83C4
:1019A0009C8369817A818B819C810E94361D698329
:1019B0007A838B839C8369817A818B819C810E944D
:1019C000C31C8D810F900F900F900F900F90DF919F
:1019D000CF910C94C211EAE7F0E0808187688083A0
:1019E000ECE7F0E0808180668083089520917C00A0
:1019F000287F20937C0090917C00982B90937C0012
:101A000080917A00806480937A0080917A0086FDCC
:101A1000FCCF8091790008958DB18F7C8DB985E0E0
:101A20008A95F1F700006D9A759885E08A95F1F72F
:101A300000006C9A749885E08A95F1F7000008958B
:101A40006C9885E08A95F1F700006D9885E08A959D
:101A5000F1F7000008956D9885E08A95F1F7000090
:101A600065990DC06C9885E08A95F1F700006C9A35
:101A7000749885E08A95F1F70000659BF3CF6C9828
:101A800008956C9885E08A95F1F700006C9A749837
:101A900085E08A95F1F7000008951F93CF93DF93B7
:101AA000C82FD62F142F0E942B0D0E940C0D87E0FB
:101AB00013C06D9895E09A95F1F700006C9895E049
:101AC0009A95F1F700006C9A749895E09A95F1F761
:101AD0000000CC0F815029F0C6FDEBCF6D9A7598B0
:101AE000E9CF6D9A759885E08A95F1F700006C98BA
:101AF00095E09A95F1F700006C9A749885E08A95C4
:101B0000F1F700006D9895E09A95F1F700006C9858
:101B1000659941C085E08A95F1F700006C9A749848
:101B200095E09A95F1F7000088E014C06D9A7598D9
:101B300095E09A95F1F700006C9895E09A95F1F789
:101B400000006C9A749895E09A95F1F70000DD0F0B
:101B5000815021F0D7FFEACF6D98EACF6D9885E0EC
:101B60008A95F1F700006C98659910C095E09A95F8
:101B7000F1F700006C9A749885E08A95F1F70000FF
:101B800011110EC0DF91CF911F9108958AE691E067
:101B90000E946210FFCF8EE591E00E946210FFCF9D
:101BA0006C9895E09A95F1F700006D9885E08A951C
:101BB000F1F70000DF91CF911F9108956623C1F1E5
:101BC000DC019C01260F311D8D9198E0FD013197BC
:101BD00016C06D9A759885E08A95F1F700006C98AB
:101BE00085E08A95F1F700006C9A749885E08A95F3
:101BF000F1F700008081880F8083915021F087FFEA
:101C0000E8CF6D98E8CF6D9885E08A95F1F70000F0
:101C10006C98659918C085E08A95F1F700006C9A78
:101C2000749885E08A95F1F70000A217B30761F672
:101C30006C9885E08A95F1F700006D9885E08A95AB
:101C4000F1F70000089587E691E00E946210FFCF4F
:101C50000F931F93CF93DF93182FEB01042F0E9454
:101C60000C0D87E013C06D9895E09A95F1F7000090
:101C70006C9895E09A95F1F700006C9A749895E04D
:101C80009A95F1F70000110F815029F016FDEBCF66
:101C90006D9A7598E9CF6D9885E08A95F1F7000007
:101CA0006C9895E09A95F1F700006C9A749885E02D
:101CB0008A95F1F700006D9895E09A95F1F700008C
:101CC0006C98659956C085E08A95F1F700006C9A8A
:101CD000749895E09A95F1F700006D9885E08A95E3
:101CE000F1F70000002391F19E01200F311D98E0D3
:101CF0008881880F88836C9885E08A95F1F70000C9
:101D0000659B03C088818160888385E08A95F1F7AF
:101D100000006C9A749885E08A95F1F70000915064
:101D200039F76D9A759895E09A95F1F700006C98DF
:101D300085E08A95F1F700006C9A749895E09A9581
:101D4000F1F700002196C217D30789F685E08A953E
:101D5000F1F700006C9895E09A95F1F700006D9806
:101D600085E08A95F1F70000DF91CF911F910F91E7
:101D700008958FE691E00E946210FFCFCF93DF932A
:101D80000F92CDB7DEB7498340E00E944D0D61E070
:101D9000CE0101960E94DE0D0F90DF91CF91089544
:101DA0001F93CF93DF930F92CDB7DEB7182F41E08B
:101DB0000E944D0D41E0BE016F5F7F4F812F0E9459
:101DC000280E89810F90DF91CF911F910895CF93B5
:101DD000DF930F92CDB7DEB741E061E08CE10E9466
:101DE0004D0D41E0BE016F5F7F4F8CE10E94280ED8
:101DF00089810F90DF91CF910895CF93DF930F9258
:101E0000CDB7DEB741E063E08CE10E944D0D41E0CB
:101E1000BE016F5F7F4F8CE10E94280E89810F9079
:101E2000DF91CF910895CF93DF930F92CDB7DEB7B7
:101E300041E065E08CE10E944D0D41E0BE016F5F25
:101E40007F4F8CE10E94280E89810F90DF91CF9106
:101E500008958AE08A95F1F700C0449A8AE08A954D
:101E6000F1F700C044988AE08A95F1F700C0089520
:101E7000F89482B98AE08A95F1F700C0449A8AE022
:101E80008A95F1F700C044988AE08A95F1F700C07E
:101E9000789408958F98F89482B98AE08A95F1F73A
:101EA00000C0449A8AE08A95F1F700C044988AE01D
:101EB0008A95F1F700C0789408958F9AF89482B9C2
:101EC0008AE08A95F1F700C0449A8AE08A95F1F792
:101ED00000C044988AE08A95F1F700C0789408958C
:101EE000803110F4623008F008956E5F6295660FDD
:101EF000660F607C680F8F98F89462B98AE08A95C3
:101F0000F1F700C0449A8AE08A95F1F700C044983E
:101F10008AE08A95F1F700C0789485EC8A95F1F70C
:101F2000000008953C9A879A8FEF81B98FE19EE473
:101F30000197F1F700C000008F98F89488E382B908
:101F40009AE09A95F1F700C0449AEAE0EA95F1F731
:101F500000C04498FAE0FA95F1F700C07894EFE7F2
:101F6000F2E03197F1F700C000008F98F89482B941
:101F7000FAE0FA95F1F700C0449A9AE09A95F1F7E1
:101F800000C04498EAE0EA95F1F700C07894EFE7E2
:101F9000F2E03197F1F700C000008F98F89482B911
:101FA000FAE0FA95F1F700C0449A9AE09A95F1F7B1
:101FB00000C04498EAE0EA95F1F700C07894EFE7B2
:101FC000F2E03197F1F700C000008F98F89498E0A4
:101FD00092B9FAE0FA95F1F700C0449A9AE09A951E
:101FE000F1F700C04498EAE0EA95F1F700C0789470
:101FF000EFE7F2E03197F1F700C000008F98F89416
:1020000091E092B9FAE0FA95F1F700C0449A9AE0AB
:102010009A95F1F700C04498EAE0EA95F1F700C01C
:102020007894EFE7FEE33197F1F700C000008F9856
:10203000F89496E092B9FAE0FA95F1F700C0449A64
:102040009AE09A95F1F700C04498EAE0EA95F1F732
:1020500000C07894EFE7F2E03197F1F700C000009C
:102060008F98F89482B9FAE0FA95F1F700C0449A93
:102070008AE08A95F1F700C044989AE09A95F1F7C2
:1020800000C07894EFE8F1E03197F1F700C000006C
:102090008F98F8948CE082B9FAE0FA95F1F700C0D5
:1020A000449A8AE08A95F1F700C044989AE09A959C
:1020B000F1F700C07894EFE8F1E03197F1F700C054
:1020C00000000895DC018C91882301F190E08F9A43
:1020D000F89482B98AE08A95F1F700C0449AEAE060
:1020E000EA95F1F700C04498FAE0FA95F1F700C0DC
:1020F0007894EFE7F2E03197F1F700C000009F5FBE
:10210000FD01E90FF11D80818111E1CF08951F9339
:10211000CF93DF939C01892B09F45AC045E011E06D
:10212000EFE0F7E2CAE0D0E0C901BF016F5F7F4F87
:102130000E947C1B662349F1E217F30770F5605D8E
:102140008F9AF89462B9BAE0BA95F1F700C0449A50
:102150002AE02A95F1F700C04498AAE0AA95F1F781
:1021600000C07894AFE7B2E01197F1F700C000002B
:1021700010E09C01CF01BE010E94901BFB01415069
:1021800099F6DF91CF911F910895E217F30718F4A4
:102190001111EFCFD4CF1111EDCF605D8F9AF8946C
:1021A00062B9BAE0BA95F1F700C0449A8AE08A951C
:1021B000F1F700C044989AE09A95F1F700C078943E
:1021C000AFE7B2E01197F1F700C0000010E0D2CF06
:1021D0008F9AF89480E382B92AE02A95F1F700C03B
:1021E000449A8AE08A95F1F700C044989AE09A955B
:1021F000F1F700C07894AFE7B2E01197F1F700C0B3
:102200000000DF91CF911F9108958F98F89481E09D
:1022100082B98AE08A95F1F700C0449A9AE09A95CB
:10222000F1F700C044988AE08A95F1F700C07894ED
:102230008FE79EE30197F1F700C000000895382F63
:10224000262F4FEF6403C001112464E670E00E9462
:10225000901B311107C06093B30012164CF45C9AC6
:102260005D98089567BD121634F45E9A5F980895DC
:102270005D9A5C9808955F9A5E980895A3EBB0E02C
:102280001C925D9A5C9817BC5F9A5E9884B18069D5
:1022900084B98AB1806F8AB9E0EBF0E0808188660A
:1022A000808380818260808384B5886684BD84B5A4
:1022B000826084BD8AE087BD8C9308955C9A5D98A6
:1022C0002C9A5F9A5E982F9A08950F920FB60F92EC
:1022D0002F933F938F939F93EF93FF932091A201AE
:1022E000822F869590E020FF2FC0209188003091AA
:1022F0008900880F991FFC01EE56FE4F8081918165
:10230000820F931F909389008093880038B12091A9
:10231000A201269581E090E0022E01C0880F0A9468
:10232000EAF78095832388B98091A2018F5F877037
:102330008093A201FF91EF919F918F913F912F91F7
:102340000F900FBE0F901895209188003091890052
:10235000880F991FFC01E656FE4F80819181820F04
:10236000931F909389008093880088B19091A20177
:10237000969521E030E001C0220F9A95EAF7822B72
:1023800088B9D2CF90E02AE0629FB00111246C534B
:10239000764F880F991FFC01E656FE4F71836083CC
:1023A0008E569E4F24ED30E3261B370BFC01318304
:1023B00020830895AAE9B1E024EC39E011963C931A
:1023C0002E93E2E9F1E080E197E291838083139616
:1023D0003C932E9312979383828315963C932E936E
:1023E00014979583848317963C932E93169797831F
:1023F000868387B18F6087B9E1E8F0E01082808141
:1024000082608083EFE6F0E0808182608083789450
:1024100008958CB18095881F8827881F0895282FDC
:1024200030E08E3010F080E00895F901E259FE4D61
:102430000C94A41B86B190E02250310902C09595FE
:1024400087952A95E2F78170089583B190E029502D
:10245000310902C0959587952A95E2F78170089514
:102460009CB1292F30E0A90102C0559547958A9566
:10247000E2F7CA018170089582B390E02F5F3F4F69
:1024800002C0959587952A95E2F78170089523B14A
:10249000E9CF83B18695817008958CB186FB88273A
:1024A00080F9089583B181700895282F30E08E302F
:1024B00030F4F901E458FE4D0C94A41B21980895C2
:1024C0002250310981E090E001C0880F2A95EAF797
:1024D00097B1662309F44DC0892B87B90895295017
:1024E000310981E090E001C0880F2A95EAF794B1A4
:1024F000662309F446C0892B84B908952F5F3F4FA6
:1025000081E090E001C0880F2A95EAF793B3662333
:10251000A1F1892B83BB089521E030E001C0220F97
:102520008A95EAF78DB1662381F1282B2DB908959C
:1025300021E030E001C0220F8A95EAF784B16623DA
:1025400081F0282B24B90895662309F4B7CF219A86
:102550000895662361F06E9A0895662331F0209AFB
:1025600008952095282324B90895209808956E98F9
:1025700008958095892387B908958095892383BB21
:1025800008958095892384B90895209528232DB92D
:102590000895282F30E08E3030F4F901E657FE4DD3
:1025A0000C94A41B299808952250310981E090E0F1
:1025B00001C0880F2A95EAF798B1662309F44DC047
:1025C000892B88B908952950310981E090E001C034
:1025D000880F2A95EAF795B1662309F446C0892B3E
:1025E00085B908952F5F3F4F81E090E001C0880FCB
:1025F0002A95EAF794B36623A1F1892B84BB089549
:1026000021E030E001C0220F8A95EAF78EB16623FF
:1026100081F1282B2EB9089521E030E001C0220F6E
:102620008A95EAF785B1662381F0282B25B90895AC
:10263000662309F4B7CF299A0895662361F0769A44
:102640000895662331F0289A08952095282325B906
:10265000089528980895769808958095892388B9D3
:1026600008958095892384BB08958095892385B931
:102670000895209528232EB90895811104C0613052
:1026800041F0A0980895613011F0A1980895A19AA1
:102690000895A09A0895811102C0A09A0895A19A60
:1026A0000895811102C0A0980895A1980895529AA2
:1026B00083B3836083BB779A0E94EB0C0E94920FD6
:1026C0000E94DA110E943E1141E06AE28CE10E9410
:1026D000BE0E2FEF81EE94E0215080409040E1F754
:1026E00000C000000C942B0DA4E0B0E0EAE7F3E199
:1026F0000C941421FC010FB6F8948091AD019091D7
:10270000AE01A091AF01B091B00189839A83AB83F0
:10271000BC830FBE309721F080839183A283B38363
:1027200069817A818B819C812496E2E00C9430212E
:10273000CDB7DEB7C057D1090FB6F894DEBF0FBED4
:10274000CDBF0E94571360E090E080E00E949C0C97
:1027500060E081E090E00E949C0CCE01C9966F96EB
:102760009FAF8EAF6F970C97A1969FAF8EAFA1973B
:102770000C97A3969FAF8EAFA39721E130E02C0F6B
:102780003D1FA5963FAF2EAFA59741E050E04C0FFF
:102790005D1FA7965FAF4EAFA79790E080E00E94C5
:1027A0007413272F862F922F0E947E20E1961FAE52
:1027B0001EAEE197512C412C312C212CCE014D968F
:1027C000AB969FAF8EAFAB97DE011D96A996BFAFBC
:1027D000AEAFA99780918E0190918F0182309105C3
:1027E00009F4E2C28330910508F0C3C0892B09F4D3
:1027F00000C60E94051182E00E94F60C082F83E0BB
:102800000E94F60C182FA02EB12C202F30E050E0A3
:1028100040E0AF962CAF3DAF4EAF5FAFAF97CA0170
:10282000B9010E94FB1C062FAB01BC0129964CAFDD
:102830005DAF6EAF7FAF2997C12ED12C812F90E075
:10284000B0E0A0E0AF968CAF9DAFAEAFBFAFAF979B
:10285000BC01CD010E94FB1CA62FAB01BC012D9633
:102860004CAF5DAF6EAF7FAF2D97E0910001F0915F
:1028700001010190F081E02D202F27963FAD279791
:1028800028964FAD289729965FAD29976A2F2B96EA
:102890007FAD2B972C968FAD2C972D969FAD2D97B6
:1028A000099560E080E00E94700F8FE391E00E9444
:1028B000621060E086E00E94700FE1968EAD9FADE1
:1028C000E1970E94871061E080E00E94700FC501CF
:1028D0000E94871061E085E00E94700FC6010E948F
:1028E0008710E196AEADBFADE1971196E196BFAF0F
:1028F000AEAFE19704EF11E00DC044244394512C96
:102900008FE99FE00197F1F700C000000150110925
:1029100009F460CF0E940912882311F14114510477
:1029200061F30E9409128111EBCFE2E0F0E0F09335
:102930008F01E0938E010E94051160E080E00E940B
:10294000700F84E491E00E9462106FE780E00E94C3
:10295000C2116FE781E00E94C211412C512CD0CFEF
:102960000E9409128111CCCFB1E04B16510441F6FF
:10297000DCCF8330910509F460C2049709F052C29C
:1029800082E00E94F60C282F30E050E040E0AF9645
:102990002CAF3DAF4EAF5FAFAF97CA01B9010E94F8
:1029A000F91C4B01A82ED92E83E00E94F60C282F8B
:1029B00030E050E040E0AF962CAF3DAF4EAF5FAFA0
:1029C000AF97CA01B9010E94F91CB62EC72E8C011F
:1029D000262F372FAC01AC968FAEAC97AD969FAE3D
:1029E000AD97AE96AFAEAE97AF96DFAEAF97AF9660
:1029F0006CAD7DAD8EAD9FADAF970E94E3032E967B
:102A00002FAF2E972F963FAF2F9760964FAF6097BF
:102A100061965FAF619762966FAF629763967FAF83
:102A2000639764968FAF649765969FAF659720E034
:102A300030E04FE753E4AC968FAEAC97AD969FAEC7
:102A4000AD97AE96AFAEAE97AF96DFAEAF97AF96FF
:102A50006CAD7DAD8EAD9FADAF970E94171CD62E8D
:102A6000AB01BC0169964CAF5DAF6EAF7FAF6997AC
:102A700020E030E04FE753E4AC96BFAEAC97AD96A4
:102A8000CFAEAD97AE960FAFAE97AF961FAFAF97E5
:102A9000AF966CAD7DAD8EAD9FADAF970E94171C0C
:102AA000E62FAB01BC016D964CAF5DAF6EAF7FAF53
:102AB0006D97AE014D595F4F7A018E01035A1F4F3A
:102AC0002D2D67963FAD679768964FAD68976996CD
:102AD0005FAD69976E2F6B967FAD6B976C968FADE0
:102AE0006C976D969FAD6D970E94F90126962FAF5A
:102AF000269727963FAF279728964FAF2897299676
:102B00005FAF29972A966FAF2A972B967FAF2B97A7
:102B10002C968FAF2C972D969FAF2D9720E030E00D
:102B200048EC52EC2D966CAD7DAD8EAD9FAD2D97E2
:102B30000E947C1EAC966FAFAC97AD967FAFAD9701
:102B4000AE968FAFAE97AF969FAFAF97AF966CAD87
:102B50007DAD8EAD9FADAF970E94C31C162F20E0B8
:102B600030E048EC52E429966CAD7DAD8EAD9FAD62
:102B700029970E947C1EAC966FAFAC97AD967FAF45
:102B8000AD97AE968FAFAE97AF969FAFAF97AF961C
:102B90006CAD7DAD8EAD9FADAF970E94C31C862FEF
:102BA000660F990BAA0BBB0BAF968CAF9DAFAEAF68
:102BB000BFAFAF97BC01CD010E94FB1C2AE939E9E8
:102BC00049E95EE3AC966FAFAC97AD967FAFAD973A
:102BD000AE968FAFAE97AF969FAFAF97AF966CADF7
:102BE0007DAD8EAD9FADAF970E947C1E20E030E0A2
:102BF0004EEF52E4AC966FAFAC97AD967FAFAD970A
:102C0000AE968FAFAE97AF969FAFAF97AF966CADC6
:102C10007DAD8EAD9FADAF970E94AB1BAC966FAFF5
:102C2000AC97AD967FAFAD97AE968FAFAE97AF96A0
:102C30009FAFAF97AF966CAD7DAD8EAD9FADAF97AB
:102C40000E94361DAC966FAFAC97AD967FAFAD9737
:102C5000AE968FAFAE97AF969FAFAF97AF966CAD76
:102C60007DAD8EAD9FADAF970E94C31C80E00E94EA
:102C7000C211212F110F330B440B550BAF962CAF04
:102C80003DAF4EAF5FAFAF97CA01B9010E94FB1CC9
:102C90002AE939E949E95EE3AC966FAFAC97AD96A6
:102CA0007FAFAD97AE968FAFAE97AF969FAFAF9712
:102CB000AF966CAD7DAD8EAD9FADAF970E947C1E83
:102CC00020E030E04EEF52E4AC966FAFAC97AD969B
:102CD0007FAFAD97AE968FAFAE97AF969FAFAF97E2
:102CE000AF966CAD7DAD8EAD9FADAF970E94AB1B27
:102CF000AC966FAFAC97AD967FAFAD97AE968FAFFA
:102D0000AE97AF969FAFAF97AF966CAD7DAD8EADE2
:102D10009FADAF970E94361DAC966FAFAC97AD9646
:102D20007FAFAD97AE968FAFAE97AF969FAFAF9791
:102D3000AF966CAD7DAD8EAD9FADAF970E94C31CBD
:102D400081E00E94C2110E940912882309F4C0C4C4
:102D50004114510409F4AFC40E94091281113ACD03
:102D600042E050E050938F0140938E010E94051184
:102D700060E080E00E94700F84E491E00E946210A5
:102D800060E080E090E00E949C0C60E081E090E0D8
:102D90000E949C0C412C512C80918E0190918F01AE
:102DA0008230910509F01ECD0E94FD0E90E09C013D
:102DB000205131092C32310508F081C49CE02916DC
:102DC00031041CF0A2E32A1A310861E080E00E947D
:102DD000700FC1010E94871004EF11E00DC0442460
:102DE0004394512C8FE99FE00197F1F700C0000058
:102DF0000150110909F4EECC0E940912882309F44C
:102E000050C44114510459F30E9409128111EACFB0
:102E1000F3E0F0938E0110928F010E940511412C76
:102E2000512CE0CF0E94051160E080E00E94700FFD
:102E30008AE591E00E946210CDCC0E9479209C012D
:102E4000990F440B550BAF962CAF3DAF4EAF5FAF14
:102E5000AF97CA01B9010E94FB1C20E03EEF4FEF83
:102E600056E4AC966FAFAC97AD967FAFAD97AE968C
:102E70008FAFAE97AF969FAFAF97AF966CAD7DAD6E
:102E80008EAD9FADAF970E94171C69AF7AAF8BAF25
:102E90009CAF0E9479209C01990F440B550BAF9673
:102EA0002CAF3DAF4EAF5FAFAF97CA01B9010E94E3
:102EB000FB1C20E03EEF4FEF56E4AC966FAFAC97B3
:102EC000AD967FAFAD97AE968FAFAE97AF969FAFF3
:102ED000AF97AF966CAD7DAD8EAD9FADAF970E94B5
:102EE000171C21966CAF7DAF8EAF9FAF21970E94CC
:102EF00079209C01990F440B550BAF962CAF3DAF39
:102F00004EAF5FAFAF97CA01B9010E94FB1C20E032
:102F10003EEF4FEF56E4AC966FAFAC97AD967FAFF8
:102F2000AD97AE968FAFAE97AF969FAFAF97AF9678
:102F30006CAD7DAD8EAD9FADAF970E94171C2596F1
:102F40006CAF7DAF8EAF9FAF25970E9479209C011B
:102F5000990F440B550BAF962CAF3DAF4EAF5FAF03
:102F6000AF97CA01B9010E94FB1C20E03EEF4FEF72
:102F700056E4AC966FAFAC97AD967FAFAD97AE967B
:102F80008FAFAE97AF969FAFAF97AF966CAD7DAD5D
:102F90008EAD9FADAF970E94171C6DA77EA78FA720
:102FA00098AB0E9479209C01990F440B550BAF966A
:102FB0002CAF3DAF4EAF5FAFAF97CA01B9010E94D2
:102FC000FB1C20E03EEF4FEF56E4AC966FAFAC97A2
:102FD000AD967FAFAD97AE968FAFAE97AF969FAFE2
:102FE000AF97AF966CAD7DAD8EAD9FADAF970E94A4
:102FF000171C69AB7AAB8BAB9CAB0E9479209C0110
:10300000990F440B550BAF962CAF3DAF4EAF5FAF52
:10301000AF97CA01B9010E94FB1C20E03EEF4FEFC1
:1030200056E4AC966FAFAC97AD967FAFAD97AE96CA
:103030008FAFAE97AF969FAFAF97AF966CAD7DADAC
:103040008EAD9FADAF970E94171C6DAB7EAB8FAB63
:1030500098AF0E9479209C01990F440B550BAF96B5
:103060002CAF3DAF4EAF5FAFAF97CA01B9010E9421
:10307000FB1C20E03EEF4FEF56E4AC966FAFAC97F1
:10308000AD967FAFAD97AE968FAFAE97AF969FAF31
:10309000AF97AF966CAD7DAD8EAD9FADAF970E94F3
:1030A000171C69A37AA38BA39CA30E9479209C017F
:1030B000990F440B550BAF962CAF3DAF4EAF5FAFA2
:1030C000AF97CA01B9010E94FB1C20E03EEF4FEF11
:1030D00056E4AC966FAFAC97AD967FAFAD97AE961A
:1030E0008FAFAE97AF969FAFAF97AF966CAD7DADFC
:1030F0008EAD9FADAF970E94171C6DA37EA38FA3CB
:1031000098A70E9479209C01990F440B550BAF960C
:103110002CAF3DAF4EAF5FAFAF97CA01B9010E9470
:10312000FB1C20E03EEF4FEF56E4AC966FAFAC9740
:10313000AD967FAFAD97AE968FAFAE97AF969FAF80
:10314000AF97AF966CAD7DAD8EAD9FADAF970E9442
:10315000171C69A77AA78BA79CA78E010F5E1F4F2C
:103160000E9479209C01990F440B550BAF962CAF10
:103170003DAF4EAF5FAFAF97CA01B9010E94FB1CD4
:1031800020E03EEF4FEF56E4AC966FAFAC97AD96B4
:103190007FAFAD97AE968FAFAE97AF969FAFAF971D
:1031A000AF966CAD7DAD8EAD9FADAF970E94171CF5
:1031B000D8016D937D938D939D938D01AB96EEAD6C
:1031C000FFADAB97AE17BF0759F60E9479209C015F
:1031D000990F440B550BAF962CAF3DAF4EAF5FAF81
:1031E000AF97CA01B9010E94FB1C20E03EEF4FEFF0
:1031F00056E4AC966FAFAC97AD967FAFAD97AE96F9
:103200008FAFAE97AF969FAFAF97AF966CAD7DADDA
:103210008EAD9FADAF970E94171C6D8F7E8F8F8FE5
:1032200098A38E010F5F1F4F0E9479209C01990F78
:10323000440B550BAF962CAF3DAF4EAF5FAFAF9782
:10324000CA01B9010E94FB1C20E03EEF4FEF56E49B
:10325000AC966FAFAC97AD967FAFAD97AE968FAF94
:10326000AE97AF969FAFAF97AF966CAD7DAD8EAD7D
:103270009FADAF970E94171CD8016D937D938D93DE
:103280009D938D01A996EEADFFADA997AE17BF072F
:1032900059F60E9479209C01990F440B550BAF966B
:1032A0002CAF3DAF4EAF5FAFAF97CA01B9010E94DF
:1032B000FB1C20E03EEF4FEF56E4AC966FAFAC97AF
:1032C000AD967FAFAD97AE968FAFAE97AF969FAFEF
:1032D000AF97AF966CAD7DAD8EAD9FADAF970E94B1
:1032E000171C6D877E878F87988B712C612C121429
:1032F00013040CF06DC060E080E00E94700F81E567
:1033000091E00E94621061E080E00E94700FC301B2
:103310000E948710E0910001F09101010680F78181
:10332000E02D0995E0919001F091910180809180CC
:103330005C0151E0A51AB1081A141B04F4F5D12C54
:10334000C12CE0910001F09101010084F185E02D94
:103350000995FC0188E0DE01AB5BBF4F01900D9247
:103360008A95E1F7CE018D599F4F7C018E01035A5A
:103370001F4F26962FAD269727963FAD2797289665
:103380004FAD289729965FAD29972A966FAD2A975A
:103390002B967FAD2B972C968FAD2C972D969FADAE
:1033A0002D970E9406059FEFC91AD90ACA14DB049B
:1033B00041F6E0919001F0919101918280820E940A
:1033C0000511AFEF6A1A7A0A2614370409F093CF71
:1033D00044E050E050938F0140938E010E9405110C
:1033E00060E080E00E94700F8AE491E00E94621029
:1033F000F1C960E080E00E94700F82E391E00E94DA
:10340000621082E00E94F60CB82E83E00E94F60C57
:10341000282F30E050E040E0AF962CAF3DAF4EAFEC
:103420005FAFAF97CA01B9010E94FB1C6B018C0111
:103430008B2D90E0B0E0A0E0AF968CAF9DAFAEAF2B
:10344000BFAFAF97BC01CD010E94FB1C9601A80144
:10345000AC966FAFAC97AD967FAFAD97AE968FAF92
:10346000AE97AF969FAFAF97AF966CAD7DAD8EAD7B
:103470009FADAF970E94E30326962FAF269727961E
:103480003FAF279728964FAF289729965FAF299788
:103490002A966FAF2A972B967FAF2B972C968FAFDC
:1034A0002C972D969FAF2D9729966CAD7DAD8EAD47
:1034B0009FAD29970E94C31C262F660F330B440B28
:1034C000550BAF962CAF3DAF4EAF5FAFAF97CA0174
:1034D000B9010E94FB1C2AE939E949E95EE3AC968F
:1034E0006FAFAC97AD967FAFAD97AE968FAFAE97FF
:1034F000AF969FAFAF97AF966CAD7DAD8EAD9FADE4
:10350000AF970E947C1E20E030E04EEF52E4AC9674
:103510006FAFAC97AD967FAFAD97AE968FAFAE97CE
:10352000AF969FAFAF97AF966CAD7DAD8EAD9FADB3
:10353000AF970E94AB1BAC966FAFAC97AD967FAFC9
:10354000AD97AE968FAFAE97AF969FAFAF97AF9652
:103550006CAD7DAD8EAD9FADAF970E94361DAC9624
:103560006FAFAC97AD967FAFAD97AE968FAFAE977E
:10357000AF969FAFAF97AF966CAD7DAD8EAD9FAD63
:10358000AF970E94C31C80E00E94C2112D966CADC3
:103590007DAD8EAD9FAD2D970E94C31C862F660F0B
:1035A000990BAA0BBB0BAF968CAF9DAFAEAFBFAF65
:1035B000AF97BC01CD010E94FB1C2AE939E949E91A
:1035C0005EE3AC966FAFAC97AD967FAFAD97AE961E
:1035D0008FAFAE97AF969FAFAF97AF966CAD7DAD07
:1035E0008EAD9FADAF970E947C1E20E030E04EEF85
:1035F00052E4AC966FAFAC97AD967FAFAD97AE96F9
:103600008FAFAE97AF969FAFAF97AF966CAD7DADD6
:103610008EAD9FADAF970E94AB1BAC966FAFAC97D2
:10362000AD967FAFAD97AE968FAFAE97AF969FAF8B
:10363000AF97AF966CAD7DAD8EAD9FADAF970E944D
:10364000361DAC966FAFAC97AD967FAFAD97AE968B
:103650008FAFAE97AF969FAFAF97AF966CAD7DAD86
:103660008EAD9FADAF970E94C31C81E00E94C21136
:103670000E9409128823B1F141145104E1F00E9423
:1036800009128111A7C8A1E0A0938E0110928F01A9
:103690000E94051160E080E00E94700F8FE391E0CE
:1036A0006DCB0E94091281119DCBE1E04E165104B1
:1036B00009F098CBADCB44244394512C8BC88F5B3D
:1036C00091098C9708F081CBB2E32B0E311C7DCB96
:1036D0000E94091281117EC831E04316510409F09D
:1036E00079C83ECB0E940912811174C891E0491635
:1036F000510409F06FC8C7CFAA1BBB1B51E107C01B
:10370000AA1FBB1FA617B70710F0A61BB70B881F71
:10371000991F5A95A9F780959095BC01CD01089500
:1037200097FB072E16F4009407D077FD09D00E946E
:103730007C1B07FC05D03EF4909581959F4F089522
:10374000709561957F4F0895EE0FFF1F0590F491DE
:10375000E02D09945058BB27AA270E94C21B0C9445
:10376000B41D0E94A61D38F00E94AD1D20F039F452
:103770009F3F19F426F40C947C1D0EF4E095E7FBB2
:103780000C944D1DE92F0E94C51D58F3BA1762070E
:1037900073078407950720F079F4A6F50C94FF1DB4
:1037A0000EF4E0950B2EBA2FA02D0B01B90190015C
:1037B0000C01CA01A0011124FF27591B99F0593FA0
:1037C00050F4503E68F11A16F040A22F232F342FE8
:1037D0004427585FF3CF469537952795A795F04036
:1037E0005395C9F77EF41F16BA0B620B730B840B4B
:1037F000BAF09150A1F0FF0FBB1F661F771F881F03
:10380000C2F70EC0BA0F621F731F841F48F487955A
:1038100077956795B795F7959E3F08F0B0CF93954C
:10382000880F08F09927EE0F9795879508950E94C5
:103830002B1C0C94B41D0E94AD1D58F00E94A61DB7
:1038400040F029F45F3F29F00C944D1D51110C9468
:10385000001E0C947C1D0E94C51D68F39923B1F3D2
:10386000552391F3951B550BBB27AA2762177307A6
:10387000840738F09F5F5F4F220F331F441FAA1F3A
:10388000A9F335D00E2E3AF0E0E832D091505040F6
:10389000E695001CCAF72BD0FE2F29D0660F771FA4
:1038A000881FBB1F261737074807AB07B0E809F08A
:1038B000BB0B802DBF01FF2793585F4F3AF09E3F0F
:1038C000510578F00C944D1D0C94001E5F3FE4F3FD
:1038D000983ED4F3869577956795B795F7959F5F52
:1038E000C9F7880F911D9695879597F90895E1E09E
:1038F000660F771F881FBB1F621773078407BA07FD
:1039000020F0621B730B840BBA0BEE1F88F7E09557
:10391000089529F416F00C944D1D0C94FF1D0C9481
:103920007C1D0E94CD1DA8F39638A0F707F80F92D2
:10393000E8942BE33AEA48EB5FE70E94921E0F926D
:103940000F920F924DB75EB70F920E94481EECE5A2
:10395000F0E00E947F1D4F915F91EF91FF91E595FF
:10396000EE1FFF1F49F0FE57E0684427EE0F441F8B
:10397000FA95E1F74195550B0E94121E0F9007FE34
:103980000C94061E08950E94CA1C6894B1110C94F0
:10399000001E08950E94CD1D88F09F5798F0B92F02
:1039A0009927B751B0F0E1F0660F771F881F991F74
:1039B0001AF0BA95C9F714C0B13091F00E94FF1DFA
:1039C000B1E008950C94FF1D672F782F8827B85F0A
:1039D00039F0B93FCCF3869577956795B395D9F7CC
:1039E0003EF490958095709561957F4F8F4F9F4FD6
:1039F0000895E89409C097FB3EF4909580957095E2
:103A000061957F4F8F4F9F4F9923A9F0F92F96E92A
:103A1000BB279395F695879577956795B795F1119F
:103A2000F8CFFAF4BB0F11F460FF1BC06F5F7F4F3C
:103A30008F4F9F4F16C0882311F096E911C077234E
:103A400021F09EE8872F762F05C0662371F096E857
:103A5000862F70E060E02AF09A95660F771F881F26
:103A6000DAF7880F9695879597F908950E94E71DD4
:103A700090F09F3748F4911116F00C94001E60E00E
:103A800070E080E89FEB089526F41B16611D711D00
:103A9000811D0C94531D0C946E1D97F99F6780E84F
:103AA00070E060E00895882371F4772321F0985046
:103AB000872B762F07C0662311F499270DC09051EC
:103AC000862B70E060E02AF09A95660F771F881FBA
:103AD000DAF7880F9695879597F908959F3F31F00B
:103AE000915020F4879577956795B795880F911D2C
:103AF0009695879597F908959FEF80EC0895DF9349
:103B0000CF931F930F93FF92EF92DF927B018C0173
:103B1000689406C0DA2EEF010E948F1EFE01E89421
:103B2000A5912591359145915591A6F3EF010E94FC
:103B3000C21BFE019701A801DA9469F7DF90EF90AC
:103B4000FF900F911F91CF91DF91089500240A9467
:103B50001616170618060906089500240A94121668
:103B60001306140605060895092E0394000C11F49B
:103B7000882352F0BB0F40F4BF2B11F460FF04C048
:103B80006F5F7F4F8F4F9F4F089557FD9058440FA1
:103B9000551F59F05F3F71F04795880F97FB991FAC
:103BA00061F09F3F79F08795089512161306140669
:103BB000551FF2CF4695F1DF08C0161617061806F6
:103BC000991FF1CF869571056105089408950E94AB
:103BD000CD1DA0F0BEE7B91788F4BB279F3860F46D
:103BE0001616B11D672F782F8827985FF7CF869517
:103BF00077956795B11D93959639C8F30895E89424
:103C0000BB2766277727CB0197F908959B01AC0165
:103C100060E070E080E89FE30C94171C0C944D1D4D
:103C20000C946E1D0E94CD1DD8F39923C9F3940FF7
:103C3000511DA3F39150504094F059F0882332F075
:103C4000660F771F881F91505040C1F79E3F510566
:103C50002CF7880F911D9695879597F908955F3FEA
:103C6000ACF0983E9CF0BB27869577956795B79505
:103C700008F4B1609395C1F7BB0F58F711F460FFDA
:103C8000E8CF6F5F7F4F8F4F9F4FE3CF0C94001EA5
:103C9000FA01DC01AA0FBB1F9B01AC01BF5728F43E
:103CA000222733274427507820C0B75190F4AB2FF8
:103CB0000024469537952795011CA395D2F3002043
:103CC00071F0220F331F441FB395DAF30ED00C941A
:103CD000AA1B61307105A0E88A07B94630F49B0140
:103CE000AC016627772788279078309621F02083CB
:103CF00031834283538308950E948F1E0C94B41D18
:103D00000E94A61D38F00E94AD1D20F0952311F0F1
:103D10000C944D1D0C947C1D11240C94001E0E94CB
:103D2000C51D70F3959FC1F3950F50E0551F629F1D
:103D3000F001729FBB27F00DB11D639FAA27F00D04
:103D4000B11DAA1F649F6627B00DA11D661F829F2B
:103D50002227B00DA11D621F739FB00DA11D621F10
:103D6000839FA00D611D221F749F3327A00D611D2D
:103D7000231F849F600D211D822F762F6A2F11240F
:103D80009F5750409AF0F1F088234AF0EE0FFF1F42
:103D9000BB1F661F771F881F91505040A9F79E3F99
:103DA000510580F00C944D1D0C94001E5F3FE4F310
:103DB000983ED4F3869577956795B795F795E795EF
:103DC0009F5FC1F7FE2B880F911D9695879597F9F8
:103DD00008950F931F93CF93DF939C01029710F4E4
:103DE00022E030E0E091A301F091A40190E080E0B6
:103DF000B0E0A0E0309791F4009709F445C0821B31
:103E0000930B84309105B8F58A819B81611571050A
:103E100069F1FB0193838283FE0111C040815181CE
:103E20000281138142175307F0F04217530799F4A8
:103E3000109761F012960C93129713961C9332967A
:103E4000CF01DF91CF911F910F9108950093A301AE
:103E50001093A401F4CF009719F04817590718F4EC
:103E6000CA01BD01EF01DF01F801C4CF9093A401A5
:103E70008093A301D1CFFE01E80FF91F2193319365
:103E8000029799838883DCCF8091A5019091A60148
:103E9000892B41F480910E0190910F019093A6011E
:103EA0008093A50180910C0190910D01009741F440
:103EB0008DB79EB74091100150911101841B950B55
:103EC0004091A5015091A6014817590708F0B8CFB5
:103ED000841B950B8217930708F4B2CFB9016E5F6C
:103EE0007F4F8617970708F4ABCF640F751F709349
:103EF000A6016093A501FA0121933193A1CFCF933D
:103F0000DF939C010097E9F0FC0132971382128243
:103F1000C091A301D091A401DE0190E080E0209740
:103F2000A1F480819181280F391F8091A501909182
:103F3000A6018217930709F067C0F093A601E093EA
:103F4000A501DF91CF910895DA01AE17BF0708F000
:103F500041C012964D915C911397CD0141155105C9
:103F600099F7DC011396FC93EE9312974D915D91B6
:103F7000A40FB51FEA17FB0781F4208131812E5F62
:103F80003F4F240F351FDC0111963C932E93228165
:103F9000338113963C932E931297B0E0A0E08A8170
:103FA0009B810097B1F5FE0181919191E80FF91F76
:103FB0008091A5019091A6018E179F0711F6109789
:103FC00059F51092A4011092A301D093A601C093B9
:103FD000A501B7CFB383A28340815181240F351F40
:103FE000A217B30771F44E5F5F4F2D913C9111976B
:103FF000420F531F5183408312962D913C9133837E
:104000002283009709F0ADCFF093A401E093A301C0
:1040100098CFDE01EC01C3CF13961C921E9212972B
:10402000D4CFCF92DF92EF92FF92CF93DF93CDB7B1
:10403000DEB72A970FB6F894DEBF0FBECDBF8987D3
:104040009A87A985BA852D913D914D915C912983DF
:104050003A834B835C83232B242B252B41F424E2CE
:1040600039ED4BE557E029833A834B835C836981C3
:104070007A818B819C812DE133EF41E050E00E94F9
:10408000D22069017A01A7EAB1E49B01AC010E9448
:10409000F12069837A838B839C83ACEEB4EFA70114
:1040A00096010E94FF209B01AC0189819A81AB811E
:1040B000BC81820F931FA41FB51FB7FF03C00197D8
:1040C000A109B048E985FA8580839183A283B383EF
:1040D0009F772A960FB6F894DEBF0FBECDBFDF9153
:1040E000CF91FF90EF90DF90CF9008950E94112024
:1040F000089582E191E00E9411200895B0E0A0E0CF
:104100008093120190931301A0931401B0931501B1
:1041100008956817790768F4FB01DC01E40FF51FC7
:10412000A40FB51F02C002900E9241505040D8F724
:1041300008950C94C920B0E0A0E0E1EAF0E20C940C
:104140000A214C017B016A018901D90113968C91E6
:10415000D0E0C0E081FF17C0CC15DD05A1F054010F
:10416000AE0CBF1C0BC0D8011896ED91FC91B801A4
:10417000D4018D914D010995892B29F48A149B0452
:1041800091F72196E9CFCE01CDB7DEB7ECE00C94E4
:104190002621FB01DC0102C001900D9241505040EC
:1041A000D8F70895052E97FB1EF400940E94E9208D
:1041B00057FD07D00E943B2107FC03D04EF40C941E
:1041C000E92050954095309521953F4F4F4F5F4FD7
:1041D000089590958095709561957F4F8F4F9F4F73
:1041E00008950E945D21A59F900DB49F900DA49FFE
:1041F000800D911D11240895B7FF0C94F1200E94A9
:10420000F120821B930B08952F923F924F925F9261
:104210006F927F928F929F92AF92BF92CF92DF92D6
:10422000EF92FF920F931F93CF93DF93CDB7DEB73B
:10423000CA1BDB0B0FB6F894DEBF0FBECDBF0994CF
:104240002A88398848885F846E847D848C849B8426
:10425000AA84B984C884DF80EE80FD800C811B8134
:10426000AA81B981CE0FD11D0FB6F894DEBF0FBE63
:10427000CDBFED010895A1E21A2EAA1BBB1BFD01C3
:104280000DC0AA1FBB1FEE1FFF1FA217B307E40735
:10429000F50720F0A21BB30BE40BF50B661F771F8D
:1042A000881F991F1A9469F760957095809590956D
:1042B0009B01AC01BD01CF010895A29FB001B39F46
:1042C000C001A39F700D811D1124911DB29F700D1F
:1042D000811D1124911D0895F894FFCF30123012E2
:1042E0003C123C124D12471247121A121A121A129D
:1042F00052122512251249128C128C127E127E1235
:10430000A91298129812601260126012AD126F1208
:104310006F12A41200130013F212F2121D130C13E9
:104320000C13D412D412D4122113E312E312181373
:104330000201DC00BC0061008A009D000000B101A8
:10434000200001000000446571756575696E672085
:1043500066726F6D20656D70747920717565756515
:104360000A0050726F706F7274696F6E616C0044F6
:104370006174610045706F6368004E657572616CB1
:1043800000547261696E696E670045525200616443
:1043900064724E41434B0077725F4E41434B007253
:0843A0006561644E41434B00CE
:00000001FF
