:100000000C942E000C944B000C944B000C944B0061
:100010000C944B000C944B000C944B000C94CA06AF
:100020000C944B000C944B000C944B000C944B0024
:100030000C944B000C944B000C944B000C944B0014
:100040000C944B000C944B000C944B000C944B0004
:100050000C944B000C944B000C944B0011241FBECD
:10006000CFEFD0E1DEBFCDBF11E0A0E0B1E0E4ED25
:10007000FAE102C005900D92A235B107D9F721E04F
:10008000A2E5B1E001C01D92AB37B207E1F70E94D3
:10009000CE080C943E0D0C940000E0915D01F091AF
:1000A0005E010190F081E02D90E080E0309739F022
:1000B00001960480F581E02D3097D1F708950895D9
:1000C000CF93DF9300D000D0CDB7DEB7E0915D01D4
:1000D000F0915E010190F081E02D309799F08081E0
:1000E0009181A281B38189839A83AB83BC83698127
:1000F0007A818B819C810F900F900F900F90DF91F0
:10010000CF91089580E191E00E94C10519821A8281
:100110001B821C82ECCFCF93DF93E0915D01F091C5
:100120005E01C081D181209749F08C819D819183AE
:100130008083CE01DF91CF910C94120C2091790134
:1001400030917A014BE150E061E070E086E191E0AE
:100150000E94C90CEECFCF92DF92EF92FF920F93E5
:100160001F93CF93DF9300D000D000D0CDB7DEB780
:10017000861B970B9C01990F440B550B29833A83DF
:100180004B835C83CA01B9010E942B0A8B018E83C9
:100190009D83209156013091570140915801509113
:1001A000590169831A838B839C8369817A818B814E
:1001B0009C810E9487096B017C01AB01BC014093CB
:1001C0005601509357016093580170935901A8014B
:1001D0006E817D814093520150935301609354018D
:1001E000709355012AE037ED43EA5DE369817A8136
:1001F0008B819C810E940F0B8B018E839D8320E05D
:1002000030E0A901C982DA82EB82FC8269817A81BD
:100210008B819C810E940F0B9B01AC0109831A8387
:100220008E818B838D818C8369817A818B819C8186
:100230000E94870920E030E0A90169837A838B83DB
:100240009C8369817A818B819C810E948709698363
:100250007A838B839C8369817A818B819C810E94C4
:10026000F309462F572F84E190E0841B950B8536C8
:10027000910514F084E690E097FF02C090E080E0E2
:100280009A8389838CEE9FEF841B950B18161906B1
:1002900014F490E080E08C392FEF920714F48CE98D
:1002A0009FEF9C838B8369817A818B819C812696C9
:1002B0000FB6F894DEBF0FBECDBFDF91CF911F9177
:1002C0000F91FF90EF90DF90CF9008959C01CB01AC
:1002D0002817390724F0C901421753070CF0089575
:1002E000CA010895CF93DF9300D000D00F92CDB70D
:1002F000DEB78D83862F660F990BAA0BBB0B898304
:100300009A83AB83BC83BC01CD010E942B0A2AE9EE
:1003100039E949E95EE369837A838B839C83698148
:100320007A818B819C810E940F0B20E030E04EEFA0
:1003300052E469837A838B839C8369817A818B8180
:100340009C810E94870969837A838B839C8369815E
:100350007A818B819C810E94660A69837A838B8370
:100360009C8369817A818B819C810E94F3098D81B4
:100370000F900F900F900F900F90DF91CF910C94F2
:100380001D07CF92DF92EF92FF920F931F93CF93AF
:10039000DF93CDB7DEB7C254D1090FB6F894DEBFF4
:1003A0000FBECDBF6B017E0122E2E20EF11C4AE0DE
:1003B000B7010E94A40C4AE08E010F5F1F4FB801E5
:1003C000C6010E94A40CF70101900020E9F73197C3
:1003D0008EE290E2918380831282F80101900020E6
:1003E000E9F7319791838083128260E080E00E9478
:1003F000D004C7010E94C10561E080E00E94D004E2
:10040000C8010E94C1050E946406CE5BDF4F0FB693
:10041000F894DEBF0FBECDBFDF91CF911F910F913A
:10042000FF90EF90DF90CF900895EF92FF920F939F
:100430001F93CF93DF937B018C0186E090E00E94B5
:100440007C0BEC01E882F9820A831B831D821C82EB
:10045000E0915D01F0915E01309799F0808191818A
:10046000892BE1F0A281B3811596DC93CE9314978A
:10047000D383C283DF91CF911F910F91FF90EF90B3
:10048000089584E090E00E947C0BFC0190935E0153
:1004900080935D011182108213821282D183C08306
:1004A000D383C2831D821C82DF91CF911F910F9154
:1004B000FF90EF9008950C941502CF93DF93E09195
:1004C0005D01F0915E01C081D181209741F08C8166
:1004D0009D8191838083CE01DF91CF9108952091FA
:1004E000790130917A014BE150E061E070E086E102
:1004F00091E00E94C90CEFCFEAE7F0E080818768C5
:100500008083ECE7F0E0808180668083089520910D
:100510007C00287F20937C0090917C00982B909306
:100520007C0080917A00806480937A0080917A00C8
:1005300086FDFCCF8091790008958DB18F7C8DB9B7
:1005400085E08A95F1F700006D9A759885E08A95A7
:10055000F1F700006C9A749885E08A95F1F7000035
:1005600008956C9885E08A95F1F700006D9885E014
:100570008A95F1F7000008956D9885E08A95F1F766
:10058000000065990DC06C9885E08A95F1F7000030
:100590006C9A749885E08A95F1F70000659BF3CF1B
:1005A0006C9808956C9885E08A95F1F700006C9A34
:1005B000749885E08A95F1F7000008951F93CF9312
:1005C000DF93C82FD62F142F0E94BC020E949D02D9
:1005D00087E013C06D9895E09A95F1F700006C984C
:1005E00095E09A95F1F700006C9A749895E09A95C9
:1005F000F1F70000CC0F815029F0C6FDEBCF6D9ACA
:100600007598E9CF6D9A759885E08A95F1F70000A5
:100610006C9895E09A95F1F700006C9A749885E0D3
:100620008A95F1F700006D9895E09A95F1F7000032
:100630006C9865994BC085E08A95F1F700006C9A3B
:10064000749895E09A95F1F7000088E014C06D9ACF
:10065000759895E09A95F1F700006C9895E09A9559
:10066000F1F700006C9A749895E09A95F1F7000004
:10067000DD0F815021F0D7FFEACF6D98EACF6D985A
:1006800085E08A95F1F700006C9865991AC095E0AD
:100690009A95F1F700006C9A749885E08A95F1F7C5
:1006A0000000112351F06C9895E09A95F1F7000045
:1006B0006D9885E08A95F1F70000DF91CF911F9149
:1006C000089583E491E00E94C105FFCF87E391E0A4
:1006D0000E94C105FFCF6623E9F1A82FB92F2FEFA4
:1006E000260F30E02F5F3F4F2A0F3B1F8D9198E080
:1006F000FD01319716C06D9A759885E08A95F1F7DE
:1007000000006C9885E08A95F1F700006C9A749867
:1007100085E08A95F1F700008081880F80839150F1
:1007200021F087FFE8CF6D98E8CF6D9885E08A9536
:10073000F1F700006C98659918C085E08A95F1F78B
:1007400000006C9A749885E08A95F1F70000A21772
:10075000B30761F66C9885E08A95F1F700006D9813
:1007600085E08A95F1F70000089580E491E00E9409
:10077000C105FFCF0F931F93CF93DF93082FEB019A
:10078000142F0E949D0287E013C06D9895E09A9502
:10079000F1F700006C9895E09A95F1F700006C9ADB
:1007A000749895E09A95F1F70000000F815029F0B8
:1007B00006FDEBCF6D9A7598E9CF6D9885E08A9527
:1007C000F1F700006C9895E09A95F1F700006C9AAB
:1007D000749885E08A95F1F700006D9895E09A95F8
:1007E000F1F700006C9865995AC085E08A95F1F799
:1007F00000006C9A749895E09A95F1F700006D9856
:1008000085E08A95F1F700001123B1F12FEF210F58
:1008100030E02F5F3F4F2C0F3D1F98E08881880FFD
:1008200088836C9885E08A95F1F70000659B03C08A
:1008300088818160888385E08A95F1F700006C9A51
:10084000749885E08A95F1F70000915039F76D9A18
:10085000759895E09A95F1F700006C9885E08A9577
:10086000F1F700006C9A749895E09A95F1F7000002
:100870002196C217D30789F685E08A95F1F7000023
:100880006C9895E09A95F1F700006D9885E08A954F
:10089000F1F70000DF91CF911F910F91089588E447
:1008A00091E00E94C105FFCFCF93DF930F92CDB7A8
:1008B000DEB7498340E00E94DE0261E0CE0101968E
:1008C0000E946B030F90DF91CF9108951F93CF93F8
:1008D000DF930F92CDB7DEB7182F41E00E94DE0202
:1008E00041E0BE016F5F7F4F812F0E94BA03898173
:1008F0000F90DF91CF911F91089561E08CE10C94EE
:10090000660463E08CE10C94660465E08CE10C9471
:1009100066048AE08A95F1F700C0449A8AE08A95D5
:10092000F1F700C044988AE08A95F1F700C0089575
:10093000F89482B98AE08A95F1F700C0449A8AE077
:100940008A95F1F700C044988AE08A95F1F700C0D3
:10095000789408958F98F89482B98AE08A95F1F78F
:1009600000C0449A8AE08A95F1F700C044988AE072
:100970008A95F1F700C0789408958F9AF89482B917
:100980008AE08A95F1F700C0449A8AE08A95F1F7E7
:1009900000C044988AE08A95F1F700C078940895E1
:1009A0008031F0F46230E0F46E5F6295660F660F9E
:1009B000607C860F8F98F89482B98AE08A95F1F767
:1009C00000C0449A8AE08A95F1F700C044988AE012
:1009D0008A95F1F700C0789485EC8A95F1F70000CC
:1009E00008953C9A879A8FEF81B98FE19EE4019731
:1009F000F1F700C000008F98F89488E382B99AE07C
:100A00009A95F1F700C0449AEAE0EA95F1F700C040
:100A10004498FAE0FA95F1F700C07894EFE7F2E035
:100A20003197F1F700C000008F98F89482B9FAE08E
:100A3000FA95F1F700C0449A9AE09A95F1F700C050
:100A40004498EAE0EA95F1F700C07894EFE7F2E025
:100A50003197F1F700C000008F98F89482B9FAE05E
:100A6000FA95F1F700C0449A9AE09A95F1F700C020
:100A70004498EAE0EA95F1F700C07894EFE7F2E0F5
:100A80003197F1F700C000008F98F89498E092B980
:100A9000FAE0FA95F1F700C0449A9AE09A95F1F7D6
:100AA00000C04498EAE0EA95F1F700C07894EFE7D7
:100AB000F2E03197F1F700C000008F98F89491E0D0
:100AC00092B9FAE0FA95F1F700C0449A9AE09A9543
:100AD000F1F700C04498EAE0EA95F1F700C0789495
:100AE000EFE7FEE33197F1F700C000008F98F8942C
:100AF00096E092B9FAE0FA95F1F700C0449A9AE0CC
:100B00009A95F1F700C04498EAE0EA95F1F700C041
:100B10007894EFE7F2E03197F1F700C000008F988A
:100B2000F89482B9FAE0FA95F1F700C0449A8AE0A5
:100B30008A95F1F700C044989AE09A95F1F700C0C1
:100B40007894EFE8F1E03197F1F700C000008F985A
:100B5000F8948CE082B9FAE0FA95F1F700C0449A73
:100B60008AE08A95F1F700C044989AE09A95F1F7E7
:100B700000C07894EFE8F1E03197F1F700C0000091
:100B80000895DC018C91882301F190E08F9AF8940C
:100B900082B98AE08A95F1F700C0449AEAE0EA95C2
:100BA000F1F700C04498FAE0FA95F1F700C07894A4
:100BB000EFE7F2E03197F1F700C000009F5FFD0121
:100BC000E90FF11D80818111E1CF08951F93CF932B
:100BD000DF939C01892B09F45AC045E011E0EFE056
:100BE000F7E2CAE0D0E0C901BF016F5F7F4F0E940A
:100BF0005809662349F1E217F30770F5605D8F9A93
:100C0000F89462B9BAE0BA95F1F700C0449A2AE0C4
:100C10002A95F1F700C04498AAE0AA95F1F700C020
:100C20007894AFE7B2E01197F1F700C0000010E050
:100C30009C01CF01BE010E946C09FB01415099F655
:100C4000DF91CF911F910895E217F30718F4111166
:100C5000EFCFD4CF1111EDCF605D8F9AF89462B9C8
:100C6000BAE0BA95F1F700C0449A8AE08A95F1F7A4
:100C700000C044989AE09A95F1F700C07894AFE7E5
:100C8000B2E01197F1F700C0000010E0D2CF8F9AC8
:100C9000F89480E382B92AE02A95F1F700C0449ADB
:100CA0008AE08A95F1F700C044989AE09A95F1F7A6
:100CB00000C07894AFE7B2E01197F1F700C00000F0
:100CC000DF91CF911F9108958F98F89481E082B9B8
:100CD0008AE08A95F1F700C0449A9AE09A95F1F774
:100CE00000C044988AE08A95F1F700C078948FE7B5
:100CF0009EE30197F1F700C0000008955D9A5C98AB
:100D00000895382F262F4FEF6403C001112464E6A5
:100D100070E00E946C09311107C06093B300121695
:100D20004CF45C9A5D98089567BD12162CF45E9A97
:100D30005F9808950C947E065F9A5E980895CF930D
:100D4000DF93C3EBD0E018820E947E0617BC5F9A47
:100D50005E9884B1806984B98AB1806F8AB9E0EB0A
:100D6000F0E080818866808380818260808384B5A2
:100D7000886684BD84B5826084BD8AE087BD88832F
:100D8000DF91CF9108955C9A5D982C9A5F9A5E9856
:100D90002F9A08952F932FB72F933F934F935F93DD
:100DA0008F939F93EF93FF9340915C01542F56953F
:100DB000252F30E081E090E001C0880F5A95EAF7D6
:100DC00040FF26C04091880050918900220F331FB8
:100DD000F901EF59FE4F20813181240F351F3093E7
:100DE00089002093880098B18095892388B98091E3
:100DF0005C018F5F877080935C01FF91EF919F9101
:100E00008F915F914F913F912F912FBF2F91189507
:100E10004091880050918900220F331FF901E75952
:100E2000FE4F20813181240F351F3093890020939C
:100E3000880098B1892B88B9DACF90E02AE0629FC8
:100E4000B00111246C53764F880F991FFC01E759AC
:100E5000FE4F718360838F599E4F24ED30E3261B34
:100E6000370BFC01318320830895A9E6B1E024EC1F
:100E700039E011963C932E93E1E6F1E080E197E2B0
:100E80009183808313963C932E931297938382834E
:100E900015963C932E9314979583848317963C93D1
:100EA0002E9316979783868387B18F6087B9E1E881
:100EB000F0E01082808182608083EFE6F0E0808144
:100EC00082608083789408958CB18095881F8827EC
:100ED000881F0895282F30E08E3010F080E00895AC
:100EE000F901E05CF24F0C94800986B190E0225049
:100EF000310902C0959587952A95E2F7817008958A
:100F000083B190E02950310902C0959587952A95C3
:100F1000E2F7817008952CB130E0A90102C0559527
:100F200047958A95E2F7CA018170089582B390E0EF
:100F30002F5F3F4F02C0959587952A95E2F7817004
:100F4000089523B1E9CF83B18695817008958CB15E
:100F500086FB882780F9089583B181700895282F32
:100F600030E08E3030F4F901E25BF24F0C948009EE
:100F7000219808952250310981E090E001C0880F46
:100F80002A95EAF797B1662309F44DC0892B87B9F2
:100F900008952950310981E090E001C0880F2A9519
:100FA000EAF794B1662309F446C0892B84B9089501
:100FB0002F5F3F4F81E090E001C0880F2A95EAF74C
:100FC00093B36623A1F1892B83BB089521E030E020
:100FD00001C0220F8A95EAF78DB1662381F1282B93
:100FE0002DB9089521E030E001C0220F8A95EAF77B
:100FF00084B1662381F0282B24B90895662309F46F
:10100000B7CF219A0895662361F06E9A08956623FA
:1010100031F0209A08952095282324B90895209826
:1010200008956E9808958095892387B908958095CD
:10103000892383BB08958095892384B908952095D9
:1010400028232DB90895282F30E08E3030F4F9018F
:10105000E45AF24F0C9480092998089522503109DE
:1010600081E090E001C0880F2A95EAF798B16623E5
:1010700009F44DC0892B88B908952950310981E0C0
:1010800090E001C0880F2A95EAF795B1662309F42C
:1010900046C0892B85B908952F5F3F4F81E090E0CE
:1010A00001C0880F2A95EAF794B36623A1F1892B32
:1010B00084BB089521E030E001C0220F8A95EAF751
:1010C0008EB1662381F1282B2EB9089521E030E0FE
:1010D00001C0220F8A95EAF785B1662381F0282B9B
:1010E00025B90895662309F4B7CF299A0895662390
:1010F00061F0769A0895662331F0289A0895209534
:10110000282325B9089528980895769808958095FC
:10111000892388B908958095892384BB0895809593
:10112000892385B90895209528232EB90895811122
:1011300004C0613041F0A0980895613011F0A19889
:101140000895A19A0895A09A0895811102C0A09AC5
:101150000895A19A0895811102C0A0980895A198B8
:101160000895529A83B3836083BB779A0E947C026E
:101170000E94F1040E9435070E949F0641E06AE246
:101180008CE10E9454042FEF81EE94E021508040C6
:101190009040E1F700C000000C94BC0200D000D0E9
:1011A000CDB7DEB780915A0190915B0181309105F6
:1011B00019F18330910509F474C00097B9F782E002
:1011C0000E948702898383E00E948702682F70E073
:1011D0002981822F90E00E94AB00898380E00E94E9
:1011E0007201698181E00E94720180915A0190919F
:1011F0005B0181309105E9F660E080E00E94D00457
:1012000082E391E00E94C10560E080E00E947201EB
:1012100060E081E00E94720160E085E00E94D004FD
:1012200090E080E00E94E60582E00E948702082F9D
:1012300083E00E948702898361E080E00E94D004FD
:1012400010E0C8010E94E60561E085E00E94D0043C
:101250009981892F90E09A8389830E94E60584E032
:1012600090E00E947C0BFC0111830083A981BA816C
:10127000B383A28380819181A281B38189839A8380
:10128000AB83BC83E0915F01F09160010190F0813C
:10129000E02DBC01CD01099580915A0190915B012F
:1012A00085CF84E090E090935B0180935A017ECFDC
:1012B000AA1BBB1B51E107C0AA1FBB1FA617B7077C
:1012C00010F0A61BB70B881F991F5A95A9F7809598
:1012D0009095BC01CD01089597FB072E16F400945C
:1012E00007D077FD09D00E94580907FC05D03EF4CD
:1012F000909581959F4F0895709561957F4F0895C2
:10130000EE0FFF1F0590F491E02D09945058BB2774
:10131000AA270E949E090C94BD0A0E94AF0A38F0C9
:101320000E94B60A20F039F49F3F19F426F40C9479
:10133000AC0A0EF4E095E7FB0C947D0AE92F0E94BD
:10134000CE0A58F3BA17620773078407950720F08F
:1013500079F4A6F50C94080B0EF4E0950B2EBA2F39
:10136000A02D0B01B90190010C01CA01A0011124AB
:10137000FF27591B99F0593F50F4503E68F11A1657
:10138000F040A22F232F342F4427585FF3CF4695E8
:1013900037952795A795F0405395C9F77EF41F160A
:1013A000BA0B620B730B840BBAF09150A1F0FF0FD4
:1013B000BB1F661F771F881FC2F70EC0BA0F621FC0
:1013C000731F841F48F4879577956795B795F795B0
:1013D0009E3F08F0B0CF9395880F08F09927EE0F45
:1013E0009795879508950E94FA096894B1110C9415
:1013F000090B08950E94D60A88F09F5798F0B92FDC
:101400009927B751B0F0E1F0660F771F881F991F39
:101410001AF0BA95C9F714C0B13091F00E94080BC8
:10142000B1E008950C94080B672F782F8827B85FD8
:1014300039F0B93FCCF3869577956795B395D9F791
:101440003EF490958095709561957F4F8F4F9F4F9B
:101450000895E89409C097FB3EF4909580957095A7
:1014600061957F4F8F4F9F4F9923A9F0F92F96E9F0
:10147000BB279395F695879577956795B795F11165
:10148000F8CFFAF4BB0F11F460FF1BC06F5F7F4F02
:101490008F4F9F4F16C0882311F096E911C0772314
:1014A00021F09EE8872F762F05C0662371F096E81D
:1014B000862F70E060E02AF09A95660F771F881FEC
:1014C000DAF7880F9695879597F908950E94F00AA4
:1014D00090F09F3748F4911116F00C94090B60E0DE
:1014E00070E080E89FEB089526F41B16611D711DC6
:1014F000811D0C94830A0C949E0A97F99F6780E8DB
:1015000070E060E00895882371F4772321F098500B
:10151000872B762F07C0662311F499270DC09051B1
:10152000862B70E060E02AF09A95660F771F881F7F
:10153000DAF7880F9695879597F908959F3F31F0D0
:10154000915020F4879577956795B795880F911DF1
:101550009695879597F908959FEF80EC089500245C
:101560000A941616170618060906089500240A9408
:1015700012161306140605060895092E0394000C8E
:1015800011F4882352F0BB0F40F4BF2B11F460FF1D
:1015900004C06F5F7F4F8F4F9F4F089557FD905846
:1015A000440F551F59F05F3F71F04795880F97FB27
:1015B000991F61F09F3F79F08795089512161306E1
:1015C0001406551FF2CF4695F1DF08C01616170610
:1015D0001806991FF1CF8695710561050894089545
:1015E0000E94D60AA0F0BEE7B91788F4BB279F383F
:1015F00060F41616B11D672F782F8827985FF7CFF4
:10160000869577956795B11D93959639C8F308959A
:10161000E894BB2766277727CB0197F908950E94A6
:10162000220B0C94BD0A0E94AF0A38F00E94B60A41
:1016300020F0952311F00C947D0A0C94AC0A11242F
:101640000C94090B0E94CE0A70F3959FC1F3950F7D
:1016500050E0551F629FF001729FBB27F00DB11D36
:10166000639FAA27F00DB11DAA1F649F6627B00DC6
:10167000A11D661F829F2227B00DA11D621F739FAF
:10168000B00DA11D621F839FA00D611D221F749FBD
:101690003327A00D611D231F849F600D211D822F04
:1016A000762F6A2F11249F5750409AF0F1F088232B
:1016B0004AF0EE0FFF1FBB1F661F771F881F915058
:1016C0005040A9F79E3F510580F00C947D0A0C9480
:1016D000090B5F3FE4F3983ED4F3869577956795C1
:1016E000B795F795E7959F5FC1F7FE2B880F911D82
:1016F0009695879597F908950F931F93CF93DF934E
:101700009C01029710F422E030E0E0917301F09127
:10171000740190E080E0B0E0A0E0309791F4009791
:1017200009F445C0821B930B84309105B8F58A817A
:101730009B816115710569F1FB0193838283FE0131
:1017400011C0408151810281138142175307F0F08B
:101750004217530799F4109761F012960C93129761
:1017600013961C933296CF01DF91CF911F910F9169
:1017700008950093730110937401F4CF009719F04A
:101780004817590718F4CA01BD01EF01DF01F8013C
:10179000C4CF9093740180937301D1CFFE01E80F01
:1017A000F91F21933193029799838883DCCF80912D
:1017B000710190917201892B41F480910C019091FB
:1017C0000D01909372018093710180910A019091B3
:1017D0000B01009741F48DB79EB740910E015091D7
:1017E0000F01841B950B40917101509172014817B4
:1017F000590708F0B8CF841B950B8217930708F49C
:10180000B2CFB9016E5F7F4F8617970708F4ABCF51
:10181000640F751F7093720160937101FA01219337
:101820003193A1CFCF93DF939C010097E9F0FC01A6
:10183000329713821282C0917301D0917401DE013C
:1018400090E080E02097A1F480819181280F391FDA
:1018500080917101909172018217930709F067C01E
:10186000F0937201E0937101DF91CF910895DA0155
:10187000AE17BF0708F041C012964D915C911397C7
:10188000CD014115510599F7DC011396FC93EE93B8
:1018900012974D915D91A40FB51FEA17FB0781F4D4
:1018A000208131812E5F3F4F240F351FDC011196BF
:1018B0003C932E932281338113963C932E9312975F
:1018C000B0E0A0E08A819B810097B1F5FE01819193
:1018D0009191E80FF91F80917101909172018E171B
:1018E0009F0711F6109759F5109274011092730129
:1018F000D0937201C0937101B7CFB383A2834081AB
:101900005181240F351FA217B30771F44E5F5F4F4B
:101910002D913C911197420F531F51834083129692
:101920002D913C9133832283009709F0ADCFF09342
:101930007401E093730198CFDE01EC01C3CF1396DD
:101940001C921E921297D4CFBB274A3031F49923B0
:1019500022F4BDE2909581959F4F0C94B00CBB276B
:10196000FB015527AA27880F991FAA1FA41710F05B
:10197000A41B83955051B9F7A05DAA3308F0A95D67
:10198000A193009779F7B111B1931192CB010C9407
:10199000F70CB0E0A0E0EFECFCE00C940D0D4C0176
:1019A0007B016A018901D90113968C91D0E0C0E0D6
:1019B00081FF17C0CC15DD05A1F05401AE0CBF1C92
:1019C0000BC0D8011896ED91FC91B801D4018D910E
:1019D0004D010995892B29F48A149B0491F72196CE
:1019E000E9CFCE01CDB7DEB7ECE00C94290DDC01D8
:1019F000FC01672F71917723E1F7329704C07C9146
:101A00006D9370836291AE17BF07C8F308952F924C
:101A10003F924F925F926F927F928F929F92AF927E
:101A2000BF92CF92DF92EF92FF920F931F93CF93CB
:101A3000DF93CDB7DEB7CA1BDB0B0FB6F894DEBF62
:101A40000FBECDBF09942A88398848885F846E8488
:101A50007D848C849B84AA84B984C884DF80EE80D2
:101A6000FD800C811B81AA81B981CE0FD11D0FB6DB
:101A7000F894DEBF0FBECDBFED010895F894FFCFFF
:101A80008B078B0796079607A707A107A10775077E
:101A900075077507AC0780078007A307E607E60709
:101AA000D807D8070308F207F207BA07BA07BA0738
:101AB0000708C907C907FE075A085A084C084C0806
:101AC0007708660866082E082E082E087B083D0851
:041AD0003D08720853
:101AD40002015B028B0060004D0000007B012000CE
:101AE4006572726F7200446571756575696E672001
:101AF40066726F6D20656D7074792071756575659A
:101B04000A004441544100616464724E41434B00F5
:101B140077725F4E41434B00726561644E41434BA3
:021B24000000BF
:00000001FF
