:100000000C9442000C945F000C945F000C945F0011
:100010000C945F000C945F000C945F000C94D60A63
:100020000C945F000C945F000C945F000C945F00D4
:100030000C945F000C945F000C945F000C945F00C4
:100040000C945F000C945F000C945F000C945F00B4
:100050000C945F000C945F000C945F0007634236C1
:10006000B79BD8A71A39685618AEBAAB558C1D3C49
:10007000B7CC5763BD6DEDFD753EF6177231BF000D
:100080000000803F11241FBECFEFD0E1DEBFCDBF07
:1000900011E0A0E0B1E0ECEFFFE202C005900D92AC
:1000A000A437B107D9F721E0A4E7B1E001C01D9260
:1000B000A13AB207E1F70E94090D0C94D2170C94F3
:1000C0000000CF93DF9300D000D0CDB7DEB7E09132
:1000D0008001F09181010190F081E02D808191817A
:1000E000A281B381BC01CD010F900F900F900F90B2
:1000F000DF91CF910895E0918001F091810101900D
:10010000F081E02D90E080E0309739F00196048096
:10011000F581E02D3097D1F708950895CF93DF93BF
:10012000E0918001F0918101C081D181209741F05F
:100130008C819D8191838083CE01DF91CF91089541
:1001400020919B0130919C014BE150E061E070E017
:1001500086E191E00E94F116EFCFCF93DF93E0911B
:100160008001F0918101C081D181209749F08C817B
:100170009D8191838083CE01DF91CF910C94B01546
:1001800020919B0130919C014BE150E061E070E0D7
:1001900086E191E00E94F116EECFEF92FF920F936D
:1001A0001F93CF93DF937B018C0186E090E00E9448
:1001B0001A15EC01E882F9820A831B831D821C82D6
:1001C000E0918001F0918101309799F080819181D7
:1001D000892BE1F0A281B3811596DC93CE9314971D
:1001E000D383C283DF91CF911F910F91FF90EF9046
:1001F000089584E090E00E941A15FC01909381011B
:10020000809380011182108213821282D183C08375
:10021000D383C2831D821C82DF91CF911F910F91E6
:10022000FF90EF900895EF92FF920F931F93CF935B
:10023000DF9300D000D0CDB7DEB769837A838B839C
:100240009C8369817A818B819C810E94AD1426EA0E
:100250003BE944E45BE369837A838B839C83698114
:100260007A818B819C810E94AD149B01AC01E98253
:10027000FA820B831C8369817A818B819C810E9425
:10028000DB1169837A838B839C8369817A818B817B
:100290009C810F900F900F900F90DF91CF911F9145
:1002A0000F91FF90EF9008954F925F926F927F921F
:1002B0008F929F92AF92BF92CF92DF92EF92FF9276
:1002C0000F931F93CF93DF9300D000D00F92CDB741
:1002D000DEB72B013C0149014D83598360E070E09A
:1002E00080E89FE30E94DB1194014D81598169836D
:1002F0007A838B839C8369817A818B819C810E9424
:10030000AD149201A30169837A838B839C836981F5
:100310007A818B819C810E94AD149701A801698329
:100320007A838B839C8369817A818B819C810E94F3
:10033000AD1426EA3BE944E45BE369837A838B836B
:100340009C8369817A818B819C810E94AD149B0181
:10035000AC01A982BA82CB82DC8269817A818B81ED
:100360009C810E94DB1169837A838B839C836981E2
:100370007A818B819C810F900F900F900F900F903E
:10038000DF91CF911F910F91FF90EF90DF90CF9071
:10039000BF90AF909F908F907F906F905F904F90A5
:1003A00008952F923F924F925F926F927F928F9219
:1003B0009F92AF92BF92CF92DF92EF92FF920F93F4
:1003C0001F93CF93DF93CDB7DEB7A2970FB6F89404
:1003D000DEBF0FBECDBF5C017A0129A33AA3CB01DA
:1003E000770FAA0BBB0B898F9A8FAB8FBC8FBC0189
:1003F000CD010E942C131B012C01C501BB0CAA0BC3
:10040000BB0B898F9A8FAB8FBC8FBC01CD010E9433
:100410002C133B014C01DE011196B88FAF8B8CE0A1
:100420001D928A95E9F78701F7013696F8A3EF8FB9
:10043000CE0101969E8F8D8FD801ED90FD908D019C
:10044000F7012081318142815381298E3A8E4B8E72
:100450005C8E698D7A8D8B8D9C8D0E94AD145B01B5
:100460006C01D70114962D913D914D915C91179798
:10047000698E7A8E8B8E9C8E698D7A8D8B8D9C8DFC
:100480000E94AD149B01AC01A98EBA8ECB8EDC8E7E
:10049000698D7A8D8B8D9C8D0E94DC11F7012085F2
:1004A000318542855385698F7A8F8B8F9C8F698DBB
:1004B0007A8D8B8D9C8D0E94DB11DC01CB01B058B5
:1004C000898F9A8FAB8FBC8FBC01CD010E94C21265
:1004D00020E030E040E85FE3698F7A8F8B8F9C8F5C
:1004E000698D7A8D8B8D9C8D0E94DC119B01AC01F6
:1004F00060E070E080E89FE30E944812698F7A8F85
:100500008B8F9C8FAD8DBE8D6D937D938D939D93C1
:10051000BE8FAD8FEF8DF8A1E017F10709F08CCFFA
:10052000FE013D9688E0DF011D928A95E9F769A0FA
:100530007AA06F013896FE8BED8BD3018D909D9044
:100540003D0184015401BCE0AB0EB11CFE013196AB
:100550007F01212C312C412C512CF701819191915B
:10056000A191B1917F01898F9A8FAB8FBC8FD801F8
:100570002D913D914D915D918D01698D7A8D8B8D80
:100580009C8D0E94AD149B01AC01298E3A8E4B8E3E
:100590005C8E698D7A8D8B8D9C8D0E94DC111B0188
:1005A0002C01A016B106C9F6F401248535854685CF
:1005B0005785698F3A8E4B8E5C8E698D7A8D8B8DC7
:1005C0009C8D0E94DC11DC01CB01B058898F9A8F81
:1005D000AB8FBC8FBC01CD010E94C21220E030E085
:1005E00040E85FE3698F7A8F8B8F9C8F698D7A8D5E
:1005F0008B8D9C8D0E94DC119B01AC0160E070E052
:1006000080E89FE30E944812698F7A8F8B8F9C8FBE
:10061000D6016D937D938D939D936D01ED89FE8938
:10062000EA17FB0709F089CF69897A898B899C8948
:100630000E94F4128B016D857E858F8598890E94BA
:10064000F4127A8F698F1C8F0B8F698D7A8D8B8D49
:100650009C8DA2960FB6F894DEBF0FBECDBFDF9182
:10066000CF911F910F91FF90EF90DF90CF90BF90AF
:10067000AF909F908F907F906F905F904F903F9042
:100680002F900895EF92FF920F931F93CF93DF93D4
:100690007B018901DC01FA010696CD91DD91408153
:1006A000518162817381488359836A837B8344814A
:1006B0005581668177814C835D836E837F8340851E
:1006C000518562857385488759876A877B873C9601
:1006D0008A179B0711F7F701C081D1814CE050E0E8
:1006E000B801CE010E94BA16F80184859585A685C9
:1006F000B7858C879D87AE87BF87F701C281D3817D
:10070000B801605F7F4F4CE050E0CE010E94BA1606
:10071000F801848D958DA68DB78D8C879D87AE87CA
:10072000BF87DF91CF911F910F91FF90EF900895B8
:10073000CF93DF9300D000D0CDB7DEB7DC01CB0183
:10074000B05889839A83AB83BC83BC01CD010E94DE
:10075000C21220E030E040E85FE369837A838B8354
:100760009C8369817A818B819C810E94DC119B0131
:10077000AC0160E070E080E89FE30E94481269836A
:100780007A838B839C8369817A818B819C810F9092
:100790000F900F900F90DF91CF910895CF92DF923D
:1007A000EF92FF920F931F93CF93DF9300D000D06F
:1007B00000D0CDB7DEB7861B970B9C01990F440B79
:1007C000550B29833A834B835C83CA01B9010E948C
:1007D0002C138B018E839D832091780130917901B8
:1007E00040917A0150917B0169831A838B839C83AA
:1007F00069817A818B819C810E94DC116B017C0173
:10080000AB01BC01409378015093790160937A0168
:1008100070937B01A8016E817D8140937401509398
:10082000750160937601709377012AE037ED43EA12
:100830005DE369817A818B819C810E94AD148B017B
:100840008E839D8320E030E0A901C982DA82EB82A9
:10085000FC8269817A818B819C810E94AD149B010D
:10086000AC0109831A838E818B838D818C8369818E
:100870007A818B819C810E94DC1120E030E0A9010B
:1008800069837A838B839C8369817A818B819C8144
:100890000E94DC1169837A838B839C8369817A81CE
:1008A0008B819C810E94F412462F572F84E190E0A7
:1008B000841B950B8536910514F084E690E097FF34
:1008C00002C090E080E09A8389838CEE9FEF841BC6
:1008D000950B1816190614F490E080E08C392FEF70
:1008E000920714F48CE99FEF9C838B8369817A8152
:1008F0008B819C8126960FB6F894DEBF0FBECDBFCC
:10090000DF91CF911F910F91FF90EF90DF90CF90EB
:100910000895CF93DF93CDB7DEB72E970FB6F89437
:10092000DEBF0FBECDBF8D839E830E94AA169C01A1
:10093000990F440B550B29833A834B835C83CA017F
:10094000B9010E942C1320E03EEF4FEF56E469837B
:100950007A838B839C8369817A818B819C810E94BD
:1009600048126F83788789879A87AD81BE816D939E
:100970007D938D939C9313970E94AA169C01990FC7
:10098000440B550B29833A834B835C83CA01B9011D
:100990000E942C1320E03EEF4FEF56E469837A83E8
:1009A0008B839C8369817A818B819C810E94481210
:1009B000AD81BE8114966D937D938D939C93179713
:1009C00080E090E0A0E8BFEBED81FE818087918719
:1009D000A287B3872E960FB6F894DEBF0FBECDBFA9
:1009E000DF91CF910895EF92FF920F931F93CF93D2
:1009F000DF9300D000D000D0CDB7DEB78D839E83CB
:100A0000ED80FE808701045F1F4F0E94AA169C01A3
:100A1000990F440B550B29833A834B835C83CA019E
:100A2000B9010E942C1320E03EEF4FEF56E469839A
:100A30007A838B839C8369817A818B819C810E94DC
:100A40004812D7016D937D938D939D937D01A017DF
:100A5000B107D9F680E090E0A0E8BFEBED81FE8120
:100A600084879587A687B78726960FB6F894DEBF4A
:100A70000FBECDBFDF91CF911F910F91FF90EF90EF
:100A80000895CF93DF93CDB7DEB7C454D1090FB625
:100A9000F894DEBF0FBECDBF8B017C01CE01C9969D
:100AA0000E948904CE018D960E948904CE01819610
:100AB0000E948904CE0141960E94F304CE01019662
:100AC0000E94F304B701C8010E94CE03FFCF9C012E
:100AD000CB012817390724F0C901421753070CF03E
:100AE0000895CA010895CF93DF9300D000D00F92EC
:100AF000CDB7DEB78D83862F660F990BAA0BBB0B84
:100B000089839A83AB83BC83BC01CD010E942C13E3
:100B10002AE939E949E95EE369837A838B839C8317
:100B200069817A818B819C810E94AD1420E030E044
:100B30004EEF52E469837A838B839C8369817A8147
:100B40008B819C810E94DC1169837A838B839C83D7
:100B500069817A818B819C810E94671369837A8382
:100B60008B839C8369817A818B819C810E94F412A2
:100B70008D810F900F900F900F900F90DF91CF917C
:100B80000C94330BCF92DF92EF92FF920F931F934F
:100B9000CF93DF93CDB7DEB7C254D1090FB6F89427
:100BA000DEBF0FBECDBF6B017E0122E2E20EF11C63
:100BB0004AE0B7010E94CC164AE08E010F5F1F4F3A
:100BC000B801C6010E94CC16F70101900020E9F798
:100BD00031978EE290E2918380831282F801019036
:100BE0000020E9F7319791838083128260E080E0F2
:100BF0000E94E108C7010E94D30961E080E00E94E1
:100C0000E108C8010E94D3090E94760ACE5BDF4F3B
:100C10000FB6F894DEBF0FBECDBFDF91CF911F910D
:100C20000F91FF90EF90DF90CF900895EF92FF9299
:100C30000F931F93CF93DF937B018C0186E090E0AD
:100C40000E941A15EC01E882F9820A831B831D8237
:100C50001C82E0918001F0918101309799F08081B0
:100C60009181892BE1F0A281B3811596DC93CE931B
:100C70001497D383C283DF91CF911F910F91FF907F
:100C8000EF90089584E090E00E941A15FC01909383
:100C90008101809380011182108213821282D1839C
:100CA000C083D383C2831D821C82DF91CF911F91A9
:100CB0000F91FF90EF900895EAE7F0E08081876858
:100CC0008083ECE7F0E08081806680830895209146
:100CD0007C00287F20937C0090917C00982B90933F
:100CE0007C0080917A00806480937A0080917A0001
:100CF00086FDFCCF8091790008958DB18F7C8DB9F0
:100D000085E08A95F1F700006D9A759885E08A95DF
:100D1000F1F700006C9A749885E08A95F1F700006D
:100D200008956C9885E08A95F1F700006D9885E04C
:100D30008A95F1F7000008956D9885E08A95F1F79E
:100D4000000065990DC06C9885E08A95F1F7000068
:100D50006C9A749885E08A95F1F70000659BF3CF53
:100D60006C9808956C9885E08A95F1F700006C9A6C
:100D7000749885E08A95F1F7000008951F93CF934A
:100D8000DF93C82FD62F142F0E949C060E947D0649
:100D900087E013C06D9895E09A95F1F700006C9884
:100DA00095E09A95F1F700006C9A749895E09A9501
:100DB000F1F70000CC0F815029F0C6FDEBCF6D9A02
:100DC0007598E9CF6D9A759885E08A95F1F70000DE
:100DD0006C9895E09A95F1F700006C9A749885E00C
:100DE0008A95F1F700006D9895E09A95F1F700006B
:100DF0006C98659941C085E08A95F1F700006C9A7E
:100E0000749895E09A95F1F7000088E014C06D9A07
:100E1000759895E09A95F1F700006C9895E09A9591
:100E2000F1F700006C9A749895E09A95F1F700003C
:100E3000DD0F815021F0D7FFEACF6D98EACF6D9892
:100E400085E08A95F1F700006C98659910C095E0EF
:100E50009A95F1F700006C9A749885E08A95F1F7FD
:100E6000000011110EC0DF91CF911F91089586E609
:100E700091E00E94D309FFCF8AE591E00E94D30957
:100E8000FFCF6C9895E09A95F1F700006D9885E09A
:100E90008A95F1F70000DF91CF911F9108956623A5
:100EA000C1F1DC019C01260F311D8D9198E0FD01FF
:100EB000319716C06D9A759885E08A95F1F7000014
:100EC0006C9885E08A95F1F700006C9A749885E03B
:100ED0008A95F1F700008081880F8083915021F07E
:100EE00087FFE8CF6D98E8CF6D9885E08A95F1F798
:100EF00000006C98659918C085E08A95F1F70000AC
:100F00006C9A749885E08A95F1F70000A217B307F0
:100F100061F66C9885E08A95F1F700006D9885E0A0
:100F20008A95F1F70000089583E691E00E94D309C5
:100F3000FFCF0F931F93CF93DF93182FEB01042F55
:100F40000E947D0687E013C06D9895E09A95F1F7B1
:100F500000006C9895E09A95F1F700006C9A7498EF
:100F600095E09A95F1F70000110F815029F016FDD8
:100F7000EBCF6D9A7598E9CF6D9885E08A95F1F77A
:100F800000006C9895E09A95F1F700006C9A7498BF
:100F900085E08A95F1F700006D9895E09A95F1F754
:100FA00000006C98659956C085E08A95F1F70000BD
:100FB0006C9A749895E09A95F1F700006D9885E029
:100FC0008A95F1F70000002391F19E01200F311D59
:100FD00098E08881880F88836C9885E08A95F1F77E
:100FE0000000659B03C088818160888385E08A95C5
:100FF000F1F700006C9A749885E08A95F1F700008B
:10100000915039F76D9A759895E09A95F1F700002F
:101010006C9885E08A95F1F700006C9A749895E0D9
:101020009A95F1F700002196C217D30789F685E05B
:101030008A95F1F700006C9895E09A95F1F7000019
:101040006D9885E08A95F1F70000DF91CF911F91AF
:101050000F9108958BE691E00E94D309FFCFCF93C3
:10106000DF930F92CDB7DEB7498340E00E94BE0602
:1010700061E0CE0101960E944F070F90DF91CF9162
:1010800008951F93CF93DF930F92CDB7DEB7182F3C
:1010900041E00E94BE0641E0BE016F5F7F4F812F9D
:1010A0000E94990789810F90DF91CF911F91089538
:1010B000CF93DF930F92CDB7DEB741E061E08CE1D3
:1010C0000E94BE0641E0BE016F5F7F4F8CE10E942F
:1010D000990789810F90DF91CF910895CF93DF9386
:1010E0000F92CDB7DEB741E063E08CE10E94BE060F
:1010F00041E0BE016F5F7F4F8CE10E9499078981BB
:101100000F90DF91CF910895CF93DF930F92CDB7DA
:10111000DEB741E065E08CE10E94BE0641E0BE0121
:101120006F5F7F4F8CE10E94990789810F90DF915B
:10113000CF9108958AE08A95F1F700C0449A8AE039
:101140008A95F1F700C044988AE08A95F1F700C0CB
:101150000895F89482B98AE08A95F1F700C0449A1C
:101160008AE08A95F1F700C044988AE08A95F1F701
:1011700000C0789408958F98F89482B98AE08A958F
:10118000F1F700C0449A8AE08A95F1F700C04498CC
:101190008AE08A95F1F700C0789408958F9AF894C0
:1011A00082B98AE08A95F1F700C0449A8AE08A956C
:1011B000F1F700C044988AE08A95F1F700C078946E
:1011C0000895803110F4623008F008956E5F6295E2
:1011D000660F660F607C680F8F98F89462B98AE09A
:1011E0008A95F1F700C0449A8AE08A95F1F700C029
:1011F00044988AE08A95F1F700C0789485EC8A9546
:10120000F1F7000008953C9A879A8FEF81B98FE13A
:101210009EE40197F1F700C000008F98F89488E3EE
:1012200082B99AE09A95F1F700C0449AEAE0EA950B
:10123000F1F700C04498FAE0FA95F1F700C078940D
:10124000EFE7F2E03197F1F700C000008F98F894D3
:1012500082B9FAE0FA95F1F700C0449A9AE09A95BB
:10126000F1F700C04498EAE0EA95F1F700C07894FD
:10127000EFE7F2E03197F1F700C000008F98F894A3
:1012800082B9FAE0FA95F1F700C0449A9AE09A958B
:10129000F1F700C04498EAE0EA95F1F700C07894CD
:1012A000EFE7F2E03197F1F700C000008F98F89473
:1012B00098E092B9FAE0FA95F1F700C0449A9AE002
:1012C0009A95F1F700C04498EAE0EA95F1F700C07A
:1012D0007894EFE7F2E03197F1F700C000008F98C3
:1012E000F89491E092B9FAE0FA95F1F700C0449AC7
:1012F0009AE09A95F1F700C04498EAE0EA95F1F790
:1013000000C07894EFE7FEE33197F1F700C00000EA
:101310008F98F89496E092B9FAE0FA95F1F700C048
:10132000449A9AE09A95F1F700C04498EAE0EA9569
:10133000F1F700C07894EFE7F2E03197F1F700C0E1
:1013400000008F98F89482B9FAE0FA95F1F700C09E
:10135000449A8AE08A95F1F700C044989AE09A95F9
:10136000F1F700C07894EFE8F1E03197F1F700C0B1
:1013700000008F98F8948CE082B9FAE0FA95F1F7C2
:1013800000C0449A8AE08A95F1F700C044989AE038
:101390009A95F1F700C07894EFE8F1E03197F1F712
:1013A00000C000000895DC018C91882301F190E0D9
:1013B0008F9AF89482B98AE08A95F1F700C0449A2E
:1013C000EAE0EA95F1F700C04498FAE0FA95F1F7FF
:1013D00000C07894EFE7F2E03197F1F700C0000029
:1013E0009F5FFD01E90FF11D80818111E1CF08951B
:1013F0001F93CF93DF939C01892B09F45AC045E0DA
:1014000011E0EFE0F7E2CAE0D0E0C901BF016F5F91
:101410007F4F0E94AD11662349F1E217F30770F583
:10142000605D8F9AF89462B9BAE0BA95F1F700C09E
:10143000449A2AE02A95F1F700C04498AAE0AA95B8
:10144000F1F700C07894AFE7B2E01197F1F700C070
:10145000000010E09C01CF01BE010E94C111FB0100
:10146000415099F6DF91CF911F910895E217F3074C
:1014700018F41111EFCFD4CF1111EDCF605D8F9A19
:10148000F89462B9BAE0BA95F1F700C0449A8AE0DC
:101490008A95F1F700C044989AE09A95F1F700C058
:1014A0007894AFE7B2E01197F1F700C0000010E0C8
:1014B000D2CF8F9AF89480E382B92AE02A95F1F787
:1014C00000C0449A8AE08A95F1F700C044989AE0F7
:1014D0009A95F1F700C07894AFE7B2E01197F1F771
:1014E00000C00000DF91CF911F9108958F98F8946C
:1014F00081E082B98AE08A95F1F700C0449A9AE0C7
:101500009A95F1F700C044988AE08A95F1F700C0F7
:1015100078948FE79EE30197F1F700C000000895EB
:10152000382F262F4FEF6403C001112464E670E0CA
:101530000E94C111311107C06093B30012164CF420
:101540005C9A5D98089567BD121634F45E9A5F98B0
:1015500008955D9A5C9808955F9A5E980895A3EB4C
:10156000B0E01C925D9A5C9817BC5F9A5E9884B15B
:10157000806984B98AB1806F8AB9E0EBF0E080813C
:101580008866808380818260808384B5886684BD1C
:1015900084B5826084BD8AE087BD8C9308955C9A8F
:1015A0005D982C9A5F9A5E982F9A08950F920FB6C5
:1015B0000F922F933F938F939F93EF93FF932091DD
:1015C0009201822F869590E020FF2FC02091880005
:1015D00030918900880F991FFC01EE57FE4F8081E2
:1015E0009181820F931F909389008093880038B176
:1015F00020919201269581E090E0022E01C0880F93
:101600000A94EAF78095832388B9809192018F5FCD
:10161000877080939201FF91EF919F918F913F91FD
:101620002F910F900FBE0F90189520918800309148
:101630008900880F991FFC01E657FE4F8081918138
:10164000820F931F909389008093880088B19091B6
:101650009201969521E030E001C0220F9A95EAF7B9
:10166000822B88B9D2CF90E02AE0629FB00111248A
:101670006C53764F880F991FFC01E657FE4F71831C
:1016800060838E579E4F24ED30E3261B370BFC0101
:10169000318320830895AAE8B1E024EC39E0119663
:1016A0003C932E93E2E8F1E080E197E2918380831E
:1016B00013963C932E9312979383828315963C93B3
:1016C0002E9314979583848317963C932E931697A5
:1016D0009783868387B18F6087B9E1E8F0E0108255
:1016E000808182608083EFE6F0E080818260808389
:1016F000789408958CB18095881F8827881F089555
:10170000282F30E08E3010F080E00895F901EC527F
:10171000F84E0C94D51186B190E02250310902C0E8
:10172000959587952A95E2F78170089583B190E0A9
:101730002950310902C0959587952A95E2F7817065
:1017400008959CB1292F30E0A90102C05595479515
:101750008A95E2F7CA018170089582B390E02F5F05
:101760003F4F02C0959587952A95E2F781700895BD
:1017700023B1E9CF83B18695817008958CB186FB42
:10178000882780F9089583B181700895282F30E06B
:101790008E3030F4F901EE51F84E0C94D5112198A9
:1017A00008952250310981E090E001C0880F2A9508
:1017B000EAF797B1662309F44DC0892B87B90895DC
:1017C0002950310981E090E001C0880F2A95EAF79D
:1017D00094B1662309F446C0892B84B908952F5F1C
:1017E0003F4F81E090E001C0880F2A95EAF793B35C
:1017F0006623A1F1892B83BB089521E030E001C06D
:10180000220F8A95EAF78DB1662381F1282B2DB935
:10181000089521E030E001C0220F8A95EAF784B1F3
:10182000662381F0282B24B90895662309F4B7CFE5
:10183000219A0895662361F06E9A0895662331F027
:10184000209A08952095282324B908952098089572
:101850006E9808958095892387B908958095892386
:1018600083BB08958095892384B908952095282302
:101870002DB90895282F30E08E3030F4F901E05171
:10188000F84E0C94D511299808952250310981E021
:1018900090E001C0880F2A95EAF798B1662309F411
:1018A0004DC0892B88B908952950310981E090E015
:1018B00001C0880F2A95EAF795B1662309F446C05E
:1018C000892B85B908952F5F3F4F81E090E001C0DB
:1018D000880F2A95EAF794B36623A1F1892B84BB7C
:1018E000089521E030E001C0220F8A95EAF78EB119
:1018F000662381F1282B2EB9089521E030E001C044
:10190000220F8A95EAF785B1662381F0282B25B945
:101910000895662309F4B7CF299A0895662361F0E4
:10192000769A0895662331F0289A08952095282301
:1019300025B9089528980895769808958095892363
:1019400088B908958095892384BB0895809589235B
:1019500085B90895209528232EB90895811104C0D2
:10196000613041F0A0980895613011F0A198089578
:10197000A19A0895A09A0895811102C0A09A08958D
:10198000A19A0895811102C0A0980895A198089580
:10199000529A83B3836083BB779A0E945C060E944D
:1019A00003090E944B0B0E94AF0A41E06AE28CE1FE
:1019B0000E942F082FEF81EE94E02150804090404C
:1019C000E1F700C000000C949C06A4E0B0E0EBEE50
:1019D000FCE00C947A17FC010FB6F89480919D01FD
:1019E00090919E01A0919F01B091A00189839A835B
:1019F000AB83BC830FBE309721F080839183A28399
:101A0000B38369817A818B819C812496E2E00C9476
:101A10009617CDB7DEB7C455D1090FB6F894DEBF1F
:101A20000FBECDBFCE01C99627969FAF8EAF279729
:101A30000C9729969FAF8EAF29970C972B969FAF47
:101A40008EAF2B9721E130E02C0F3D1F2D963FAF3D
:101A50002EAF2D9741E050E04C0F5D1F2F965FAFEA
:101A60004EAF2F9790E080E00E94E50C272F862F45
:101A7000922F0E94AF160E94C80CB12CA12C10E02E
:101A800000E08AE090E065969FAF8EAF6597DE013B
:101A90005D962D01FE013D961F0123E0722E662406
:101AA000639432E0C32ED12CE0907E01F0907F0150
:101AB000F2E0EF16F10409F4BCC108F082C0EF288F
:101AC00009F4A7C00E94760A82E00E946706882E69
:101AD00083E00E946706E82E60E080E00E94E10853
:101AE0008FE391E00E94D30960E086E00E94E10864
:101AF000C5010E94F80961E080E00E94E108912C94
:101B0000C4010E94F80961E085E00E94E108F12C1F
:101B1000C7010E94F80984E090E00E941A15FC01B8
:101B200091828082F382E28280819181A281B3815D
:101B300063968CAF9DAFAEAFBFAF6397E0910001EE
:101B4000F09101010190F081E02DBC01CD010995DA
:101B50009FEFA91AB90A98EEE92E93E0F92E0DC06D
:101B600001E010E0AFE9BFE01197F1F700C000001D
:101B7000B1E0EB1AF10809F497CF0E947A0B8823A1
:101B8000C1F00115110561F30E947A0B8111EACFB2
:101B9000D0927F01C0927E010E94760A60E080E0D0
:101BA0000E94E10884E491E00E94D30900E010E083
:101BB000D9CF0E947A0B8111D5CF0130110591F652
:101BC000E7CF33E0E316F10409F494C144E0E416EE
:101BD000F10409F084C10E947A0B882309F48BC3B5
:101BE0000115110509F46BC30E947A0B81115CCFBA
:101BF000D0927F01C0927E010E94760A60E080E070
:101C00000E94E10884E491E00E94D30900E010E022
:101C10004BCF60E080E00E94E10882E391E00E9407
:101C2000D30982E00E946706F82E83E00E946706CF
:101C3000682F70E08F2D90E00E94CE03F82E862F43
:101C4000660F990BAA0BBB0B63968CAF9DAFAEAF23
:101C5000BFAF6397BC01CD010E942C132AE939E97B
:101C600049E95EE360966FAF609761967FAF6197D9
:101C700062968FAF629763969FAF639763966CADE2
:101C80007DAD8EAD9FAD63970E94AD1420E030E036
:101C90004EEF52E460966FAF609761967FAF6197A9
:101CA00062968FAF629763969FAF639763966CADB2
:101CB0007DAD8EAD9FAD63970E94DC1160966FAFD6
:101CC000609761967FAF619762968FAF62976396D8
:101CD0009FAF639763966CAD7DAD8EAD9FAD6397FF
:101CE0000E94671360966FAF609761967FAF6197B0
:101CF00062968FAF629763969FAF639763966CAD62
:101D00007DAD8EAD9FAD63970E94F41280E00E947E
:101D1000330B2F2DFF0C330B440B550B63962CAF5D
:101D20003DAF4EAF5FAF6397CA01B9010E942C135C
:101D30002AE939E949E95EE360966FAF60976196F9
:101D40007FAF619762968FAF629763969FAF6397FD
:101D500063966CAD7DAD8EAD9FAD63970E94AD1463
:101D600020E030E04EEF52E460966FAF60976196EE
:101D70007FAF619762968FAF629763969FAF6397CD
:101D800063966CAD7DAD8EAD9FAD63970E94DC1107
:101D900060966FAF609761967FAF619762968FAFE5
:101DA000629763969FAF639763966CAD7DAD8EAD82
:101DB0009FAD63970E94671360966FAF60976196BF
:101DC0007FAF619762968FAF629763969FAF63977D
:101DD00063966CAD7DAD8EAD9FAD63970E94F4129E
:101DE00081E00E94330B0E947A0B882309F47AC2A7
:101DF0000115110509F463C20E947A0B811154CEBA
:101E000060927E0110927F010E94760A60E080E07D
:101E10000E94E1088FE391E00E94D30960E080E036
:101E20000E94730560E081E00E94730500E010E00D
:101E30003BCE0E946E0890E09C01205131092C326B
:101E4000310508F03FC26596EEADFFAD6597EC3009
:101E5000F1052CF03A976596FFAFEEAF659761E01C
:101E600080E00E94E10865968EAD9FAD65970E9467
:101E7000F80984EFE82EFF24F3940DC001E010E090
:101E80008FE99FE00197F1F700C0000091E0E91AA7
:101E9000F10809F409CE0E947A0B8823C1F00115DC
:101EA000110561F30E947A0B8111EACF70927E01D5
:101EB00010927F010E94760A60E080E00E94E108B3
:101EC00086E491E00E94D30900E010E0D9CF0E949F
:101ED0007A0B8111D5CF0130110591F6E7CF0E9421
:101EE000760A60E080E00E94E10886E591E00E94C9
:101EF000D309DACD61E080E00E94E108E0910001C1
:101F0000F09101010680F781E02D09950E94F80902
:101F10000E94AA169C01990F440B550B63962CAF97
:101F20003DAF4EAF5FAF6397CA01B9010E942C135A
:101F300020E03EEF4FEF56E460966FAF60976196FA
:101F40007FAF619762968FAF629763969FAF6397FB
:101F500063966CAD7DAD8EAD9FAD63970E944812C8
:101F600069AF7AAF8BAF9CAF0E94AA169C01990F04
:101F7000440B550B63962CAF3DAF4EAF5FAF6397ED
:101F8000CA01B9010E942C1320E03EEF4FEF56E446
:101F900060966FAF609761967FAF619762968FAFE3
:101FA000629763969FAF639763966CAD7DAD8EAD80
:101FB0009FAD63970E94481221966CAF7DAF8EAFA4
:101FC0009FAF219750E040E030E82FEB852F942F12
:101FD000A32FB22F25968CAF9DAFAEAFBFAF259785
:101FE0000E94AA169C01990F440B550B63962CAFC7
:101FF0003DAF4EAF5FAF6397CA01B9010E942C138A
:1020000020E03EEF4FEF56E460966FAF6097619629
:102010007FAF619762968FAF629763969FAF63972A
:1020200063966CAD7DAD8EAD9FAD63970E944812F7
:102030006DA77EA78FA798AB0E94AA169C01990F47
:10204000440B550B63962CAF3DAF4EAF5FAF63971C
:10205000CA01B9010E942C1320E03EEF4FEF56E475
:1020600060966FAF609761967FAF619762968FAF12
:10207000629763969FAF639763966CAD7DAD8EADAF
:102080009FAD63970E94481269AB7AAB8BAB9CAB58
:1020900050E040E030E82FEB852F942FA32FB22F94
:1020A0008DAB9EABAFABB8AF0E94AA169C01990F47
:1020B000440B550B63962CAF3DAF4EAF5FAF6397AC
:1020C000CA01B9010E942C1320E03EEF4FEF56E405
:1020D00060966FAF609761967FAF619762968FAFA2
:1020E000629763969FAF639763966CAD7DAD8EAD3F
:1020F0009FAD63970E94481269A37AA38BA39CA308
:102100000E94AA169C01990F440B550B63962CAFA5
:102110003DAF4EAF5FAF6397CA01B9010E942C1368
:1021200020E03EEF4FEF56E460966FAF6097619608
:102130007FAF619762968FAF629763969FAF639709
:1021400063966CAD7DAD8EAD9FAD63970E944812D6
:102150006DA37EA38FA398A750E040E030E82FEB5B
:10216000852F942FA32FB22F89A79AA7ABA7BCA71F
:10217000AE014F5E5F4F4A010E94AA169C01990F63
:10218000440B550B63962CAF3DAF4EAF5FAF6397DB
:10219000CA01B9010E942C1320E03EEF4FEF56E434
:1021A00060966FAF609761967FAF619762968FAFD1
:1021B000629763969FAF639763966CAD7DAD8EAD6E
:1021C0009FAD63970E944812D4016D937D938D93C8
:1021D0009D934D01A415B50579F650E040E030E837
:1021E0002FEB852F942FA32FB22F8D8F9E8FAF8F24
:1021F000B8A3FE0131964F010E94AA169C01990FC7
:10220000440B550B63962CAF3DAF4EAF5FAF63975A
:10221000CA01B9010E942C1320E03EEF4FEF56E4B3
:1022200060966FAF609761967FAF619762968FAF50
:10223000629763969FAF639763966CAD7DAD8EADED
:102240009FAD63970E94481263966CAF7DAF8EAFCF
:102250009FAF6397D4016D937D938D939D934D01B3
:102260002A163B0649F650E040E030E82FEB852F78
:10227000942FA32FB22F8D879E87AF87B88BE091C5
:102280000001F09101010680F781E02D09951816F3
:102290001906D4F1B1E0EB1AF10889F7E4E0F0E0B7
:1022A000F0937F01E0937E010E94760A60E080E077
:1022B0000E94E1088FE491E00E94D309F5CB01E090
:1022C00010E0F2CB8F5B91098C9708F0C8CD659632
:1022D0002EAD3FAD6597265F3F4F65963FAF2EAF62
:1022E0006597BDCD0E947A0B8111DECB01301105BF
:1022F00009F0DACB85CD0E947A0B8111D5CB013064
:10230000110509F0D1CB74CCE0910001F0910101ED
:1023100080859185FC010995DC012D913D914D91C0
:102320005C9163962CAF3DAF4EAF5FAF6397E0918A
:102330000001F09101010280F381E02D09959E01D9
:10234000255B3F4FAE014B5B5F4F63966CAD7DAD40
:102350008EAD9FAD63970E944105AA1BBB1B51E147
:1023600007C0AA1FBB1FA617B70710F0A61BB70B05
:10237000881F991F5A95A9F780959095BC01CD01AA
:10238000089597FB072E16F4009407D077FD09D027
:102390000E94AD1107FC05D03EF4909581959F4FAA
:1023A0000895709561957F4F0895EE0FFF1F05907A
:1023B000F491E02D09945058BB27AA270E94F311ED
:1023C0000C94E5130E94D71338F00E94DE1320F01E
:1023D00039F49F3F19F426F40C94AD130EF4E095F4
:1023E000E7FB0C947E13E92F0E94F61358F3BA17FB
:1023F000620773078407950720F079F4A6F50C941B
:1024000030140EF4E0950B2EBA2FA02D0B01B9015C
:1024100090010C01CA01A0011124FF27591B99F05A
:10242000593F50F4503E68F11A16F040A22F232F66
:10243000342F4427585FF3CF469537952795A795B6
:10244000F0405395C9F77EF41F16BA0B620B730B5D
:10245000840BBAF09150A1F0FF0FBB1F661F771FCE
:10246000881FC2F70EC0BA0F621F731F841F48F483
:10247000879577956795B795F7959E3F08F0B0CF0C
:102480009395880F08F09927EE0F979587950895F3
:102490000E945C120C94E5130E94DE1358F00E9417
:1024A000D71340F029F45F3F29F00C947E135111AB
:1024B0000C9431140C94AD130E94F61368F3992315
:1024C000B1F3552391F3951B550BBB27AA27621730
:1024D0007307840738F09F5F5F4F220F331F441F3D
:1024E000AA1FA9F335D00E2E3AF0E0E832D0915071
:1024F0005040E695001CCAF72BD0FE2F29D0660F5E
:10250000771F881FBB1F261737074807AB07B0E8A0
:1025100009F0BB0B802DBF01FF2793585F4F3AF0A6
:102520009E3F510578F00C947E130C9431145F3F5C
:10253000E4F3983ED4F3869577956795B795F7952C
:102540009F5FC9F7880F911D9695879597F9089514
:10255000E1E0660F771F881FBB1F621773078407B0
:10256000BA0720F0621B730B840BBA0BEE1F88F7BF
:10257000E095089529F416F00C947E130C94301411
:102580000C94AD130E94FE13A8F39638A0F707F839
:102590000F92E8942BE33AEA48EB5FE70E94C314FA
:1025A0000F920F920F924DB75EB70F920E9479145F
:1025B000ECE5F0E00E94B0134F915F91EF91FF9135
:1025C000E595EE1FFF1F49F0FE57E0684427EE0F28
:1025D000441FFA95E1F74195550B0E9443140F9063
:1025E00007FE0C94371408950E94FB126894B111F1
:1025F0000C94311408950E94FE1388F09F5798F0B0
:10260000B92F9927B751B0F0E1F0660F771F881FF7
:10261000991F1AF0BA95C9F714C0B13091F00E9411
:102620003014B1E008950C943014672F782F882768
:10263000B85F39F0B93FCCF3869577956795B39538
:10264000D9F73EF490958095709561957F4F8F4FA7
:102650009F4F0895E89409C097FB3EF490958095AC
:10266000709561957F4F8F4F9F4F9923A9F0F92F58
:1026700096E9BB279395F695879577956795B795D6
:10268000F111F8CFFAF4BB0F11F460FF1BC06F5FBC
:102690007F4F8F4F9F4F16C0882311F096E911C0CE
:1026A000772321F09EE8872F762F05C0662371F0EF
:1026B00096E8862F70E060E02AF09A95660F771F03
:1026C000881FDAF7880F9695879597F908950E94E5
:1026D000181490F09F3748F4911116F00C943114AF
:1026E00060E070E080E89FEB089526F41B16611D02
:1026F000711D811D0C9484130C949F1397F99F678F
:1027000080E870E060E00895882371F4772321F079
:102710009850872B762F07C0662311F499270DC098
:102720009051862B70E060E02AF09A95660F771F33
:10273000881FDAF7880F9695879597F908959F3F38
:1027400031F0915020F4879577956795B795880F6C
:10275000911D9695879597F908959FEF80EC0895C0
:10276000DF93CF931F930F93FF92EF92DF927B0142
:102770008C01689406C0DA2EEF010E94C014FE019D
:10278000E894A5912591359145915591A6F3EF01D6
:102790000E94F311FE019701A801DA9469F7DF9016
:1027A000EF90FF900F911F91CF91DF91089500243A
:1027B0000A941616170618060906089500240A94A6
:1027C00012161306140605060895092E0394000C2C
:1027D00011F4882352F0BB0F40F4BF2B11F460FFBB
:1027E00004C06F5F7F4F8F4F9F4F089557FD9058E4
:1027F000440F551F59F05F3F71F04795880F97FBC5
:10280000991F61F09F3F79F087950895121613067E
:102810001406551FF2CF4695F1DF08C016161706AD
:102820001806991FF1CF86957105610508940895E2
:102830000E94FE13A0F0BEE7B91788F4BB279F38AB
:1028400060F41616B11D672F782F8827985FF7CF91
:10285000869577956795B11D93959639C8F3089538
:10286000E894BB2766277727CB0197F908959B014A
:10287000AC0160E070E080E89FE30C9448120C9497
:102880007E130C949F130E94FE13D8F39923C9F36F
:10289000940F511DA3F39150504094F059F08823A8
:1028A00032F0660F771F881F91505040C1F79E3F4E
:1028B00051052CF7880F911D9695879597F90895E6
:1028C0005F3FACF0983E9CF0BB2786957795679567
:1028D000B79508F4B1609395C1F7BB0F58F711F4A1
:1028E00060FFE8CF6F5F7F4F8F4F9F4FE3CF0C9418
:1028F0003114FA01DC01AA0FBB1F9B01AC01BF57C9
:1029000028F4222733274427507820C0B75190F469
:10291000AB2F0024469537952795011CA395D2F33C
:10292000002071F0220F331F441FB395DAF30ED04D
:102930000C94DB1161307105A0E88A07B94630F4C8
:102940009B01AC016627772788279078309621F085
:10295000208331834283538308950E94C0140C94D2
:10296000E5130E94D71338F00E94DE1320F0952360
:1029700011F00C947E130C94AD1311240C943114AB
:102980000E94F61370F3959FC1F3950F50E0551F09
:10299000629FF001729FBB27F00DB11D639FAA27B4
:1029A000F00DB11DAA1F649F6627B00DA11D661F03
:1029B000829F2227B00DA11D621F739FB00DA11D24
:1029C000621F839FA00D611D221F749F3327A00DDE
:1029D000611D231F849F600D211D822F762F6A2F7A
:1029E00011249F5750409AF0F1F088234AF0EE0FDF
:1029F000FF1FBB1F661F771F881F91505040A9F70C
:102A00009E3F510580F00C947E130C9431145F3F6F
:102A1000E4F3983ED4F3869577956795B795F79547
:102A2000E7959F5FC1F7FE2B880F911D96958795BF
:102A300097F908950F931F93CF93DF939C0102970B
:102A400010F422E030E0E0919301F091940190E0E5
:102A500080E0B0E0A0E0309791F4009709F445C021
:102A6000821B930B84309105B8F58A819B81611597
:102A7000710569F1FB0193838283FE0111C04081DE
:102A800051810281138142175307F0F04217530717
:102A900099F4109761F012960C93129713961C9369
:102AA0003296CF01DF91CF911F910F91089500933E
:102AB000930110939401F4CF009719F04817590728
:102AC00018F4CA01BD01EF01DF01F801C4CF9093F2
:102AD000940180939301D1CFFE01E80FF91F219358
:102AE0003193029799838883DCCF809195019091EF
:102AF0009601892B41F480910E0190910F019093E2
:102B000096018093950180910C0190910D010097A1
:102B100041F48DB79EB74091100150911101841B73
:102B2000950B40919501509196014817590708F06F
:102B3000B8CF841B950B8217930708F4B2CFB90165
:102B40006E5F7F4F8617970708F4ABCF640F751F32
:102B50007093960160939501FA0121933193A1CF6F
:102B6000CF93DF939C010097E9F0FC013297138229
:102B70001282C0919301D0919401DE0190E080E037
:102B80002097A1F480819181280F391F80919501B0
:102B9000909196018217930709F067C0F093960110
:102BA000E0939501DF91CF910895DA01AE17BF0749
:102BB00008F041C012964D915C911397CD014115DB
:102BC000510599F7DC011396FC93EE9312974D9102
:102BD0005D91A40FB51FEA17FB0781F420813181B5
:102BE0002E5F3F4F240F351FDC0111963C932E932F
:102BF0002281338113963C932E931297B0E0A0E08C
:102C00008A819B810097B1F5FE0181919191E80F36
:102C1000F91F80919501909196018E179F0711F6EB
:102C2000109759F51092940110929301D093960148
:102C3000C0939501B7CFB383A28340815181240F04
:102C4000351FA217B30771F44E5F5F4F2D913C9172
:102C50001197420F531F5183408312962D913C913F
:102C600033832283009709F0ADCFF0939401E09372
:102C7000930198CFDE01EC01C3CF13961C921E92F4
:102C80001297D4CFCF92DF92EF92FF92CF93DF9340
:102C9000CDB7DEB72A970FB6F894DEBF0FBECDBF13
:102CA00089879A87A985BA852D913D914D915C912F
:102CB00029833A834B835C83232B242B252B41F4DC
:102CC00024E239ED4BE557E029833A834B835C835B
:102CD00069817A818B819C812DE133EF41E050E065
:102CE0000E94381769017A01A7EAB1E49B01AC019F
:102CF0000E94571769837A838B839C83ACEEB4EF71
:102D0000A70196010E9465179B01AC0189819A81F8
:102D1000AB81BC81820F931FA41FB51FB7FF03C0F7
:102D20000197A109B048E985FA8580839183A28340
:102D3000B3839F772A960FB6F894DEBF0FBECDBF40
:102D4000DF91CF91FF90EF90DF90CF9008950E9498
:102D50004216089582E191E00E9442160895B0E083
:102D6000A0E08093120190931301A0931401B093FB
:102D7000150108956817790768F4FB01DC01E40F79
:102D8000F51FA40FB51F02C002900E924150504093
:102D9000D8F708950C941F17BB274A3031F49923B4
:102DA00022F4BDE2909581959F4F0C94D816BB27D5
:102DB000FB015527AA27880F991FAA1FA41710F0F7
:102DC000A41B83955051B9F7A05DAA3308F0A95D03
:102DD000A193009779F7B111B1931192CB010C94A3
:102DE0002817B0E0A0E0E7EFF6E10C9470174C0173
:102DF0007B016A018901D90113968C91D0E0C0E072
:102E000081FF17C0CC15DD05A1F05401AE0CBF1C2D
:102E10000BC0D8011896ED91FC91B801D4018D91A9
:102E20004D010995892B29F48A149B0491F7219669
:102E3000E9CFCE01CDB7DEB7ECE00C948C17FB01E7
:102E4000DC0102C001900D9241505040D8F7089526
:102E5000DC01FC01672F71917723E1F7329704C001
:102E60007C916D9370836291AE17BF07C8F308958C
:102E7000052E97FB1EF400940E944F1757FD07D0B4
:102E80000E94A11707FC03D04EF40C944F175095E5
:102E90004095309521953F4F4F4F5F4F0895909546
:102EA0008095709561957F4F8F4F9F4F08950E9439
:102EB000C317A59F900DB49F900DA49F800D911DE9
:102EC00011240895B7FF0C9457170E945717821BBF
:102ED000930B08952F923F924F925F926F927F9241
:102EE0008F929F92AF92BF92CF92DF92EF92FF921A
:102EF0000F931F93CF93DF93CDB7DEB7CA1BDB0BC6
:102F00000FB6F894DEBF0FBECDBF09942A8839886A
:102F100048885F846E847D848C849B84AA84B98471
:102F2000C884DF80EE80FD800C811B81AA81B9817D
:102F3000CE0FD11D0FB6F894DEBF0FBECDBFED0191
:102F40000895A1E21A2EAA1BBB1BFD010DC0AA1FEA
:102F5000BB1FEE1FFF1FA217B307E407F50720F002
:102F6000A21BB30BE40BF50B661F771F881F991F7D
:102F70001A9469F760957095809590959B01AC01C6
:102F8000BD01CF010895A29FB001B39FC001A39FCF
:102F9000700D811D1124911DB29F700D811D112492
:102FA000911D0895F894FFCFA10BA10BAD0BAD0BB4
:102FB000BE0BB80BB80B8B0B8B0B8B0BC30B960B91
:102FC000960BBA0BFD0BFD0BEF0BEF0B1A0C090C5C
:102FD000090CD10BD10BD10B1E0CE00BE00B150C27
:102FE000710C710C630C630C8E0C7D0C7D0C450C0C
:0C2FF000450C450C920C540C540C890C40
:102FFC000201CD00AD0061007B008E000000A1013C
:10300C00200001000000446571756575696E6720CC
:10301C0066726F6D20656D7074792071756575655C
:10302C000A0050726F706F7274696F6E616C00443D
:10303C0061746100305F547261696E696E67004E35
:10304C00657572616C0045525200616464724E4148
:10305C00434B0077725F4E41434B00726561644E87
:04306C0041434B0091
:00000001FF
