:100000000C9442000C945F000C945F000C945F0011
:100010000C945F000C945F000C945F000C947B0ABE
:100020000C945F000C945F000C945F000C945F00D4
:100030000C945F000C945F000C945F000C945F00C4
:100040000C945F000C945F000C945F000C945F00B4
:100050000C945F000C945F000C945F0007634236C1
:10006000B79BD8A71A39685618AEBAAB558C1D3C49
:10007000B7CC5763BD6DEDFD753EF6177231BF000D
:100080000000803F11241FBECFEFD0E1DEBFCDBF07
:1000900011E0A0E0B1E0EEE8FDE202C005900D92B3
:1000A000A438B107D9F721E0A4E8B1E001C01D925E
:1000B000A13BB207E1F70E94A30C0C949B160C9491
:1000C0000000E0918F01F09190010190F081E02D0E
:1000D00090E080E0309739F001960480F581E02DC2
:1000E0003097D1F708950895CF93DF9300D000D0D3
:1000F000CDB7DEB7E0918F01F09190010190F081D2
:10010000E02D309799F080819181A281B38189831C
:100110009A83AB83BC8369817A818B819C810F90A8
:100120000F900F900F90DF91CF91089586E191E0AD
:100130000E94720919821A821B821C82ECCFCF9313
:10014000DF93E0918F01F0919001C081D1812097E0
:1001500049F08C819D8191838083CE01DF91CF9185
:100160000C9494142091AB013091AC014BE150E020
:1001700061E070E08CE191E00E94C315EECFCF9377
:10018000DF93E0918F01F0919001C081D1812097A0
:1001900041F08C819D8191838083CE01DF91CF914D
:1001A00008952091AB013091AC014BE150E061E04A
:1001B00070E08CE191E00E94C315EFCFEF92FF92C7
:1001C0000F931F93CF93DF9300D000D0CDB7DEB74E
:1001D00069837A838B839C8369817A818B819C81FB
:1001E0000E94911326EA3BE944E45BE369837A8346
:1001F0008B839C8369817A818B819C810E9491137E
:100200009B01AC01E982FA820B831C8369817A81AC
:100210008B819C810E94BF1069837A838B839C832E
:1002200069817A818B819C810F900F900F900F9044
:10023000DF91CF911F910F91FF90EF9008954F9212
:100240005F926F927F928F929F92AF92BF92CF9266
:10025000DF92EF92FF920F931F93CF93DF9300D023
:1002600000D00F92CDB7DEB72B013C0149014D8381
:10027000598360E070E080E89FE30E94BF10940122
:100280004D81598169837A838B839C8369817A81CB
:100290008B819C810E9491139201A30169837A83CF
:1002A0008B839C8369817A818B819C810E949113CD
:1002B0009701A80169837A838B839C8369817A8102
:1002C0008B819C810E94911326EA3BE944E45BE325
:1002D00069837A838B839C8369817A818B819C81FA
:1002E0000E9491139B01AC01A982BA82CB82DC826D
:1002F00069817A818B819C810E94BF1069837A8396
:100300008B839C8369817A818B819C810F900F9074
:100310000F900F900F90DF91CF911F910F91FF9051
:10032000EF90DF90CF90BF90AF909F908F907F9095
:100330006F905F904F9008952F923F924F925F92EF
:100340006F927F928F929F92AF92BF92CF92DF92E5
:10035000EF92FF920F931F93CF93DF93CDB7DEB74A
:10036000A2970FB6F894DEBF0FBECDBF5C017A0135
:1003700029A33AA3CB01770FAA0BBB0B898F9A8FC6
:10038000AB8FBC8FBC01CD010E9410121B012C0150
:10039000C501BB0CAA0BBB0B898F9A8FAB8FBC8F8F
:1003A000BC01CD010E9410123B014C01DE011196EF
:1003B000B88FAF8B8CE01D928A95E9F78701F70122
:1003C0003696F8A3EF8FCE0101969E8F8D8FD801C0
:1003D000ED90FD908D01F7012081318142815381A3
:1003E000298E3A8E4B8E5C8E698D7A8D8B8D9C8D8D
:1003F0000E9491135B016C01D70114962D913D91E0
:100400004D915C911797698E7A8E8B8E9C8E698D3B
:100410007A8D8B8D9C8D0E9491139B01AC01A98ECE
:10042000BA8ECB8EDC8E698D7A8D8B8D9C8D0E94E1
:10043000C010F7012085318542855385698F7A8FF9
:100440008B8F9C8F698D7A8D8B8D9C8D0E94BF10B8
:10045000DC01CB01B058898F9A8FAB8FBC8FBC0168
:10046000CD010E94A61120E030E040E85FE3698FF3
:100470007A8F8B8F9C8F698D7A8D8B8D9C8D0E944E
:10048000C0109B01AC0160E070E080E89FE30E9437
:100490002C11698F7A8F8B8F9C8FAD8DBE8D6D9354
:1004A0007D938D939D93BE8FAD8FEF8DF8A1E01757
:1004B000F10709F08CCFFE013D9688E0DF011D9227
:1004C0008A95E9F769A07AA06F013896FE8BED8BCB
:1004D000D3018D909D903D0184015401BCE0AB0E91
:1004E000B11CFE0131967F01212C312C412C512C65
:1004F000F70181919191A191B1917F01898F9A8F9B
:10050000AB8FBC8FD8012D913D914D915D918D01A7
:10051000698D7A8D8B8D9C8D0E9491139B01AC010E
:10052000298E3A8E4B8E5C8E698D7A8D8B8D9C8D4B
:100530000E94C0101B012C01A016B106C9F6F401DF
:100540002485358546855785698F3A8E8B8F5C8EDD
:10055000698D7A8D8B8D9C8D0E94C010DC01CB0142
:10056000B058898F9A8FAB8FBC8FBC01CD010E9490
:10057000A61120E030E040E85FE3698F7A8F8B8F2F
:100580009C8F698D7A8D8B8D9C8D0E94C0109B01F4
:10059000AC0160E070E080E89FE30E942C11698F5D
:1005A0007A8F8B8F9C8FD6016D937D938D939D93C6
:1005B0006D01ED89FE89EA17FB0709F089CF69898A
:1005C0007A898B899C890E94D8118B016D857E85E3
:1005D0008F8598890E94D8117A8F698F1C8F0B8F15
:1005E000698D7A8D8B8D9C8DA2960FB6F894DEBFA7
:1005F0000FBECDBFDF91CF911F910F91FF90EF9074
:10060000DF90CF90BF90AF909F908F907F906F9032
:100610005F904F903F902F900895EF92FF920F932D
:100620001F93CF93DF937B01B901DC01FA0106969A
:10063000CD91DD910081118122813381088319835D
:100640002A833B8304811581268137810C831D8396
:100650002E833F830085118522853385088719877E
:100660002A873B873C968A179B0711F7D701ED91A4
:10067000FC91EB0188819981AA81BB818083918360
:10068000A283B3838C819D81AE81BF818483958356
:10069000A683B78388859985AA85BB85808791873E
:1006A000A287B3878C859D85AE85BF858487958716
:1006B000A687B787D7011296ED91FC918889998911
:1006C000AA89BB8980839183A283B3838C899D8906
:1006D000AE89BF8984839583A683B783888D998DDE
:1006E000AA8DBB8D80879187A287B3878C8D9D8DC6
:1006F000AE8DBF8D84879587A687B787DF91CF9111
:100700001F910F91FF90EF900895CF93DF9300D04A
:1007100000D0CDB7DEB7DC01CB01B05889839A8316
:10072000AB83BC83BC01CD010E94A61120E030E068
:1007300040E85FE369837A838B839C8369817A8154
:100740008B819C810E94C0109B01AC0160E070E035
:1007500080E89FE30E942C1169837A838B839C83BA
:1007600069817A818B819C810F900F900F900F90FF
:10077000DF91CF910895CF92DF92EF92FF920F9386
:100780001F93CF93DF9300D000D000D0CDB7DEB75A
:10079000861B970B9C01990F440B550B29833A83B9
:1007A0004B835C83CA01B9010E9410128B018E83B6
:1007B0009D83209188013091890140918A01509157
:1007C0008B0169831A838B839C8369817A818B81F6
:1007D0009C810E94C0106B017C01AB01BC01409365
:1007E00088015093890160938A0170938B01A8015D
:1007F0006E817D81409384015093850160938601D1
:10080000709387012AE037ED43EA5DE369817A81DD
:100810008B819C810E9491138B018E839D8320E0AC
:1008200030E0A901C982DA82EB82FC8269817A8197
:100830008B819C810E9491139B01AC0109831A83D7
:100840008E818B838D818C8369817A818B819C8160
:100850000E94C01020E030E0A90169837A838B8375
:100860009C8369817A818B819C810E94C0106983FD
:100870007A838B839C8369817A818B819C810E949E
:10088000D811462F572F84E190E0841B950B8536B5
:10089000910514F084E690E097FF02C090E080E0BC
:1008A0009A8389838CEE9FEF841B950B181619068B
:1008B00014F490E080E08C392FEF920714F48CE967
:1008C0009FEF9C838B8369817A818B819C812696A3
:1008D0000FB6F894DEBF0FBECDBFDF91CF911F9151
:1008E0000F91FF90EF90DF90CF900895362F272F34
:1008F000BC01832F922F0E94BB03FFCFCF93DF93C6
:10090000CDB7DEB72E970FB6F894DEBF0FBECDBFC2
:100910008D839E830E948E159C01990F440B550B6D
:1009200029833A834B835C83CA01B9010E94101268
:1009300020E03EEF4FEF56E469837A838B839C83FC
:1009400069817A818B819C810E942C116F837887C9
:1009500089879A87AD81BE816D937D938D939C939A
:1009600013970E948E159C01990F440B550B2983F8
:100970003A834B835C83CA01B9010E94101220E0C4
:100980003EEF4FEF56E469837A838B839C836981C2
:100990007A818B819C810E942C11AD81BE8114963D
:1009A0006D937D938D939C93179780E090E0A0E8E2
:1009B000BFEBED81FE8180879187A287B3872E965A
:1009C0000FB6F894DEBF0FBECDBFDF91CF91089573
:1009D000EF92FF920F931F93CF93DF9300D000D03D
:1009E00000D0CDB7DEB78D839E83ED80FE8087017A
:1009F000045F1F4F0E948E159C01990F440B550BED
:100A000029833A834B835C83CA01B9010E94101287
:100A100020E03EEF4FEF56E469837A838B839C831B
:100A200069817A818B819C810E942C11D7016D9301
:100A30007D938D939D937D01A017B107D9F680E03A
:100A400090E0A0E8BFEBED81FE8184879587A687C3
:100A5000B78726960FB6F894DEBF0FBECDBFDF91E5
:100A6000CF911F910F91FF90EF9008959C01CB01C2
:100A70002817390724F0C901421753070CF00895CD
:100A8000CA010895CF93DF9300D000D00F92CDB765
:100A9000DEB78D83862F660F990BAA0BBB0B89835C
:100AA0009A83AB83BC83BC01CD010E9410122AE95A
:100AB00039E949E95EE369837A838B839C836981A1
:100AC0007A818B819C810E94911320E030E04EEF6F
:100AD00052E469837A838B839C8369817A818B81D9
:100AE0009C810E94C01069837A838B839C83698177
:100AF0007A818B819C810E944B1269837A838B83DC
:100B00009C8369817A818B819C810E94D8118D811F
:100B10000F900F900F900F900F90DF91CF910C944A
:100B2000CE0ACF92DF92EF92FF920F931F93CF9353
:100B3000DF93CDB7DEB7C254D1090FB6F894DEBF4C
:100B40000FBECDBF6B017E0122E2E20EF11C4AE036
:100B5000B7010E949E154AE08E010F5F1F4FB8013A
:100B6000C6010E949E15F70101900020E9F7319718
:100B70008EE290E2918380831282F801019000203E
:100B8000E9F7319791838083128260E080E00E94D0
:100B90008108C7010E94720961E080E00E9481081B
:100BA000C8010E9472090E94150ACE5BDF4F0FB682
:100BB000F894DEBF0FBECDBFDF91CF911F910F9193
:100BC000FF90EF90DF90CF900895EF92FF920F93F8
:100BD0001F93CF93DF937B018C0186E090E00E940E
:100BE000FE13EC01E882F9820A831B831D821C82BA
:100BF000E0918F01F0919001309799F0808191817F
:100C0000892BE1F0A281B3811596DC93CE931497E2
:100C1000D383C283DF91CF911F910F91FF90EF900B
:100C2000089584E090E00E94FE13FC0190939001EF
:100C300080938F011182108213821282D183C0832C
:100C4000D383C2831D821C82DF91CF911F910F91AC
:100C5000FF90EF9008950C94E505EAE7F0E08081BD
:100C600087688083ECE7F0E0808180668083089568
:100C700020917C00287F20937C0090917C00982B11
:100C800090937C0080917A00806480937A008091B8
:100C90007A0086FDFCCF8091790008958DB18F7C1C
:100CA0008DB985E08A95F1F700006D9A759885E019
:100CB0008A95F1F700006C9A749885E08A95F1F7AF
:100CC000000008956C9885E08A95F1F700006D9812
:100CD00085E08A95F1F7000008956D9885E08A9582
:100CE000F1F7000065990DC06C9885E08A95F1F7E1
:100CF00000006C9A749885E08A95F1F70000659B76
:100D0000F3CF6C9808956C9885E08A95F1F7000010
:100D10006C9A749885E08A95F1F7000008951F9306
:100D2000CF93DF93C82FD62F142F0E946D060E94F9
:100D30004E0687E013C06D9895E09A95F1F7000094
:100D40006C9895E09A95F1F700006C9A749895E08C
:100D50009A95F1F70000CC0F815029F0C6FDEBCF3A
:100D60006D9A7598E9CF6D9A759885E08A95F1F737
:100D700000006C9895E09A95F1F700006C9A7498D1
:100D800085E08A95F1F700006D9895E09A95F1F766
:100D900000006C9865994BC085E08A95F1F70000DA
:100DA0006C9A749895E09A95F1F7000088E014C069
:100DB0006D9A759895E09A95F1F700006C9895E01A
:100DC0009A95F1F700006C9A749895E09A95F1F76E
:100DD0000000DD0F815021F0D7FFEACF6D98EACFF8
:100DE0006D9885E08A95F1F700006C9865991AC0B6
:100DF00095E09A95F1F700006C9A749885E08A95D1
:100E0000F1F70000112351F06C9895E09A95F1F7F5
:100E100000006D9885E08A95F1F70000DF91CF9191
:100E20001F91089585E791E00E947209FFCF89E63E
:100E300091E00E947209FFCF6623E9F1A82FB92F34
:100E40002FEF260F30E02F5F3F4F2A0F3B1F8D9172
:100E500098E0FD01319716C06D9A759885E08A95E6
:100E6000F1F700006C9885E08A95F1F700006C9A24
:100E7000749885E08A95F1F700008081880F80835F
:100E8000915021F087FFE8CF6D98E8CF6D9885E00D
:100E90008A95F1F700006C98659918C085E08A95ED
:100EA000F1F700006C9A749885E08A95F1F70000DC
:100EB000A217B30761F66C9885E08A95F1F70000F8
:100EC0006D9885E08A95F1F70000089582E791E03A
:100ED0000E947209FFCF0F931F93CF93DF93082FC8
:100EE000EB01142F0E944E0687E013C06D9895E029
:100EF0009A95F1F700006C9895E09A95F1F700004B
:100F00006C9A749895E09A95F1F70000000F815063
:100F100029F006FDEBCF6D9A7598E9CF6D9885E0C5
:100F20008A95F1F700006C9895E09A95F1F700002A
:100F30006C9A749885E08A95F1F700006D9895E0B9
:100F40009A95F1F700006C9865995AC085E08A95EA
:100F5000F1F700006C9A749895E09A95F1F700000B
:100F60006D9885E08A95F1F700001123B1F12FEF1C
:100F7000210F30E02F5F3F4F2C0F3D1F98E08881FD
:100F8000880F88836C9885E08A95F1F70000659B4F
:100F900003C088818160888385E08A95F1F700002D
:100FA0006C9A749885E08A95F1F70000915039F7B2
:100FB0006D9A759895E09A95F1F700006C9885E028
:100FC0008A95F1F700006C9A749895E09A95F1F77C
:100FD00000002196C217D30789F685E08A95F1F7BC
:100FE00000006C9895E09A95F1F700006D9885E007
:100FF0008A95F1F70000DF91CF911F910F9108952D
:101000008AE791E00E947209FFCFCF93DF930F929E
:10101000CDB7DEB7498340E00E948F0661E0CE0184
:1010200001960E941C070F90DF91CF9108951F93A6
:10103000CF93DF930F92CDB7DEB7182F41E00E9418
:101040008F0641E0BE016F5F7F4F812F0E946B07CB
:1010500089810F90DF91CF911F91089561E08CE11C
:101060000C94170863E08CE10C94170865E08CE1A0
:101070000C9417088AE08A95F1F700C0449A8AE038
:101080008A95F1F700C044988AE08A95F1F700C08C
:101090000895F89482B98AE08A95F1F700C0449ADD
:1010A0008AE08A95F1F700C044988AE08A95F1F7C2
:1010B00000C0789408958F98F89482B98AE08A9550
:1010C000F1F700C0449A8AE08A95F1F700C044988D
:1010D0008AE08A95F1F700C0789408958F9AF89481
:1010E00082B98AE08A95F1F700C0449A8AE08A952D
:1010F000F1F700C044988AE08A95F1F700C078942F
:1011000008958031F0F46230E0F46E5F6295660F0E
:10111000660F607C860F8F98F89482B98AE08A9572
:10112000F1F700C0449A8AE08A95F1F700C044982C
:101130008AE08A95F1F700C0789485EC8A95F1F7FA
:10114000000008953C9A879A8FEF81B98FE19EE461
:101150000197F1F700C000008F98F89488E382B9F6
:101160009AE09A95F1F700C0449AEAE0EA95F1F71F
:1011700000C04498FAE0FA95F1F700C07894EFE7E0
:10118000F2E03197F1F700C000008F98F89482B92F
:10119000FAE0FA95F1F700C0449A9AE09A95F1F7CF
:1011A00000C04498EAE0EA95F1F700C07894EFE7D0
:1011B000F2E03197F1F700C000008F98F89482B9FF
:1011C000FAE0FA95F1F700C0449A9AE09A95F1F79F
:1011D00000C04498EAE0EA95F1F700C07894EFE7A0
:1011E000F2E03197F1F700C000008F98F89498E092
:1011F00092B9FAE0FA95F1F700C0449A9AE09A950C
:10120000F1F700C04498EAE0EA95F1F700C078945D
:10121000EFE7F2E03197F1F700C000008F98F89403
:1012200091E092B9FAE0FA95F1F700C0449A9AE099
:101230009A95F1F700C04498EAE0EA95F1F700C00A
:101240007894EFE7FEE33197F1F700C000008F9844
:10125000F89496E092B9FAE0FA95F1F700C0449A52
:101260009AE09A95F1F700C04498EAE0EA95F1F720
:1012700000C07894EFE7F2E03197F1F700C000008A
:101280008F98F89482B9FAE0FA95F1F700C0449A81
:101290008AE08A95F1F700C044989AE09A95F1F7B0
:1012A00000C07894EFE8F1E03197F1F700C000005A
:1012B0008F98F8948CE082B9FAE0FA95F1F700C0C3
:1012C000449A8AE08A95F1F700C044989AE09A958A
:1012D000F1F700C07894EFE8F1E03197F1F700C042
:1012E00000000895DC018C91882301F190E08F9A31
:1012F000F89482B98AE08A95F1F700C0449AEAE04E
:10130000EA95F1F700C04498FAE0FA95F1F700C0C9
:101310007894EFE7F2E03197F1F700C000009F5FAB
:10132000FD01E90FF11D80818111E1CF08951F9327
:10133000CF93DF939C01892B09F45AC045E011E05B
:10134000EFE0F7E2CAE0D0E0C901BF016F5F7F4F75
:101350000E949110662349F1E217F30770F5605D72
:101360008F9AF89462B9BAE0BA95F1F700C0449A3E
:101370002AE02A95F1F700C04498AAE0AA95F1F76F
:1013800000C07894AFE7B2E01197F1F700C0000019
:1013900010E09C01CF01BE010E94A510FB0141504D
:1013A00099F6DF91CF911F910895E217F30718F492
:1013B0001111EFCFD4CF1111EDCF605D8F9AF8945A
:1013C00062B9BAE0BA95F1F700C0449A8AE08A950A
:1013D000F1F700C044989AE09A95F1F700C078942C
:1013E000AFE7B2E01197F1F700C0000010E0D2CFF4
:1013F0008F9AF89480E382B92AE02A95F1F700C029
:10140000449A8AE08A95F1F700C044989AE09A9548
:10141000F1F700C07894AFE7B2E01197F1F700C0A0
:101420000000DF91CF911F9108958F98F89481E08B
:1014300082B98AE08A95F1F700C0449A9AE09A95B9
:10144000F1F700C044988AE08A95F1F700C07894DB
:101450008FE79EE30197F1F700C0000008955D9AC1
:101460005C980895382F262F4FEF6403C001112494
:1014700064E670E00E94A510311107C06093B300CC
:1014800012164CF45C9A5D98089567BD12162CF400
:101490005E9A5F9808950C942F0A5F9A5E9808955B
:1014A000CF93DF93C3EBD0E018820E942F0A17BCC2
:1014B0005F9A5E9884B1806984B98AB1806F8AB975
:1014C000E0EBF0E0808188668083808182608083A9
:1014D00084B5886684BD84B5826084BD8AE087BD9A
:1014E0008883DF91CF9108955C9A5D982C9A5F9ADA
:1014F0005E982F9A08952F932FB72F933F934F9372
:101500005F938F939F93EF93FF9340918E01542F9E
:101510005695252F30E081E090E001C0880F5A9564
:10152000EAF740FF26C04091880050918900220FC1
:10153000331FF901ED56FE4F20813181240F351FF5
:10154000309389002093880098B18095892388B9C9
:1015500080918E018F5F877080938E01FF91EF9154
:101560009F918F915F914F913F912F912FBF2F911D
:1015700018954091880050918900220F331FF9017E
:10158000E556FE4F20813181240F351F30938900AD
:101590002093880098B1892B88B9DACF90E02AE0AF
:1015A000629FB00111246C53764F880F991FFC0184
:1015B000E556FE4F718360838D569E4F24ED30E3D8
:1015C000261B370BFC01318320830895ABE9B1E082
:1015D00024EC39E011963C932E93E3E9F1E080E1AD
:1015E00097E29183808313963C932E931297938373
:1015F000828315963C932E93149795838483179634
:101600003C932E9316979783868387B18F6087B913
:10161000E1E8F0E01082808182608083EFE6F0E014
:10162000808182608083789408958CB18095881F32
:101630008827881F0895282F30E08E3010F080E032
:101640000895F901E356F94E0C94B91086B190E073
:101650002250310902C0959587952A95E2F781704D
:10166000089583B190E02950310902C0959587957E
:101670002A95E2F7817008952CB130E0A90102C0EB
:10168000559547958A95E2F7CA018170089582B30E
:1016900090E02F5F3F4F02C0959587952A95E2F71E
:1016A0008170089523B1E9CF83B186958170089543
:1016B0008CB186FB882780F9089583B181700895E5
:1016C000282F30E08E3030F4F901E555F94E0C94B6
:1016D000B910219808952250310981E090E001C0AD
:1016E000880F2A95EAF797B1662309F44DC0892B34
:1016F00087B908952950310981E090E001C0880F31
:101700002A95EAF794B1662309F446C0892B84B977
:1017100008952F5F3F4F81E090E001C0880F2A9528
:10172000EAF793B36623A1F1892B83BB089521E0E7
:1017300030E001C0220F8A95EAF78DB1662381F16E
:10174000282B2DB9089521E030E001C0220F8A95A1
:10175000EAF784B1662381F0282B24B90895662323
:1017600009F4B7CF219A0895662361F06E9A08951F
:10177000662331F0209A08952095282324B90895EE
:10178000209808956E9808958095892387B90895C3
:101790008095892383BB08958095892384B9089512
:1017A000209528232DB90895282F30E08E3030F46D
:1017B000F901E754F94E0C94B91029980895225074
:1017C000310981E090E001C0880F2A95EAF798B1CD
:1017D000662309F44DC0892B88B908952950310931
:1017E00081E090E001C0880F2A95EAF795B1662361
:1017F00009F446C0892B85B908952F5F3F4F81E0DA
:1018000090E001C0880F2A95EAF794B36623A1F10E
:10181000892B84BB089521E030E001C0220F8A9516
:10182000EAF78EB1662381F1282B2EB9089521E0C5
:1018300030E001C0220F8A95EAF785B1662381F076
:10184000282B25B90895662309F4B7CF299A08955E
:10185000662361F0769A0895662331F0289A0895F8
:101860002095282325B908952898089576980895F5
:101870008095892388B908958095892384BB08952C
:101880008095892385B90895209528232EB9089538
:10189000811104C0613041F0A0980895613011F0C9
:1018A000A1980895A19A0895A09A0895811102C05F
:1018B000A09A0895A19A0895811102C0A098089550
:1018C000A1980895529A83B3836083BB779A0E944C
:1018D0002D060E94A2080E94E60A0E94500A41E0DA
:1018E0006AE28CE10E9405082FEF81EE94E021501E
:1018F00080409040E1F700C000000C946D06A4E029
:10190000B0E0E5E8FCE00C944316FC010FB6F89457
:101910008091AD019091AE01A091AF01B091B00165
:1019200089839A83AB83BC830FBE309721F0808379
:101930009183A283B38369817A818B819C81249670
:10194000E2E00C945F16CDB7DEB7CA55D1090FB6E9
:10195000F894DEBF0FBECDBFCE01C99627969FAFCC
:101960008EAF27970C9729969FAF8EAF29970C972C
:101970002B969FAF8EAF2B974E0121E1820E911CCB
:101980002D969FAE8EAE2D97AE014F5F5F4F1A0121
:101990002F965FAF4EAF2F9790E080E00E947F0CB4
:1019A000272F862F922F0E94931510E000E085E0EC
:1019B000E82EF12CCE014D9663969FAF8EAF6397C4
:1019C000DE011D966196BFAFAEAF6197412C512CE1
:1019D00090E8692E9FEB792E80918C0190918D017A
:1019E0008230910509F45EC08330910508F08FC004
:1019F000892B09F43CC30E94150A60E080E00E9434
:101A0000810885E491E00E94720960E080E00E9414
:101A1000420560E081E00E94420560E085E00E94AE
:101A2000810890E080E00E94970982E00E943806D9
:101A3000A82E83E00E943806C82E61E080E00E9454
:101A40008108B12CC5010E94970961E085E00E94E0
:101A50008108D12CC6010E94970984E090E00E9481
:101A6000FE13FC01B182A082D382C2822081318127
:101A70004281538167962CAF3DAF4EAF5FAF679702
:101A8000E0910001F09101010190F081E02DCA0187
:101A9000B901099580918C0190918D018230910559
:101AA00009F0A2CF0E94150A60E080E00E94810840
:101AB0008AE491E00E9472090E94320890E09C0141
:101AC000205131092C32310508F01DC331E0E31AF1
:101AD000F10861E080E00E948108C7010E94970937
:101AE0000E94150B90E0680151E0C526C822D9225A
:101AF000C114D10409F4FAC29FEFA3EDB0E39150F1
:101B0000A040B040E1F700C00000860165CF8330FF
:101B1000910509F4D5C0049709F0B8C00E94150AD0
:101B200060E080E00E9481088EE591E00E947209E9
:101B300082E00E943806C82E83E00E943806D82E24
:101B40008C2D90E0B0E0A0E067968CAF9DAFAEAF7B
:101B5000BFAF6797BC01CD010E940E12E62F20E0B7
:101B600030E04FE753E46496EFAF649765967FAF3C
:101B7000659766968FAF669767969FAF67976796EC
:101B80006CAD7DAD8EAD9FAD67970E942C116496B4
:101B90006FAF649765967FAF659766968FAF6697D0
:101BA00067969FAF679767966CAD7DAD8EAD9FAD25
:101BB00067970E94D8116B961CAE1DAE1EAE1FAE6D
:101BC0006B9769967FAF6EAF69972D2D30E050E02F
:101BD00040E067962CAF3DAF4EAF5FAF6797CA014D
:101BE000B9010E940E12E62F20E030E04FE753E4E7
:101BF0006496EFAF649765967FAF659766968FAFF3
:101C0000669767969FAF679767966CAD7DAD8EAD13
:101C10009FAD67970E942C1164966FAF649765968D
:101C20007FAF659766968FAF669767969FAF67970A
:101C300067966CAD7DAD8EAD9FAD67970E94D81154
:101C40006B967FAF6EAF6B979E01255B3F4FAE01EA
:101C50004B5B5F4F6B966CAD7DAD8EAD9FAD6B9763
:101C60000E949C01D82E80E00E9442056D2D81E0EB
:101C70000E9442050E94150B90E0680131E0C326E6
:101C8000C822D922C114D10461F086010E94150A2C
:101C900060E080E00E94810885E691E00E94720980
:101CA0009BCE0E94150B811109C000FF07C041E0C7
:101CB00050E050938D0140938C01E7CF6801E5CF50
:101CC0000E94150A60E080E00E94810885E591E0AD
:101CD0000E9472090E948E159C01990F440B550BAE
:101CE00067962CAF3DAF4EAF5FAF6797CA01B901A2
:101CF0000E941012E62F20E03EEF4FEF56E464966C
:101D0000EFAF649765967FAF659766968FAF6697DE
:101D100067969FAF679767966CAD7DAD8EAD9FADB3
:101D200067970E942C1169AF7AAF8BAF9CAF0E946E
:101D30008E159C01990F440B550B67962CAF3DAF48
:101D40004EAF5FAF6797CA01B9010E941012E62F2C
:101D500020E03EEF4FEF56E46496EFAF6497659650
:101D60007FAF659766968FAF669767969FAF6797C9
:101D700067966CAD7DAD8EAD9FAD67970E942C11BF
:101D800021966CAF7DAF8EAF9FAF219725964CAE5D
:101D90005DAE6EAE7FAE25970E948E159C01990FA9
:101DA000440B550B67962CAF3DAF4EAF5FAF6797B7
:101DB000CA01B9010E941012E62F20E03EEF4FEF5A
:101DC00056E46496EFAF649765967FAF6597669625
:101DD0008FAF669767969FAF679767966CAD7DAD3F
:101DE0008EAD9FAD67970E942C116DA77EA78FA720
:101DF00098AB0E948E159C01990F440B550B67966A
:101E00002CAF3DAF4EAF5FAF6797CA01B9010E94DB
:101E10001012E62F20E03EEF4FEF56E46496EFAF4E
:101E2000649765967FAF659766968FAF669767965E
:101E30009FAF679767966CAD7DAD8EAD9FAD679791
:101E40000E942C1169AB7AAB8BAB9CAB4DAA5EAAFE
:101E50006FAA78AE0E948E159C01990F440B550B0A
:101E600067962CAF3DAF4EAF5FAF6797CA01B90120
:101E70000E941012E62F20E03EEF4FEF56E46496EA
:101E8000EFAF649765967FAF659766968FAF66975D
:101E900067969FAF679767966CAD7DAD8EAD9FAD32
:101EA00067970E942C1169A37AA38BA39CA30E941D
:101EB0008E159C01990F440B550B67962CAF3DAFC7
:101EC0004EAF5FAF6797CA01B9010E941012E62FAB
:101ED00020E03EEF4FEF56E46496EFAF64976596CF
:101EE0007FAF659766968FAF669767969FAF679748
:101EF00067966CAD7DAD8EAD9FAD67970E942C113E
:101F00006DA37EA38FA398A749A65AA66BA67CA60D
:101F100064010E948E159C01990F440B550B679626
:101F20002CAF3DAF4EAF5FAF6797CA01B9010E94BA
:101F30001012E62F20E03EEF4FEF56E46496EFAF2D
:101F4000649765967FAF659766968FAF669767963D
:101F50009FAF679767966CAD7DAD8EAD9FAD679770
:101F60000E942C11D6016D937D938D939D936D01ED
:101F70006396EEADFFAD6397AE17BF0751F64D8E7A
:101F80005E8E6F8E78A261010E948E159C01990F62
:101F9000440B550B67962CAF3DAF4EAF5FAF6797C5
:101FA000CA01B9010E941012E62F20E03EEF4FEF68
:101FB00056E46496EFAF649765967FAF6597669633
:101FC0008FAF669767969FAF679767966CAD7DAD4D
:101FD0008EAD9FAD67970E942C1167966CAF7DAF59
:101FE0008EAF9FAF6797D6016D937D938D939D9331
:101FF0006D016196EEADFFAD6197AE17BF0721F69B
:102000004D865E866F86788A1E141F040CF067C0AA
:10201000D12CC12C07C0FFEFCF1ADF0AEC14FD044E
:1020200009F45DC0E0910001F09101018681978182
:10203000FC0109951816190674F7E0910001F0915A
:10204000010180859185FC010995FC0100811181C8
:10205000E280F380E0910001F09101010280F381C0
:10206000E02D0995B701C8010E94BB03FFCF60E0D6
:1020700080E00E94810888E391E00E94720982E07A
:102080000E943806D82E83E00E943806682F70E040
:102090008D2D90E00E94BB03D82E80E00E94420567
:1020A0006D2D81E00E9442050E94150B90E06801B1
:1020B000B1E0CB26C822D922C114D10411F0860187
:1020C0009ACC0E94150B811127C000FF25C0E1E0CA
:1020D000F0E0F0938D01E0938C0186018CCC24E03C
:1020E00030E030938D0120938C0118CD0E94150BA8
:1020F000811115C000FF13C083E090E090938D0123
:1021000080938C01F9CC8F5B91098C9708F0E1CC1E
:102110004FEFE41AF40ADDCC680186016CCC68014B
:10212000EBCCAA1BBB1B51E107C0AA1FBB1FA61704
:10213000B70710F0A61BB70B881F991F5A95A9F770
:1021400080959095BC01CD01089597FB072E16F45C
:10215000009407D077FD09D00E94911007FC05D0AC
:102160003EF4909581959F4F0895709561957F4FAE
:102170000895EE0FFF1F0590F491E02D099450583B
:10218000BB27AA270E94D7100C94C9120E94BB1229
:1021900038F00E94C21220F039F49F3F19F426F45F
:1021A0000C9491120EF4E095E7FB0C946212E92F67
:1021B0000E94DA1258F3BA1762077307840795076B
:1021C00020F079F4A6F50C9414130EF4E0950B2E80
:1021D000BA2FA02D0B01B90190010C01CA01A00179
:1021E0001124FF27591B99F0593F50F4503E68F1D4
:1021F0001A16F040A22F232F342F4427585FF3CF15
:10220000469537952795A795F0405395C9F77EF4E5
:102210001F16BA0B620B730B840BBAF09150A1F02E
:10222000FF0FBB1F661F771F881FC2F70EC0BA0FB4
:10223000621F731F841F48F4879577956795B7953C
:10224000F7959E3F08F0B0CF9395880F08F0992737
:10225000EE0F9795879508950E9440110C94C9122E
:102260000E94C21258F00E94BB1240F029F45F3F56
:1022700029F00C94621251110C9415130C949112C4
:102280000E94DA1268F39923B1F3552391F3951B59
:10229000550BBB27AA2762177307840738F09F5F87
:1022A0005F4F220F331F441FAA1FA9F335D00E2EF4
:1022B0003AF0E0E832D091505040E695001CCAF761
:1022C0002BD0FE2F29D0660F771F881FBB1F261724
:1022D00037074807AB07B0E809F0BB0B802DBF01FB
:1022E000FF2793585F4F3AF09E3F510578F00C94CA
:1022F00062120C9415135F3FE4F3983ED4F3869575
:1023000077956795B795F7959F5FC9F7880F911DEA
:102310009695879597F90895E1E0660F771F881FD6
:10232000BB1F621773078407BA0720F0621B730B89
:10233000840BBA0BEE1F88F7E095089529F416F088
:102340000C9462120C9414130C9491120E94E212D9
:10235000A8F39638A0F707F80F92E8942BE33AEA2F
:1023600048EB5FE70E94A7130F920F920F924DB7B1
:102370005EB70F920E945D13ECE5F0E00E949412AC
:102380004F915F91EF91FF91E595EE1FFF1F49F08F
:10239000FE57E0684427EE0F441FFA95E1F7419598
:1023A000550B0E9427130F9007FE0C941B130895E2
:1023B0000E94DF116894B1110C94151308950E94C6
:1023C000E21288F09F5798F0B92F9927B751B0F0D3
:1023D000E1F0660F771F881F991F1AF0BA95C9F7A9
:1023E00014C0B13091F00E941413B1E008950C9420
:1023F0001413672F782F8827B85F39F0B93FCCF3D3
:10240000869577956795B395D9F73EF49095809525
:10241000709561957F4F8F4F9F4F0895E89409C045
:1024200097FB3EF490958095709561957F4F8F4F07
:102430009F4F9923A9F0F92F96E9BB279395F6951D
:10244000879577956795B795F111F8CFFAF4BB0F9B
:1024500011F460FF1BC06F5F7F4F8F4F9F4F16C0FF
:10246000882311F096E911C0772321F09EE8872F89
:10247000762F05C0662371F096E8862F70E060E045
:102480002AF09A95660F771F881FDAF7880F9695BE
:10249000879597F908950E94FC1290F09F3748F4B1
:1024A000911116F00C94151360E070E080E89FEB3A
:1024B000089526F41B16611D711D811D0C94681270
:1024C0000C94831297F99F6780E870E060E00895AC
:1024D000882371F4772321F09850872B762F07C03B
:1024E000662311F499270DC09051862B70E060E0AF
:1024F0002AF09A95660F771F881FDAF7880F96954E
:10250000879597F908959F3F31F0915020F4879572
:1025100077956795B795880F911D9695879597F94B
:1025200008959FEF80EC0895DF93CF931F930F934F
:10253000FF92EF92DF927B018C01689406C0DA2E45
:10254000EF010E94A413FE01E894A5912591359115
:1025500045915591A6F3EF010E94D710FE01970116
:10256000A801DA9469F7DF90EF90FF900F911F9127
:10257000CF91DF91089500240A94161617061806C5
:102580000906089500240A94121613061406050677
:102590000895092E0394000C11F4882352F0BB0F08
:1025A00040F4BF2B11F460FF04C06F5F7F4F8F4F6B
:1025B0009F4F089557FD9058440F551F59F05F3FA6
:1025C00071F04795880F97FB991F61F09F3F79F055
:1025D00087950895121613061406551FF2CF4695D7
:1025E000F1DF08C0161617061806991FF1CF869559
:1025F00071056105089408950E94E212A0F0BEE7FB
:10260000B91788F4BB279F3860F41616B11D672FE1
:10261000782F8827985FF7CF869577956795B11DB6
:1026200093959639C8F30895E894BB2766277727D2
:10263000CB0197F908959B01AC0160E070E080E860
:102640009FE30C942C110C9462120C9483120E9440
:10265000E212D8F39923C9F3940F511DA3F39150BB
:10266000504094F059F0882332F0660F771F881F8E
:1026700091505040C1F79E3F51052CF7880F911D96
:102680009695879597F908955F3FACF0983E9CF03A
:10269000BB27869577956795B79508F4B1609395B4
:1026A000C1F7BB0F58F711F460FFE8CF6F5F7F4FA2
:1026B0008F4F9F4FE3CF0C941513FA01DC01AA0F43
:1026C000BB1F9B01AC01BF5728F4222733274427A7
:1026D000507820C0B75190F4AB2F00244695379521
:1026E0002795011CA395D2F3002071F0220F331F10
:1026F000441FB395DAF30ED00C94BF10613071050E
:10270000A0E88A07B94630F49B01AC016627772719
:1027100088279078309621F0208331834283538339
:1027200008950E94A4130C94C9120E94BB1238F0A1
:102730000E94C21220F0952311F00C9462120C94A6
:10274000911211240C9415130E94DA1270F3959FC4
:10275000C1F3950F50E0551F629FF001729FBB2798
:10276000F00DB11D639FAA27F00DB11DAA1F649F34
:102770006627B00DA11D661F829F2227B00DA11DE7
:10278000621F739FB00DA11D621F839FA00D611D6D
:10279000221F749F3327A00D611D231F849F600D8E
:1027A000211D822F762F6A2F11249F5750409AF0B7
:1027B000F1F088234AF0EE0FFF1FBB1F661F771F43
:1027C000881F91505040A9F79E3F510580F00C940E
:1027D00062120C9415135F3FE4F3983ED4F3869590
:1027E00077956795B795F795E7959F5FC1F7FE2BAE
:1027F000880F911D9695879597F908950F931F93CC
:10280000CF93DF939C01029710F422E030E0E09137
:10281000A501F091A60190E080E0B0E0A0E0309743
:1028200091F4009709F445C0821B930B8430910505
:10283000B8F58A819B816115710569F1FB0193836C
:102840008283FE0111C040815181028113814217B0
:102850005307F0F04217530799F4109761F012965E
:102860000C93129713961C933296CF01DF91CF9160
:102870001F910F9108950093A5011093A601F4CF25
:10288000009719F04817590718F4CA01BD01EF0164
:10289000DF01F801C4CF9093A6018093A501D1CFA9
:1028A000FE01E80FF91F21933193029799838883E2
:1028B000DCCF8091A3019091A401892B41F48091F8
:1028C0000E0190910F019093A4018093A301809138
:1028D0000C0190910D01009741F48DB79EB7409186
:1028E000100150911101841B950B4091A30150914F
:1028F000A4014817590708F0B8CF841B950B82171D
:10290000930708F4B2CFB9016E5F7F4F8617970720
:1029100008F4ABCF640F751F7093A4016093A301FB
:10292000FA0121933193A1CFCF93DF939C010097BC
:10293000E9F0FC01329713821282C091A501D09177
:10294000A601DE0190E080E02097A1F480819181D2
:10295000280F391F8091A3019091A401821793073A
:1029600009F067C0F093A401E093A301DF91CF9138
:102970000895DA01AE17BF0708F041C012964D91D5
:102980005C911397CD014115510599F7DC01139620
:10299000FC93EE9312974D915D91A40FB51FEA172A
:1029A000FB0781F4208131812E5F3F4F240F351FBB
:1029B000DC0111963C932E932281338113963C9334
:1029C0002E931297B0E0A0E08A819B810097B1F529
:1029D000FE0181919191E80FF91F8091A3019091DF
:1029E000A4018E179F0711F6109759F51092A601B2
:1029F0001092A501D093A401C093A301B7CFB383D4
:102A0000A28340815181240F351FA217B30771F4AF
:102A10004E5F5F4F2D913C911197420F531F518391
:102A2000408312962D913C9133832283009709F0C5
:102A3000ADCFF093A601E093A50198CFDE01EC01A4
:102A4000C3CF13961C921E921297D4CFCF92DF92CF
:102A5000EF92FF92CF93DF93CDB7DEB72A970FB6F1
:102A6000F894DEBF0FBECDBF89879A87A985BA8546
:102A70002D913D914D915C9129833A834B835C83E9
:102A8000232B242B252B41F424E239ED4BE557E091
:102A900029833A834B835C8369817A818B819C8112
:102AA0002DE133EF41E050E00E94011669017A0107
:102AB000A7EAB1E49B01AC010E94201669837A83E6
:102AC0008B839C83ACEEB4EFA70196010E942E1677
:102AD0009B01AC0189819A81AB81BC81820F931FDC
:102AE000A41FB51FB7FF03C00197A109B048E9852E
:102AF000FA8580839183A283B3839F772A960FB64A
:102B0000F894DEBF0FBECDBFDF91CF91FF90EF9065
:102B1000DF90CF9008950E942615089582E191E0FC
:102B20000E9426150895B0E0A0E0809312019093D2
:102B30001301A0931401B09315010895BB274A30E7
:102B400031F4992322F4BDE2909581959F4F0C9426
:102B5000AA15BB27FB015527AA27880F991FAA1F73
:102B6000A41710F0A41B83955051B9F7A05DAA33A8
:102B700008F0A95DA193009779F7B111B193119273
:102B8000CB010C94F115B0E0A0E0E9ECF5E10C9478
:102B900039164C017B016A018901D90113968C9188
:102BA000D0E0C0E081FF17C0CC15DD05A1F05401D5
:102BB000AE0CBF1C0BC0D8011896ED91FC91B8016A
:102BC000D4018D914D010995892B29F48A149B0418
:102BD00091F72196E9CFCE01CDB7DEB7ECE00C94AA
:102BE0005516DC01FC01672F71917723E1F73297CD
:102BF00004C07C916D9370836291AE17BF07C8F3D8
:102C00000895052E97FB1EF400940E94181657FD98
:102C100007D00E946A1607FC03D04EF40C941816D5
:102C200050954095309521953F4F4F4F5F4F0895F8
:102C300090958095709561957F4F8F4F9F4F089528
:102C40000E948C16A59F900DB49F900DA49F800D9F
:102C5000911D11240895B7FF0C9420160E94201690
:102C6000821B930B08952F923F924F925F926F9227
:102C70007F928F929F92AF92BF92CF92DF92EF920C
:102C8000FF920F931F93CF93DF93CDB7DEB7CA1B8D
:102C9000DB0B0FB6F894DEBF0FBECDBF09942A88B8
:102CA000398848885F846E847D848C849B84AA8460
:102CB000B984C884DF80EE80FD800C811B81AA81ED
:102CC000B981CE0FD11D0FB6F894DEBF0FBECDBFB8
:102CD000ED010895A1E21A2EAA1BBB1BFD010DC038
:102CE000AA1FBB1FEE1FFF1FA217B307E407F507BC
:102CF00020F0A21BB30BE40BF50B661F771F881F98
:102D0000991F1A9469F760957095809590959B012D
:102D1000AC01BD01CF010895A29FB001B39FC001D6
:102D2000A39F700D811D1124911DB29F700D811DF7
:102D30001124911D0895F894FFCF3C0B3C0B470BD9
:102D4000470B580B520B520B260B260B260B5D0B19
:102D5000310B310B540B970B970B890B890BB40B71
:102D6000A30BA30B6B0B6B0B6B0BB80B7A0B7A0BD8
:102D7000AF0B0B0C0B0CFD0BFD0B280C170C170CE1
:0E2D8000DF0BDF0BDF0B2C0CEE0BEE0B230C2E
:102D8E0002012B069F0074006100BF000000B1011C
:102D9E002000010000006572726F7200446571754B
:102DAE006575696E672066726F6D20656D707479DA
:102DBE002071756575650A0050726F706F72746957
:102DCE006F6E616C004461746100547261696E696A
:102DDE006E675F3000547261696E696E67004E6592
:102DEE007572616C0045525200616464724E4143CB
:102DFE004B0077725F4E41434B00726561644E41EA
:042E0E00434B000032
:00000001FF
